{
  "_format": "hh-sol-artifact-1",
  "contractName": "AutomationCounterEchidnaTest",
  "sourceName": "contracts/test/fuzzing/AutomationCounterEchidnaTest.sol",
  "abi": [
    {
      "inputs": [],
      "stateMutability": "nonpayable",
      "type": "constructor"
    },
    {
      "inputs": [
        {
          "internalType": "bytes",
          "name": "",
          "type": "bytes"
        }
      ],
      "name": "checkUpkeep",
      "outputs": [
        {
          "internalType": "bool",
          "name": "upkeepNeeded",
          "type": "bool"
        },
        {
          "internalType": "bytes",
          "name": "",
          "type": "bytes"
        }
      ],
      "stateMutability": "view",
      "type": "function"
    },
    {
      "inputs": [],
      "name": "counter",
      "outputs": [
        {
          "internalType": "uint256",
          "name": "",
          "type": "uint256"
        }
      ],
      "stateMutability": "view",
      "type": "function"
    },
    {
      "inputs": [],
      "name": "echidna_test_perform_upkeep_gate",
      "outputs": [
        {
          "internalType": "bool",
          "name": "",
          "type": "bool"
        }
      ],
      "stateMutability": "view",
      "type": "function"
    },
    {
      "inputs": [],
      "name": "interval",
      "outputs": [
        {
          "internalType": "uint256",
          "name": "",
          "type": "uint256"
        }
      ],
      "stateMutability": "view",
      "type": "function"
    },
    {
      "inputs": [],
      "name": "lastTimeStamp",
      "outputs": [
        {
          "internalType": "uint256",
          "name": "",
          "type": "uint256"
        }
      ],
      "stateMutability": "view",
      "type": "function"
    },
    {
      "inputs": [
        {
          "internalType": "bytes",
          "name": "",
          "type": "bytes"
        }
      ],
      "name": "performUpkeep",
      "outputs": [],
      "stateMutability": "nonpayable",
      "type": "function"
    }
  ],
  "bytecode": "0x60a060405234801561001057600080fd5b50620a8c0060805242600155600080556080516104366100416000396000818160e901526101b301526104366000f3fe608060405234801561001057600080fd5b50600436106100725760003560e01c80636e04ff0d116100505780636e04ff0d146100b15780637d1b7ebd146100d2578063947a36fb146100e457600080fd5b80633f3b3b27146100775780634585e33b1461009357806361bc221a146100a8575b600080fd5b61008060015481565b6040519081526020015b60405180910390f35b6100a66100a13660046101e8565b61010b565b005b61008060005481565b6100c46100bf366004610289565b6101ad565b60405161008a929190610358565b6000546040519015815260200161008a565b6100807f000000000000000000000000000000000000000000000000000000000000000081565b6000610125604051806020016040528060008152506101ad565b50905080610193576040517f08c379a000000000000000000000000000000000000000000000000000000000815260206004820152601560248201527f54696d6520696e74657276616c206e6f74206d65740000000000000000000000604482015260640160405180910390fd5b4260019081556000546101a5916103fd565b600055505050565b600060607f0000000000000000000000000000000000000000000000000000000000000000600154426101e09190610416565b119150915091565b600080602083850312156101fb57600080fd5b823567ffffffffffffffff8082111561021357600080fd5b818501915085601f83011261022757600080fd5b81358181111561023657600080fd5b86602082850101111561024857600080fd5b60209290920196919550909350505050565b7f4e487b7100000000000000000000000000000000000000000000000000000000600052604160045260246000fd5b60006020828403121561029b57600080fd5b813567ffffffffffffffff808211156102b357600080fd5b818401915084601f8301126102c757600080fd5b8135818111156102d9576102d961025a565b604051601f82017fffffffffffffffffffffffffffffffffffffffffffffffffffffffffffffffe0908116603f0116810190838211818310171561031f5761031f61025a565b8160405282815287602084870101111561033857600080fd5b826020860160208301376000928101602001929092525095945050505050565b821515815260006020604081840152835180604085015260005b8181101561038e57858101830151858201606001528201610372565b5060006060828601015260607fffffffffffffffffffffffffffffffffffffffffffffffffffffffffffffffe0601f830116850101925050509392505050565b7f4e487b7100000000000000000000000000000000000000000000000000000000600052601160045260246000fd5b80820180821115610410576104106103ce565b92915050565b81810381811115610410576104106103ce56fea164736f6c6343000813000a",
  "linkReferences": {},
  "deployedLinkReferences": {}
}