{
  "_format": "hh-sol-artifact-1",
  "contractName": "PriceConsumerV3",
  "sourceName": "contracts/PriceConsumerV3.sol",
  "abi": [
    {
      "inputs": [
        {
          "internalType": "address",
          "name": "_priceFeed",
          "type": "address"
        }
      ],
      "stateMutability": "nonpayable",
      "type": "constructor"
    },
    {
      "inputs": [],
      "name": "getLatestPrice",
      "outputs": [
        {
          "internalType": "int256",
          "name": "",
          "type": "int256"
        }
      ],
      "stateMutability": "view",
      "type": "function"
    },
    {
      "inputs": [],
      "name": "getPriceFeed",
      "outputs": [
        {
          "internalType": "contract AggregatorV3Interface",
          "name": "",
          "type": "address"
        }
      ],
      "stateMutability": "view",
      "type": "function"
    }
  ],
  "bytecode": "0x60a060405234801561001057600080fd5b5060405161024d38038061024d83398101604081905261002f91610040565b6001600160a01b0316608052610070565b60006020828403121561005257600080fd5b81516001600160a01b038116811461006957600080fd5b9392505050565b6080516101bd610090600039600081816070015260a501526101bd6000f3fe608060405234801561001057600080fd5b50600436106100365760003560e01c80638e15f4731461003b5780639e87a5cd14610056575b600080fd5b61004361009a565b6040519081526020015b60405180910390f35b60405173ffffffffffffffffffffffffffffffffffffffff7f000000000000000000000000000000000000000000000000000000000000000016815260200161004d565b6000806000806000807f000000000000000000000000000000000000000000000000000000000000000073ffffffffffffffffffffffffffffffffffffffff1663feaf968c6040518163ffffffff1660e01b815260040160a060405180830381865afa15801561010e573d6000803e3d6000fd5b505050506040513d601f19601f820116820180604052508101906101329190610160565b50919998505050505050505050565b805169ffffffffffffffffffff8116811461015b57600080fd5b919050565b600080600080600060a0868803121561017857600080fd5b61018186610141565b94506020860151935060408601519250606086015191506101a460808701610141565b9050929550929590935056fea164736f6c6343000813000a",
  "linkReferences": {},
  "deployedLinkReferences": {}
}