{
  "_format": "hh-sol-artifact-1",
  "contractName": "RandomNumberConsumerV2Plus",
  "sourceName": "contracts/RandomNumberConsumerV2Plus.sol",
  "abi": [
    {
      "inputs": [
        {
          "internalType": "uint256",
          "name": "subscriptionId",
          "type": "uint256"
        },
        {
          "internalType": "address",
          "name": "vrfCoordinator",
          "type": "address"
        },
        {
          "internalType": "bytes32",
          "name": "keyHash",
          "type": "bytes32"
        }
      ],
      "stateMutability": "nonpayable",
      "type": "constructor"
    },
    {
      "inputs": [
        {
          "internalType": "address",
          "name": "have",
          "type": "address"
        },
        {
          "internalType": "address",
          "name": "want",
          "type": "address"
        }
      ],
      "name": "OnlyCoordinatorCanFulfill",
      "type": "error"
    },
    {
      "inputs": [
        {
          "internalType": "address",
          "name": "have",
          "type": "address"
        },
        {
          "internalType": "address",
          "name": "owner",
          "type": "address"
        },
        {
          "internalType": "address",
          "name": "coordinator",
          "type": "address"
        }
      ],
      "name": "OnlyOwnerOrCoordinator",
      "type": "error"
    },
    {
      "inputs": [],
      "name": "ZeroAddress",
      "type": "error"
    },
    {
      "anonymous": false,
      "inputs": [
        {
          "indexed": false,
          "internalType": "address",
          "name": "vrfCoordinator",
          "type": "address"
        }
      ],
      "name": "CoordinatorSet",
      "type": "event"
    },
    {
      "anonymous": false,
      "inputs": [
        {
          "indexed": true,
          "internalType": "address",
          "name": "from",
          "type": "address"
        },
        {
          "indexed": true,
          "internalType": "address",
          "name": "to",
          "type": "address"
        }
      ],
      "name": "OwnershipTransferRequested",
      "type": "event"
    },
    {
      "anonymous": false,
      "inputs": [
        {
          "indexed": true,
          "internalType": "address",
          "name": "from",
          "type": "address"
        },
        {
          "indexed": true,
          "internalType": "address",
          "name": "to",
          "type": "address"
        }
      ],
      "name": "OwnershipTransferred",
      "type": "event"
    },
    {
      "anonymous": false,
      "inputs": [
        {
          "indexed": false,
          "internalType": "uint256[]",
          "name": "randomWords",
          "type": "uint256[]"
        }
      ],
      "name": "ReturnedRandomness",
      "type": "event"
    },
    {
      "inputs": [],
      "name": "acceptOwnership",
      "outputs": [],
      "stateMutability": "nonpayable",
      "type": "function"
    },
    {
      "inputs": [],
      "name": "owner",
      "outputs": [
        {
          "internalType": "address",
          "name": "",
          "type": "address"
        }
      ],
      "stateMutability": "view",
      "type": "function"
    },
    {
      "inputs": [
        {
          "internalType": "uint256",
          "name": "requestId",
          "type": "uint256"
        },
        {
          "internalType": "uint256[]",
          "name": "randomWords",
          "type": "uint256[]"
        }
      ],
      "name": "rawFulfillRandomWords",
      "outputs": [],
      "stateMutability": "nonpayable",
      "type": "function"
    },
    {
      "inputs": [],
      "name": "requestRandomWords",
      "outputs": [],
      "stateMutability": "nonpayable",
      "type": "function"
    },
    {
      "inputs": [
        {
          "internalType": "uint256",
          "name": "",
          "type": "uint256"
        }
      ],
      "name": "s_randomWords",
      "outputs": [
        {
          "internalType": "uint256",
          "name": "",
          "type": "uint256"
        }
      ],
      "stateMutability": "view",
      "type": "function"
    },
    {
      "inputs": [],
      "name": "s_requestId",
      "outputs": [
        {
          "internalType": "uint256",
          "name": "",
          "type": "uint256"
        }
      ],
      "stateMutability": "view",
      "type": "function"
    },
    {
      "inputs": [],
      "name": "s_vrfCoordinator",
      "outputs": [
        {
          "internalType": "contract IVRFCoordinatorV2Plus",
          "name": "",
          "type": "address"
        }
      ],
      "stateMutability": "view",
      "type": "function"
    },
    {
      "inputs": [
        {
          "internalType": "address",
          "name": "_vrfCoordinator",
          "type": "address"
        }
      ],
      "name": "setCoordinator",
      "outputs": [],
      "stateMutability": "nonpayable",
      "type": "function"
    },
    {
      "inputs": [
        {
          "internalType": "address",
          "name": "to",
          "type": "address"
        }
      ],
      "name": "transferOwnership",
      "outputs": [],
      "stateMutability": "nonpayable",
      "type": "function"
    }
  ],
  "bytecode": "0x60c060405234801561001057600080fd5b50604051610ce6380380610ce683398101604081905261002f916101b5565b8133806000816100865760405162461bcd60e51b815260206004820152601860248201527f43616e6e6f7420736574206f776e657220746f207a65726f000000000000000060448201526064015b60405180910390fd5b600080546001600160a01b0319166001600160a01b03848116919091179091558116156100b6576100b68161010c565b5050506001600160a01b0381166100e05760405163d92e233d60e01b815260040160405180910390fd5b600280546001600160a01b0319166001600160a01b039290921691909117905560a052506080526101fb565b336001600160a01b038216036101645760405162461bcd60e51b815260206004820152601760248201527f43616e6e6f74207472616e7366657220746f2073656c66000000000000000000604482015260640161007d565b600180546001600160a01b0319166001600160a01b0383811691821790925560008054604051929316917fed8889f560326eb138920d842192f0eb3dd22b4f139c87a2c57538e05bae12789190a350565b6000806000606084860312156101ca57600080fd5b835160208501519093506001600160a01b03811681146101e957600080fd5b80925050604084015190509250925092565b60805160a051610ac661022060003960006104a8015260006104cb0152610ac66000f3fe608060405234801561001057600080fd5b50600436106100a35760003560e01c80639eccacf611610076578063e89e106a1161005b578063e89e106a14610144578063f2fde38b1461015b578063f6eaffc81461016e57600080fd5b80639eccacf61461011c578063e0c862891461013c57600080fd5b80631fe543e3146100a857806379ba5097146100bd5780638da5cb5b146100c55780638ea9811714610109575b600080fd5b6100bb6100b63660046108bf565b610181565b005b6100bb610209565b60005473ffffffffffffffffffffffffffffffffffffffff165b60405173ffffffffffffffffffffffffffffffffffffffff90911681526020015b60405180910390f35b6100bb61011736600461093e565b610306565b6002546100df9073ffffffffffffffffffffffffffffffffffffffff1681565b6100bb610490565b61014d60045481565b604051908152602001610100565b6100bb61016936600461093e565b6105ab565b61014d61017c36600461097b565b6105bf565b60025473ffffffffffffffffffffffffffffffffffffffff1633146101f9576002546040517f1cf993f400000000000000000000000000000000000000000000000000000000815233600482015273ffffffffffffffffffffffffffffffffffffffff90911660248201526044015b60405180910390fd5b6102048383836105e0565b505050565b60015473ffffffffffffffffffffffffffffffffffffffff16331461028a576040517f08c379a000000000000000000000000000000000000000000000000000000000815260206004820152601660248201527f4d7573742062652070726f706f736564206f776e65720000000000000000000060448201526064016101f0565b60008054337fffffffffffffffffffffffff00000000000000000000000000000000000000008083168217845560018054909116905560405173ffffffffffffffffffffffffffffffffffffffff90921692909183917f8be0079c531659141344cd1fd0a4f28419497f9722a3daafe3b4186f6b6457e091a350565b60005473ffffffffffffffffffffffffffffffffffffffff163314801590610346575060025473ffffffffffffffffffffffffffffffffffffffff163314155b156103ca573361036b60005473ffffffffffffffffffffffffffffffffffffffff1690565b6002546040517f061db9c100000000000000000000000000000000000000000000000000000000815273ffffffffffffffffffffffffffffffffffffffff938416600482015291831660248301529190911660448201526064016101f0565b73ffffffffffffffffffffffffffffffffffffffff8116610417576040517fd92e233d00000000000000000000000000000000000000000000000000000000815260040160405180910390fd5b600280547fffffffffffffffffffffffff00000000000000000000000000000000000000001673ffffffffffffffffffffffffffffffffffffffff83169081179091556040519081527fd1a6a14209a385a964d036e404cb5cfb71f4000cdb03c9366292430787261be69060200160405180910390a150565b61049861062b565b600280546040805160c0810182527f000000000000000000000000000000000000000000000000000000000000000081527f0000000000000000000000000000000000000000000000000000000000000000602080830191909152600382840152620186a06060830152608082019490945281519384019091526000835273ffffffffffffffffffffffffffffffffffffffff90911691639b1c385e919060a0820190610544906106ae565b8152506040518263ffffffff1660e01b81526004016105639190610994565b6020604051808303816000875af1158015610582573d6000803e3d6000fd5b505050506040513d601f19601f820116820180604052508101906105a69190610a4e565b600455565b6105b361062b565b6105bc8161076a565b50565b600381815481106105cf57600080fd5b600091825260209091200154905081565b6105ec6003838361085f565b507fefb16d61046900da527008568620fb9f8420e2f5ed4de3bfbded5035c9362b0e828260405161061e929190610a67565b60405180910390a1505050565b60005473ffffffffffffffffffffffffffffffffffffffff1633146106ac576040517f08c379a000000000000000000000000000000000000000000000000000000000815260206004820152601660248201527f4f6e6c792063616c6c61626c65206279206f776e65720000000000000000000060448201526064016101f0565b565b60607f92fd13387c7fe7befbc38d303d6468778fb9731bc4583f17d92989c6fcfdeaaa826040516024016106e791511515815260200190565b604080517fffffffffffffffffffffffffffffffffffffffffffffffffffffffffffffffe08184030181529190526020810180517bffffffffffffffffffffffffffffffffffffffffffffffffffffffff167fffffffff000000000000000000000000000000000000000000000000000000009093169290921790915292915050565b3373ffffffffffffffffffffffffffffffffffffffff8216036107e9576040517f08c379a000000000000000000000000000000000000000000000000000000000815260206004820152601760248201527f43616e6e6f74207472616e7366657220746f2073656c6600000000000000000060448201526064016101f0565b600180547fffffffffffffffffffffffff00000000000000000000000000000000000000001673ffffffffffffffffffffffffffffffffffffffff83811691821790925560008054604051929316917fed8889f560326eb138920d842192f0eb3dd22b4f139c87a2c57538e05bae12789190a350565b82805482825590600052602060002090810192821561089a579160200282015b8281111561089a57823582559160200191906001019061087f565b506108a69291506108aa565b5090565b5b808211156108a657600081556001016108ab565b6000806000604084860312156108d457600080fd5b83359250602084013567ffffffffffffffff808211156108f357600080fd5b818601915086601f83011261090757600080fd5b81358181111561091657600080fd5b8760208260051b850101111561092b57600080fd5b6020830194508093505050509250925092565b60006020828403121561095057600080fd5b813573ffffffffffffffffffffffffffffffffffffffff8116811461097457600080fd5b9392505050565b60006020828403121561098d57600080fd5b5035919050565b6000602080835283518184015280840151604084015261ffff6040850151166060840152606084015163ffffffff80821660808601528060808701511660a0860152505060a084015160c08085015280518060e086015260005b81811015610a0b57828101840151868201610100015283016109ee565b5061010092506000838287010152827fffffffffffffffffffffffffffffffffffffffffffffffffffffffffffffffe0601f830116860101935050505092915050565b600060208284031215610a6057600080fd5b5051919050565b6020815281602082015260007f07ffffffffffffffffffffffffffffffffffffffffffffffffffffffffffffff831115610aa057600080fd5b8260051b8085604085013791909101604001939250505056fea164736f6c6343000813000a",
  "linkReferences": {},
  "deployedLinkReferences": {}
}