{
  "_format": "hh-sol-artifact-1",
  "contractName": "OVM_GasPriceOracle",
  "sourceName": "@chainlink/contracts/src/v0.8/vendor/@eth-optimism/contracts/v0.8.9/contracts/L2/predeploys/OVM_GasPriceOracle.sol",
  "abi": [
    {
      "inputs": [
        {
          "internalType": "address",
          "name": "_owner",
          "type": "address"
        }
      ],
      "stateMutability": "nonpayable",
      "type": "constructor"
    },
    {
      "anonymous": false,
      "inputs": [
        {
          "indexed": false,
          "internalType": "uint256",
          "name": "",
          "type": "uint256"
        }
      ],
      "name": "DecimalsUpdated",
      "type": "event"
    },
    {
      "anonymous": false,
      "inputs": [
        {
          "indexed": false,
          "internalType": "uint256",
          "name": "",
          "type": "uint256"
        }
      ],
      "name": "GasPriceUpdated",
      "type": "event"
    },
    {
      "anonymous": false,
      "inputs": [
        {
          "indexed": false,
          "internalType": "uint256",
          "name": "",
          "type": "uint256"
        }
      ],
      "name": "L1BaseFeeUpdated",
      "type": "event"
    },
    {
      "anonymous": false,
      "inputs": [
        {
          "indexed": false,
          "internalType": "uint256",
          "name": "",
          "type": "uint256"
        }
      ],
      "name": "OverheadUpdated",
      "type": "event"
    },
    {
      "anonymous": false,
      "inputs": [
        {
          "indexed": true,
          "internalType": "address",
          "name": "previousOwner",
          "type": "address"
        },
        {
          "indexed": true,
          "internalType": "address",
          "name": "newOwner",
          "type": "address"
        }
      ],
      "name": "OwnershipTransferred",
      "type": "event"
    },
    {
      "anonymous": false,
      "inputs": [
        {
          "indexed": false,
          "internalType": "uint256",
          "name": "",
          "type": "uint256"
        }
      ],
      "name": "ScalarUpdated",
      "type": "event"
    },
    {
      "inputs": [],
      "name": "decimals",
      "outputs": [
        {
          "internalType": "uint256",
          "name": "",
          "type": "uint256"
        }
      ],
      "stateMutability": "view",
      "type": "function"
    },
    {
      "inputs": [],
      "name": "gasPrice",
      "outputs": [
        {
          "internalType": "uint256",
          "name": "",
          "type": "uint256"
        }
      ],
      "stateMutability": "view",
      "type": "function"
    },
    {
      "inputs": [
        {
          "internalType": "bytes",
          "name": "_data",
          "type": "bytes"
        }
      ],
      "name": "getL1Fee",
      "outputs": [
        {
          "internalType": "uint256",
          "name": "",
          "type": "uint256"
        }
      ],
      "stateMutability": "view",
      "type": "function"
    },
    {
      "inputs": [
        {
          "internalType": "bytes",
          "name": "_data",
          "type": "bytes"
        }
      ],
      "name": "getL1GasUsed",
      "outputs": [
        {
          "internalType": "uint256",
          "name": "",
          "type": "uint256"
        }
      ],
      "stateMutability": "view",
      "type": "function"
    },
    {
      "inputs": [],
      "name": "l1BaseFee",
      "outputs": [
        {
          "internalType": "uint256",
          "name": "",
          "type": "uint256"
        }
      ],
      "stateMutability": "view",
      "type": "function"
    },
    {
      "inputs": [],
      "name": "overhead",
      "outputs": [
        {
          "internalType": "uint256",
          "name": "",
          "type": "uint256"
        }
      ],
      "stateMutability": "view",
      "type": "function"
    },
    {
      "inputs": [],
      "name": "owner",
      "outputs": [
        {
          "internalType": "address",
          "name": "",
          "type": "address"
        }
      ],
      "stateMutability": "view",
      "type": "function"
    },
    {
      "inputs": [],
      "name": "renounceOwnership",
      "outputs": [],
      "stateMutability": "nonpayable",
      "type": "function"
    },
    {
      "inputs": [],
      "name": "scalar",
      "outputs": [
        {
          "internalType": "uint256",
          "name": "",
          "type": "uint256"
        }
      ],
      "stateMutability": "view",
      "type": "function"
    },
    {
      "inputs": [
        {
          "internalType": "uint256",
          "name": "_decimals",
          "type": "uint256"
        }
      ],
      "name": "setDecimals",
      "outputs": [],
      "stateMutability": "nonpayable",
      "type": "function"
    },
    {
      "inputs": [
        {
          "internalType": "uint256",
          "name": "_gasPrice",
          "type": "uint256"
        }
      ],
      "name": "setGasPrice",
      "outputs": [],
      "stateMutability": "nonpayable",
      "type": "function"
    },
    {
      "inputs": [
        {
          "internalType": "uint256",
          "name": "_baseFee",
          "type": "uint256"
        }
      ],
      "name": "setL1BaseFee",
      "outputs": [],
      "stateMutability": "nonpayable",
      "type": "function"
    },
    {
      "inputs": [
        {
          "internalType": "uint256",
          "name": "_overhead",
          "type": "uint256"
        }
      ],
      "name": "setOverhead",
      "outputs": [],
      "stateMutability": "nonpayable",
      "type": "function"
    },
    {
      "inputs": [
        {
          "internalType": "uint256",
          "name": "_scalar",
          "type": "uint256"
        }
      ],
      "name": "setScalar",
      "outputs": [],
      "stateMutability": "nonpayable",
      "type": "function"
    },
    {
      "inputs": [
        {
          "internalType": "address",
          "name": "newOwner",
          "type": "address"
        }
      ],
      "name": "transferOwnership",
      "outputs": [],
      "stateMutability": "nonpayable",
      "type": "function"
    }
  ],
  "bytecode": "0x608060405234801561001057600080fd5b50604051610b43380380610b4383398101604081905261002f91610171565b61003833610047565b61004181610097565b506101a1565b600080546001600160a01b038381166001600160a01b0319831681178455604051919092169283917f8be0079c531659141344cd1fd0a4f28419497f9722a3daafe3b4186f6b6457e09190a35050565b61009f610115565b6001600160a01b0381166101095760405162461bcd60e51b815260206004820152602660248201527f4f776e61626c653a206e6577206f776e657220697320746865207a65726f206160448201526564647265737360d01b60648201526084015b60405180910390fd5b61011281610047565b50565b6000546001600160a01b0316331461016f5760405162461bcd60e51b815260206004820181905260248201527f4f776e61626c653a2063616c6c6572206973206e6f7420746865206f776e65726044820152606401610100565b565b60006020828403121561018357600080fd5b81516001600160a01b038116811461019a57600080fd5b9392505050565b610993806101b06000396000f3fe608060405234801561001057600080fd5b50600436106100f55760003560e01c80638c8885c811610097578063de26c4a111610066578063de26c4a1146101cc578063f2fde38b146101df578063f45e65d8146101f2578063fe173b97146101fb57600080fd5b80638c8885c81461016b5780638da5cb5b1461017e578063bede39b5146101a6578063bf1fe420146101b957600080fd5b806349948e0e116100d357806349948e0e14610134578063519b4bd3146101475780637046559714610150578063715018a61461016357600080fd5b80630c18c162146100fa578063313ce567146101165780633577afc51461011f575b600080fd5b61010360035481565b6040519081526020015b60405180910390f35b61010360055481565b61013261012d366004610605565b610204565b005b61010361014236600461064d565b610248565b61010360025481565b61013261015e366004610605565b6102a4565b6101326102e1565b610132610179366004610605565b6102f5565b60005460405173ffffffffffffffffffffffffffffffffffffffff909116815260200161010d565b6101326101b4366004610605565b610332565b6101326101c7366004610605565b61036f565b6101036101da36600461064d565b6103ac565b6101326101ed36600461071c565b610453565b61010360045481565b61010360015481565b61020c61050f565b60038190556040518181527f32740b35c0ea213650f60d44366b4fb211c9033b50714e4a1d34e65d5beb9bb4906020015b60405180910390a150565b600080610254836103ac565b90506000600254826102669190610788565b90506000600554600a61027991906108c5565b905060006004548361028b9190610788565b9050600061029983836108d1565b979650505050505050565b6102ac61050f565b60048190556040518181527f3336cd9708eaf2769a0f0dc0679f30e80f15dcd88d1921b5a16858e8b85c591a9060200161023d565b6102e961050f565b6102f36000610590565b565b6102fd61050f565b60058190556040518181527fd68112a8707e326d08be3656b528c1bcc5bbbfc47f4177e2179b14d8640838c19060200161023d565b61033a61050f565b60028190556040518181527f351fb23757bb5ea0546c85b7996ddd7155f96b939ebaa5ff7bc49c75f27f2c449060200161023d565b61037761050f565b60018190556040518181527ffcdccc6074c6c42e4bd578aa9870c697dc976a270968452d2b8c8dc369fae3969060200161023d565b600080805b835181101561042c578381815181106103cc576103cc61090c565b01602001517fff000000000000000000000000000000000000000000000000000000000000001660000361040c5761040560048361093b565b915061041a565b61041760108361093b565b91505b806104248161094e565b9150506103b1565b5060006003548261043d919061093b565b905061044b8161044061093b565b949350505050565b61045b61050f565b73ffffffffffffffffffffffffffffffffffffffff8116610503576040517f08c379a000000000000000000000000000000000000000000000000000000000815260206004820152602660248201527f4f776e61626c653a206e6577206f776e657220697320746865207a65726f206160448201527f646472657373000000000000000000000000000000000000000000000000000060648201526084015b60405180910390fd5b61050c81610590565b50565b60005473ffffffffffffffffffffffffffffffffffffffff1633146102f3576040517f08c379a000000000000000000000000000000000000000000000000000000000815260206004820181905260248201527f4f776e61626c653a2063616c6c6572206973206e6f7420746865206f776e657260448201526064016104fa565b6000805473ffffffffffffffffffffffffffffffffffffffff8381167fffffffffffffffffffffffff0000000000000000000000000000000000000000831681178455604051919092169283917f8be0079c531659141344cd1fd0a4f28419497f9722a3daafe3b4186f6b6457e09190a35050565b60006020828403121561061757600080fd5b5035919050565b7f4e487b7100000000000000000000000000000000000000000000000000000000600052604160045260246000fd5b60006020828403121561065f57600080fd5b813567ffffffffffffffff8082111561067757600080fd5b818401915084601f83011261068b57600080fd5b81358181111561069d5761069d61061e565b604051601f82017fffffffffffffffffffffffffffffffffffffffffffffffffffffffffffffffe0908116603f011681019083821181831017156106e3576106e361061e565b816040528281528760208487010111156106fc57600080fd5b826020860160208301376000928101602001929092525095945050505050565b60006020828403121561072e57600080fd5b813573ffffffffffffffffffffffffffffffffffffffff8116811461075257600080fd5b9392505050565b7f4e487b7100000000000000000000000000000000000000000000000000000000600052601160045260246000fd5b808202811582820484141761079f5761079f610759565b92915050565b600181815b808511156107fe57817fffffffffffffffffffffffffffffffffffffffffffffffffffffffffffffffff048211156107e4576107e4610759565b808516156107f157918102915b93841c93908002906107aa565b509250929050565b6000826108155750600161079f565b816108225750600061079f565b816001811461083857600281146108425761085e565b600191505061079f565b60ff84111561085357610853610759565b50506001821b61079f565b5060208310610133831016604e8410600b8410161715610881575081810a61079f565b61088b83836107a5565b807fffffffffffffffffffffffffffffffffffffffffffffffffffffffffffffffff048211156108bd576108bd610759565b029392505050565b60006107528383610806565b600082610907577f4e487b7100000000000000000000000000000000000000000000000000000000600052601260045260246000fd5b500490565b7f4e487b7100000000000000000000000000000000000000000000000000000000600052603260045260246000fd5b8082018082111561079f5761079f610759565b60007fffffffffffffffffffffffffffffffffffffffffffffffffffffffffffffffff820361097f5761097f610759565b506001019056fea164736f6c6343000813000a",
  "linkReferences": {},
  "deployedLinkReferences": {}
}