{
  "_format": "hh-sol-artifact-1",
  "contractName": "VRFV2PlusWrapper",
  "sourceName": "@chainlink/contracts/src/v0.8/vrf/dev/VRFV2PlusWrapper.sol",
  "abi": [
    {
      "inputs": [
        {
          "internalType": "address",
          "name": "_link",
          "type": "address"
        },
        {
          "internalType": "address",
          "name": "_linkNativeFeed",
          "type": "address"
        },
        {
          "internalType": "address",
          "name": "_coordinator",
          "type": "address"
        },
        {
          "internalType": "uint256",
          "name": "_subId",
          "type": "uint256"
        }
      ],
      "stateMutability": "nonpayable",
      "type": "constructor"
    },
    {
      "inputs": [],
      "name": "FailedToTransferLink",
      "type": "error"
    },
    {
      "inputs": [
        {
          "internalType": "uint16",
          "name": "expectedMinimumLength",
          "type": "uint16"
        },
        {
          "internalType": "uint16",
          "name": "actualLength",
          "type": "uint16"
        }
      ],
      "name": "IncorrectExtraArgsLength",
      "type": "error"
    },
    {
      "inputs": [
        {
          "internalType": "uint8",
          "name": "premiumPercentage",
          "type": "uint8"
        },
        {
          "internalType": "uint8",
          "name": "max",
          "type": "uint8"
        }
      ],
      "name": "InvalidPremiumPercentage",
      "type": "error"
    },
    {
      "inputs": [],
      "name": "LINKPaymentInRequestRandomWordsInNative",
      "type": "error"
    },
    {
      "inputs": [],
      "name": "LinkAlreadySet",
      "type": "error"
    },
    {
      "inputs": [
        {
          "internalType": "uint32",
          "name": "flatFeeLinkDiscountPPM",
          "type": "uint32"
        },
        {
          "internalType": "uint32",
          "name": "flatFeeNativePPM",
          "type": "uint32"
        }
      ],
      "name": "LinkDiscountTooHigh",
      "type": "error"
    },
    {
      "inputs": [],
      "name": "NativePaymentInOnTokenTransfer",
      "type": "error"
    },
    {
      "inputs": [
        {
          "internalType": "address",
          "name": "have",
          "type": "address"
        },
        {
          "internalType": "address",
          "name": "want",
          "type": "address"
        }
      ],
      "name": "OnlyCoordinatorCanFulfill",
      "type": "error"
    },
    {
      "inputs": [
        {
          "internalType": "address",
          "name": "have",
          "type": "address"
        },
        {
          "internalType": "address",
          "name": "owner",
          "type": "address"
        },
        {
          "internalType": "address",
          "name": "coordinator",
          "type": "address"
        }
      ],
      "name": "OnlyOwnerOrCoordinator",
      "type": "error"
    },
    {
      "inputs": [],
      "name": "SubscriptionIdMissing",
      "type": "error"
    },
    {
      "inputs": [],
      "name": "ZeroAddress",
      "type": "error"
    },
    {
      "anonymous": false,
      "inputs": [
        {
          "indexed": false,
          "internalType": "uint32",
          "name": "wrapperGasOverhead",
          "type": "uint32"
        },
        {
          "indexed": false,
          "internalType": "uint32",
          "name": "coordinatorGasOverheadNative",
          "type": "uint32"
        },
        {
          "indexed": false,
          "internalType": "uint32",
          "name": "coordinatorGasOverheadLink",
          "type": "uint32"
        },
        {
          "indexed": false,
          "internalType": "uint16",
          "name": "coordinatorGasOverheadPerWord",
          "type": "uint16"
        },
        {
          "indexed": false,
          "internalType": "uint8",
          "name": "coordinatorNativePremiumPercentage",
          "type": "uint8"
        },
        {
          "indexed": false,
          "internalType": "uint8",
          "name": "coordinatorLinkPremiumPercentage",
          "type": "uint8"
        },
        {
          "indexed": false,
          "internalType": "bytes32",
          "name": "keyHash",
          "type": "bytes32"
        },
        {
          "indexed": false,
          "internalType": "uint8",
          "name": "maxNumWords",
          "type": "uint8"
        },
        {
          "indexed": false,
          "internalType": "uint32",
          "name": "stalenessSeconds",
          "type": "uint32"
        },
        {
          "indexed": false,
          "internalType": "int256",
          "name": "fallbackWeiPerUnitLink",
          "type": "int256"
        },
        {
          "indexed": false,
          "internalType": "uint32",
          "name": "fulfillmentFlatFeeNativePPM",
          "type": "uint32"
        },
        {
          "indexed": false,
          "internalType": "uint32",
          "name": "fulfillmentFlatFeeLinkDiscountPPM",
          "type": "uint32"
        }
      ],
      "name": "ConfigSet",
      "type": "event"
    },
    {
      "anonymous": false,
      "inputs": [
        {
          "indexed": false,
          "internalType": "address",
          "name": "vrfCoordinator",
          "type": "address"
        }
      ],
      "name": "CoordinatorSet",
      "type": "event"
    },
    {
      "anonymous": false,
      "inputs": [],
      "name": "Disabled",
      "type": "event"
    },
    {
      "anonymous": false,
      "inputs": [],
      "name": "Enabled",
      "type": "event"
    },
    {
      "anonymous": false,
      "inputs": [
        {
          "indexed": false,
          "internalType": "uint256",
          "name": "requestId",
          "type": "uint256"
        },
        {
          "indexed": false,
          "internalType": "int256",
          "name": "fallbackWeiPerUnitLink",
          "type": "int256"
        }
      ],
      "name": "FallbackWeiPerUnitLinkUsed",
      "type": "event"
    },
    {
      "anonymous": false,
      "inputs": [
        {
          "indexed": false,
          "internalType": "uint32",
          "name": "size",
          "type": "uint32"
        }
      ],
      "name": "FulfillmentTxSizeSet",
      "type": "event"
    },
    {
      "anonymous": false,
      "inputs": [
        {
          "indexed": true,
          "internalType": "address",
          "name": "to",
          "type": "address"
        },
        {
          "indexed": false,
          "internalType": "uint256",
          "name": "amount",
          "type": "uint256"
        }
      ],
      "name": "NativeWithdrawn",
      "type": "event"
    },
    {
      "anonymous": false,
      "inputs": [
        {
          "indexed": true,
          "internalType": "address",
          "name": "from",
          "type": "address"
        },
        {
          "indexed": true,
          "internalType": "address",
          "name": "to",
          "type": "address"
        }
      ],
      "name": "OwnershipTransferRequested",
      "type": "event"
    },
    {
      "anonymous": false,
      "inputs": [
        {
          "indexed": true,
          "internalType": "address",
          "name": "from",
          "type": "address"
        },
        {
          "indexed": true,
          "internalType": "address",
          "name": "to",
          "type": "address"
        }
      ],
      "name": "OwnershipTransferred",
      "type": "event"
    },
    {
      "anonymous": false,
      "inputs": [
        {
          "indexed": true,
          "internalType": "address",
          "name": "to",
          "type": "address"
        },
        {
          "indexed": false,
          "internalType": "uint256",
          "name": "amount",
          "type": "uint256"
        }
      ],
      "name": "Withdrawn",
      "type": "event"
    },
    {
      "anonymous": false,
      "inputs": [
        {
          "indexed": true,
          "internalType": "uint256",
          "name": "requestId",
          "type": "uint256"
        },
        {
          "indexed": true,
          "internalType": "address",
          "name": "consumer",
          "type": "address"
        }
      ],
      "name": "WrapperFulfillmentFailed",
      "type": "event"
    },
    {
      "inputs": [],
      "name": "SUBSCRIPTION_ID",
      "outputs": [
        {
          "internalType": "uint256",
          "name": "",
          "type": "uint256"
        }
      ],
      "stateMutability": "view",
      "type": "function"
    },
    {
      "inputs": [],
      "name": "acceptOwnership",
      "outputs": [],
      "stateMutability": "nonpayable",
      "type": "function"
    },
    {
      "inputs": [
        {
          "internalType": "uint32",
          "name": "_callbackGasLimit",
          "type": "uint32"
        },
        {
          "internalType": "uint32",
          "name": "_numWords",
          "type": "uint32"
        }
      ],
      "name": "calculateRequestPrice",
      "outputs": [
        {
          "internalType": "uint256",
          "name": "",
          "type": "uint256"
        }
      ],
      "stateMutability": "view",
      "type": "function"
    },
    {
      "inputs": [
        {
          "internalType": "uint32",
          "name": "_callbackGasLimit",
          "type": "uint32"
        },
        {
          "internalType": "uint32",
          "name": "_numWords",
          "type": "uint32"
        }
      ],
      "name": "calculateRequestPriceNative",
      "outputs": [
        {
          "internalType": "uint256",
          "name": "",
          "type": "uint256"
        }
      ],
      "stateMutability": "view",
      "type": "function"
    },
    {
      "inputs": [
        {
          "internalType": "bytes",
          "name": "extraArgs",
          "type": "bytes"
        },
        {
          "internalType": "bool",
          "name": "isLinkMode",
          "type": "bool"
        }
      ],
      "name": "checkPaymentMode",
      "outputs": [],
      "stateMutability": "pure",
      "type": "function"
    },
    {
      "inputs": [],
      "name": "disable",
      "outputs": [],
      "stateMutability": "nonpayable",
      "type": "function"
    },
    {
      "inputs": [],
      "name": "enable",
      "outputs": [],
      "stateMutability": "nonpayable",
      "type": "function"
    },
    {
      "inputs": [
        {
          "internalType": "uint32",
          "name": "_callbackGasLimit",
          "type": "uint32"
        },
        {
          "internalType": "uint32",
          "name": "_numWords",
          "type": "uint32"
        },
        {
          "internalType": "uint256",
          "name": "_requestGasPriceWei",
          "type": "uint256"
        }
      ],
      "name": "estimateRequestPrice",
      "outputs": [
        {
          "internalType": "uint256",
          "name": "",
          "type": "uint256"
        }
      ],
      "stateMutability": "view",
      "type": "function"
    },
    {
      "inputs": [
        {
          "internalType": "uint32",
          "name": "_callbackGasLimit",
          "type": "uint32"
        },
        {
          "internalType": "uint32",
          "name": "_numWords",
          "type": "uint32"
        },
        {
          "internalType": "uint256",
          "name": "_requestGasPriceWei",
          "type": "uint256"
        }
      ],
      "name": "estimateRequestPriceNative",
      "outputs": [
        {
          "internalType": "uint256",
          "name": "",
          "type": "uint256"
        }
      ],
      "stateMutability": "view",
      "type": "function"
    },
    {
      "inputs": [],
      "name": "getConfig",
      "outputs": [
        {
          "internalType": "int256",
          "name": "fallbackWeiPerUnitLink",
          "type": "int256"
        },
        {
          "internalType": "uint32",
          "name": "stalenessSeconds",
          "type": "uint32"
        },
        {
          "internalType": "uint32",
          "name": "fulfillmentFlatFeeNativePPM",
          "type": "uint32"
        },
        {
          "internalType": "uint32",
          "name": "fulfillmentFlatFeeLinkDiscountPPM",
          "type": "uint32"
        },
        {
          "internalType": "uint32",
          "name": "wrapperGasOverhead",
          "type": "uint32"
        },
        {
          "internalType": "uint32",
          "name": "coordinatorGasOverheadNative",
          "type": "uint32"
        },
        {
          "internalType": "uint32",
          "name": "coordinatorGasOverheadLink",
          "type": "uint32"
        },
        {
          "internalType": "uint16",
          "name": "coordinatorGasOverheadPerWord",
          "type": "uint16"
        },
        {
          "internalType": "uint8",
          "name": "wrapperNativePremiumPercentage",
          "type": "uint8"
        },
        {
          "internalType": "uint8",
          "name": "wrapperLinkPremiumPercentage",
          "type": "uint8"
        },
        {
          "internalType": "bytes32",
          "name": "keyHash",
          "type": "bytes32"
        },
        {
          "internalType": "uint8",
          "name": "maxNumWords",
          "type": "uint8"
        }
      ],
      "stateMutability": "view",
      "type": "function"
    },
    {
      "inputs": [],
      "name": "lastRequestId",
      "outputs": [
        {
          "internalType": "uint256",
          "name": "",
          "type": "uint256"
        }
      ],
      "stateMutability": "view",
      "type": "function"
    },
    {
      "inputs": [],
      "name": "link",
      "outputs": [
        {
          "internalType": "address",
          "name": "",
          "type": "address"
        }
      ],
      "stateMutability": "view",
      "type": "function"
    },
    {
      "inputs": [],
      "name": "linkNativeFeed",
      "outputs": [
        {
          "internalType": "address",
          "name": "",
          "type": "address"
        }
      ],
      "stateMutability": "view",
      "type": "function"
    },
    {
      "inputs": [
        {
          "internalType": "address",
          "name": "_sender",
          "type": "address"
        },
        {
          "internalType": "uint256",
          "name": "_amount",
          "type": "uint256"
        },
        {
          "internalType": "bytes",
          "name": "_data",
          "type": "bytes"
        }
      ],
      "name": "onTokenTransfer",
      "outputs": [],
      "stateMutability": "nonpayable",
      "type": "function"
    },
    {
      "inputs": [],
      "name": "owner",
      "outputs": [
        {
          "internalType": "address",
          "name": "",
          "type": "address"
        }
      ],
      "stateMutability": "view",
      "type": "function"
    },
    {
      "inputs": [
        {
          "internalType": "uint256",
          "name": "requestId",
          "type": "uint256"
        },
        {
          "internalType": "uint256[]",
          "name": "randomWords",
          "type": "uint256[]"
        }
      ],
      "name": "rawFulfillRandomWords",
      "outputs": [],
      "stateMutability": "nonpayable",
      "type": "function"
    },
    {
      "inputs": [
        {
          "internalType": "uint32",
          "name": "_callbackGasLimit",
          "type": "uint32"
        },
        {
          "internalType": "uint16",
          "name": "_requestConfirmations",
          "type": "uint16"
        },
        {
          "internalType": "uint32",
          "name": "_numWords",
          "type": "uint32"
        },
        {
          "internalType": "bytes",
          "name": "extraArgs",
          "type": "bytes"
        }
      ],
      "name": "requestRandomWordsInNative",
      "outputs": [
        {
          "internalType": "uint256",
          "name": "requestId",
          "type": "uint256"
        }
      ],
      "stateMutability": "payable",
      "type": "function"
    },
    {
      "inputs": [
        {
          "internalType": "uint256",
          "name": "",
          "type": "uint256"
        }
      ],
      "name": "s_callbacks",
      "outputs": [
        {
          "internalType": "address",
          "name": "callbackAddress",
          "type": "address"
        },
        {
          "internalType": "uint32",
          "name": "callbackGasLimit",
          "type": "uint32"
        },
        {
          "internalType": "uint64",
          "name": "requestGasPrice",
          "type": "uint64"
        }
      ],
      "stateMutability": "view",
      "type": "function"
    },
    {
      "inputs": [],
      "name": "s_configured",
      "outputs": [
        {
          "internalType": "bool",
          "name": "",
          "type": "bool"
        }
      ],
      "stateMutability": "view",
      "type": "function"
    },
    {
      "inputs": [],
      "name": "s_disabled",
      "outputs": [
        {
          "internalType": "bool",
          "name": "",
          "type": "bool"
        }
      ],
      "stateMutability": "view",
      "type": "function"
    },
    {
      "inputs": [],
      "name": "s_fulfillmentTxSizeBytes",
      "outputs": [
        {
          "internalType": "uint32",
          "name": "",
          "type": "uint32"
        }
      ],
      "stateMutability": "view",
      "type": "function"
    },
    {
      "inputs": [],
      "name": "s_vrfCoordinator",
      "outputs": [
        {
          "internalType": "contract IVRFCoordinatorV2Plus",
          "name": "",
          "type": "address"
        }
      ],
      "stateMutability": "view",
      "type": "function"
    },
    {
      "inputs": [
        {
          "internalType": "uint32",
          "name": "_wrapperGasOverhead",
          "type": "uint32"
        },
        {
          "internalType": "uint32",
          "name": "_coordinatorGasOverheadNative",
          "type": "uint32"
        },
        {
          "internalType": "uint32",
          "name": "_coordinatorGasOverheadLink",
          "type": "uint32"
        },
        {
          "internalType": "uint16",
          "name": "_coordinatorGasOverheadPerWord",
          "type": "uint16"
        },
        {
          "internalType": "uint8",
          "name": "_coordinatorNativePremiumPercentage",
          "type": "uint8"
        },
        {
          "internalType": "uint8",
          "name": "_coordinatorLinkPremiumPercentage",
          "type": "uint8"
        },
        {
          "internalType": "bytes32",
          "name": "_keyHash",
          "type": "bytes32"
        },
        {
          "internalType": "uint8",
          "name": "_maxNumWords",
          "type": "uint8"
        },
        {
          "internalType": "uint32",
          "name": "_stalenessSeconds",
          "type": "uint32"
        },
        {
          "internalType": "int256",
          "name": "_fallbackWeiPerUnitLink",
          "type": "int256"
        },
        {
          "internalType": "uint32",
          "name": "_fulfillmentFlatFeeNativePPM",
          "type": "uint32"
        },
        {
          "internalType": "uint32",
          "name": "_fulfillmentFlatFeeLinkDiscountPPM",
          "type": "uint32"
        }
      ],
      "name": "setConfig",
      "outputs": [],
      "stateMutability": "nonpayable",
      "type": "function"
    },
    {
      "inputs": [
        {
          "internalType": "address",
          "name": "_vrfCoordinator",
          "type": "address"
        }
      ],
      "name": "setCoordinator",
      "outputs": [],
      "stateMutability": "nonpayable",
      "type": "function"
    },
    {
      "inputs": [
        {
          "internalType": "uint32",
          "name": "size",
          "type": "uint32"
        }
      ],
      "name": "setFulfillmentTxSize",
      "outputs": [],
      "stateMutability": "nonpayable",
      "type": "function"
    },
    {
      "inputs": [
        {
          "internalType": "address",
          "name": "to",
          "type": "address"
        }
      ],
      "name": "transferOwnership",
      "outputs": [],
      "stateMutability": "nonpayable",
      "type": "function"
    },
    {
      "inputs": [],
      "name": "typeAndVersion",
      "outputs": [
        {
          "internalType": "string",
          "name": "",
          "type": "string"
        }
      ],
      "stateMutability": "pure",
      "type": "function"
    },
    {
      "inputs": [
        {
          "internalType": "address",
          "name": "_recipient",
          "type": "address"
        }
      ],
      "name": "withdraw",
      "outputs": [],
      "stateMutability": "nonpayable",
      "type": "function"
    },
    {
      "inputs": [
        {
          "internalType": "address",
          "name": "_recipient",
          "type": "address"
        }
      ],
      "name": "withdrawNative",
      "outputs": [],
      "stateMutability": "nonpayable",
      "type": "function"
    }
  ],
  "bytecode": "0x60e06040526006805463ffffffff60401b191669024400000000000000001790553480156200002d57600080fd5b5060405162003e0938038062003e098339810160408190526200005091620002a1565b813380600081620000a85760405162461bcd60e51b815260206004820152601860248201527f43616e6e6f7420736574206f776e657220746f207a65726f000000000000000060448201526064015b60405180910390fd5b600080546001600160a01b0319166001600160a01b0384811691909117909155811615620000db57620000db81620001d9565b5050506001600160a01b038116620001065760405163d92e233d60e01b815260040160405180910390fd5b600280546001600160a01b0319166001600160a01b0392831617905584811660a052831660c0526000819003620001505760405163a81c0bef60e01b815260040160405180910390fd5b60025460405163dc311dd360e01b8152600481018390526001600160a01b039091169063dc311dd390602401600060405180830381865afa1580156200019a573d6000803e3d6000fd5b505050506040513d6000823e601f3d908101601f19168201604052620001c4919081019062000321565b505050608092909252506200044a9350505050565b336001600160a01b03821603620002335760405162461bcd60e51b815260206004820152601760248201527f43616e6e6f74207472616e7366657220746f2073656c6600000000000000000060448201526064016200009f565b600180546001600160a01b0319166001600160a01b0383811691821790925560008054604051929316917fed8889f560326eb138920d842192f0eb3dd22b4f139c87a2c57538e05bae12789190a350565b80516001600160a01b03811681146200029c57600080fd5b919050565b60008060008060808587031215620002b857600080fd5b620002c38562000284565b9350620002d36020860162000284565b9250620002e36040860162000284565b6060959095015193969295505050565b80516001600160601b03811681146200029c57600080fd5b634e487b7160e01b600052604160045260246000fd5b600080600080600060a086880312156200033a57600080fd5b6200034586620002f3565b9450602062000356818801620002f3565b60408801519095506001600160401b0380821682146200037557600080fd5b8195506200038660608a0162000284565b945060808901519150808211156200039d57600080fd5b818901915089601f830112620003b257600080fd5b815181811115620003c757620003c76200030b565b8060051b604051601f19603f83011681018181108582111715620003ef57620003ef6200030b565b60405291825284820192508381018501918c8311156200040e57600080fd5b938501935b828510156200043757620004278562000284565b8452938501939285019262000413565b8096505050505050509295509295909350565b60805160a05160c051613965620004a46000396000818161037e01526122840152600081816102ea015281816111f6015281816112c50152611c6f01526000818161020b015281816118c40152611e5c01526139656000f3fe6080604052600436106101c15760003560e01c806357a8070a116100f7578063a4c0ed3611610095578063cdd8d88511610064578063cdd8d88514610741578063e1cab7451461077f578063f2fde38b1461079f578063fc2a88c3146107bf57600080fd5b8063a4c0ed36146105b9578063a608a1e1146105d9578063bf17e5591461060c578063c3f909d41461062c57600080fd5b80638ea98117116100d15780638ea98117146105445780639cfc058e146105645780639eccacf614610577578063a3907d71146105a457600080fd5b806357a8070a146104c257806379ba5097146105045780638da5cb5b1461051957600080fd5b80631fe543e3116101645780632f2770db1161013e5780632f2770db146103a25780632f622e6b146103b757806348baa1c5146103d757806351cff8d9146104a257600080fd5b80631fe543e31461032f57806327e5c50a1461034f5780632808e6c81461036f57600080fd5b806313c34b7f116101a057806313c34b7f1461024f578063181f5a771461026f57806318b6f4c8146102bb5780631c4695f4146102db57600080fd5b806226501b146101c6578063030932bb146101f9578063045343aa1461022d575b600080fd5b3480156101d257600080fd5b506101e66101e1366004612e80565b6107d5565b6040519081526020015b60405180910390f35b34801561020557600080fd5b506101e67f000000000000000000000000000000000000000000000000000000000000000081565b34801561023957600080fd5b5061024d610248366004612edf565b61090f565b005b34801561025b57600080fd5b506101e661026a366004612fad565b610bcb565b34801561027b57600080fd5b50604080518082018252601681527f5652465632506c75735772617070657220312e302e3000000000000000000000602082015290516101f09190613044565b3480156102c757600080fd5b5061024d6102d636600461313f565b610cf2565b3480156102e757600080fd5b507f00000000000000000000000000000000000000000000000000000000000000005b60405173ffffffffffffffffffffffffffffffffffffffff90911681526020016101f0565b34801561033b57600080fd5b5061024d61034a366004613191565b610e71565b34801561035b57600080fd5b506101e661036a366004612fad565b610eef565b34801561037b57600080fd5b507f000000000000000000000000000000000000000000000000000000000000000061030a565b3480156103ae57600080fd5b5061024d611023565b3480156103c357600080fd5b5061024d6103d2366004613234565b611096565b3480156103e357600080fd5b506104616103f236600461324f565b60076020526000908152604090205473ffffffffffffffffffffffffffffffffffffffff81169074010000000000000000000000000000000000000000810463ffffffff16907801000000000000000000000000000000000000000000000000900467ffffffffffffffff1683565b6040805173ffffffffffffffffffffffffffffffffffffffff909416845263ffffffff909216602084015267ffffffffffffffff16908201526060016101f0565b3480156104ae57600080fd5b5061024d6104bd366004613234565b6111bd565b3480156104ce57600080fd5b506002546104f49074010000000000000000000000000000000000000000900460ff1681565b60405190151581526020016101f0565b34801561051057600080fd5b5061024d6113be565b34801561052557600080fd5b5060005473ffffffffffffffffffffffffffffffffffffffff1661030a565b34801561055057600080fd5b5061024d61055f366004613234565b6114bb565b6101e66105723660046132b1565b611646565b34801561058357600080fd5b5060025461030a9073ffffffffffffffffffffffffffffffffffffffff1681565b3480156105b057600080fd5b5061024d611af2565b3480156105c557600080fd5b5061024d6105d4366004613327565b611b4d565b3480156105e557600080fd5b506002546104f4907501000000000000000000000000000000000000000000900460ff1681565b34801561061857600080fd5b5061024d610627366004613381565b6120bb565b34801561063857600080fd5b506005546006546003546002546040516101f0949363ffffffff808216947601000000000000000000000000000000000000000000008084048316957a010000000000000000000000000000000000000000000000000000850484169564010000000086048516956c0100000000000000000000000081048616957001000000000000000000000000000000008204169461ffff740100000000000000000000000000000000000000008304169460ff7e0100000000000000000000000000000000000000000000000000000000000084048116957f0100000000000000000000000000000000000000000000000000000000000000909404811694929391909104169061339c565b34801561074d57600080fd5b5060065461076a9068010000000000000000900463ffffffff1681565b60405163ffffffff90911681526020016101f0565b34801561078b57600080fd5b506101e661079a366004612e80565b612134565b3480156107ab57600080fd5b5061024d6107ba366004613234565b612252565b3480156107cb57600080fd5b506101e660045481565b60025460009074010000000000000000000000000000000000000000900460ff16610861576040517f08c379a000000000000000000000000000000000000000000000000000000000815260206004820152601960248201527f77726170706572206973206e6f7420636f6e666967757265640000000000000060448201526064015b60405180910390fd5b6002547501000000000000000000000000000000000000000000900460ff16156108e7576040517f08c379a000000000000000000000000000000000000000000000000000000000815260206004820152601360248201527f777261707065722069732064697361626c6564000000000000000000000000006044820152606401610858565b60006108f1612266565b5090506109068563ffffffff168585846123bc565b95945050505050565b610917612523565b8163ffffffff168163ffffffff16111561096d576040517f2780dcb200000000000000000000000000000000000000000000000000000000815263ffffffff808316600483015283166024820152604401610858565b609b60ff891611156109b7576040517f3acc511a00000000000000000000000000000000000000000000000000000000815260ff89166004820152609b6024820152604401610858565b609b60ff88161115610a01576040517f3acc511a00000000000000000000000000000000000000000000000000000000815260ff88166004820152609b6024820152604401610858565b8b600660046101000a81548163ffffffff021916908363ffffffff1602179055508a6006600c6101000a81548163ffffffff021916908363ffffffff16021790555089600660106101000a81548163ffffffff021916908363ffffffff16021790555088600660146101000a81548161ffff021916908361ffff160217905550876006601e6101000a81548160ff021916908360ff160217905550866006601f6101000a81548160ff021916908360ff1602179055508560038190555084600260166101000a81548160ff021916908360ff1602179055506001600260146101000a81548160ff02191690831515021790555083600660006101000a81548163ffffffff021916908363ffffffff1602179055508260058190555081600660166101000a81548163ffffffff021916908363ffffffff160217905550806006601a6101000a81548163ffffffff021916908363ffffffff1602179055507f8aee1a8c131eaf1a5bd30594737b6926a7c5cb29281a97639f6ac93947c8995e8c8c8c8c8c8c8c8c8c8c8c6006601a9054906101000a900463ffffffff16604051610bb59c9b9a9998979695949392919061341d565b60405180910390a1505050505050505050505050565b60025460009074010000000000000000000000000000000000000000900460ff16610c52576040517f08c379a000000000000000000000000000000000000000000000000000000000815260206004820152601960248201527f77726170706572206973206e6f7420636f6e66696775726564000000000000006044820152606401610858565b6002547501000000000000000000000000000000000000000000900460ff1615610cd8576040517f08c379a000000000000000000000000000000000000000000000000000000000815260206004820152601360248201527f777261707065722069732064697361626c6564000000000000000000000000006044820152606401610858565b610ce98363ffffffff16833a6125a6565b90505b92915050565b8151600003610d365780610d32576040517f6b81746e00000000000000000000000000000000000000000000000000000000815260040160405180910390fd5b5050565b815160241115610d875781516040517f51200dce0000000000000000000000000000000000000000000000000000000081526108589160249160040161ffff92831681529116602082015260400190565b600082602381518110610d9c57610d9c61349a565b6020910101517fff00000000000000000000000000000000000000000000000000000000000000167f0100000000000000000000000000000000000000000000000000000000000000149050808015610df25750815b15610e29576040517f6048aa6800000000000000000000000000000000000000000000000000000000815260040160405180910390fd5b80158015610e35575081155b15610e6c576040517f6b81746e00000000000000000000000000000000000000000000000000000000815260040160405180910390fd5b505050565b60025473ffffffffffffffffffffffffffffffffffffffff163314610ee4576002546040517f1cf993f400000000000000000000000000000000000000000000000000000000815233600482015273ffffffffffffffffffffffffffffffffffffffff9091166024820152604401610858565b610e6c8383836126be565b60025460009074010000000000000000000000000000000000000000900460ff16610f76576040517f08c379a000000000000000000000000000000000000000000000000000000000815260206004820152601960248201527f77726170706572206973206e6f7420636f6e66696775726564000000000000006044820152606401610858565b6002547501000000000000000000000000000000000000000000900460ff1615610ffc576040517f08c379a000000000000000000000000000000000000000000000000000000000815260206004820152601360248201527f777261707065722069732064697361626c6564000000000000000000000000006044820152606401610858565b6000611006612266565b50905061101b8463ffffffff16843a846123bc565b949350505050565b61102b612523565b600280547fffffffffffffffffffff00ffffffffffffffffffffffffffffffffffffffffff1675010000000000000000000000000000000000000000001790556040517f75884cdadc4a89e8b545db800057f06ec7f5338a08183c7ba515f2bfdd9fe1e190600090a1565b61109e612523565b604051479060009073ffffffffffffffffffffffffffffffffffffffff84169083908381818185875af1925050503d80600081146110f8576040519150601f19603f3d011682016040523d82523d6000602084013e6110fd565b606091505b5050905080611168576040517f08c379a000000000000000000000000000000000000000000000000000000000815260206004820152601960248201527f6661696c656420746f207769746864726177206e6174697665000000000000006044820152606401610858565b8273ffffffffffffffffffffffffffffffffffffffff167fc303ca808382409472acbbf899c316cf439f409f6584aae22df86dfa3c9ed504836040516111b091815260200190565b60405180910390a2505050565b6111c5612523565b6040517f70a082310000000000000000000000000000000000000000000000000000000081523060048201526000907f000000000000000000000000000000000000000000000000000000000000000073ffffffffffffffffffffffffffffffffffffffff16906370a0823190602401602060405180830381865afa158015611252573d6000803e3d6000fd5b505050506040513d601f19601f8201168201806040525081019061127691906134c9565b6040517fa9059cbb00000000000000000000000000000000000000000000000000000000815273ffffffffffffffffffffffffffffffffffffffff8481166004830152602482018390529192507f00000000000000000000000000000000000000000000000000000000000000009091169063a9059cbb906044016020604051808303816000875af1158015611310573d6000803e3d6000fd5b505050506040513d601f19601f8201168201806040525081019061133491906134e2565b61136a576040517f7c07fc4c00000000000000000000000000000000000000000000000000000000815260040160405180910390fd5b8173ffffffffffffffffffffffffffffffffffffffff167f7084f5476618d8e60b11ef0d7d3f06914655adb8793e28ff7f018d4c76d505d5826040516113b291815260200190565b60405180910390a25050565b60015473ffffffffffffffffffffffffffffffffffffffff16331461143f576040517f08c379a000000000000000000000000000000000000000000000000000000000815260206004820152601660248201527f4d7573742062652070726f706f736564206f776e6572000000000000000000006044820152606401610858565b60008054337fffffffffffffffffffffffff00000000000000000000000000000000000000008083168217845560018054909116905560405173ffffffffffffffffffffffffffffffffffffffff90921692909183917f8be0079c531659141344cd1fd0a4f28419497f9722a3daafe3b4186f6b6457e091a350565b60005473ffffffffffffffffffffffffffffffffffffffff1633148015906114fb575060025473ffffffffffffffffffffffffffffffffffffffff163314155b1561157f573361152060005473ffffffffffffffffffffffffffffffffffffffff1690565b6002546040517f061db9c100000000000000000000000000000000000000000000000000000000815273ffffffffffffffffffffffffffffffffffffffff93841660048201529183166024830152919091166044820152606401610858565b73ffffffffffffffffffffffffffffffffffffffff81166115cc576040517fd92e233d00000000000000000000000000000000000000000000000000000000815260040160405180910390fd5b600280547fffffffffffffffffffffffff00000000000000000000000000000000000000001673ffffffffffffffffffffffffffffffffffffffff83169081179091556040519081527fd1a6a14209a385a964d036e404cb5cfb71f4000cdb03c9366292430787261be6906020015b60405180910390a150565b60025460009074010000000000000000000000000000000000000000900460ff166116cd576040517f08c379a000000000000000000000000000000000000000000000000000000000815260206004820152601960248201527f77726170706572206973206e6f7420636f6e66696775726564000000000000006044820152606401610858565b6002547501000000000000000000000000000000000000000000900460ff1615611753576040517f08c379a000000000000000000000000000000000000000000000000000000000815260206004820152601360248201527f777261707065722069732064697361626c6564000000000000000000000000006044820152606401610858565b61179283838080601f01602080910402602001604051908101604052809392919081815260200183838082843760009201829052509250610cf2915050565b600061179d876128a4565b905060006117b28863ffffffff16873a6125a6565b90508034101561181e576040517f08c379a000000000000000000000000000000000000000000000000000000000815260206004820152600b60248201527f66656520746f6f206c6f770000000000000000000000000000000000000000006044820152606401610858565b600254760100000000000000000000000000000000000000000000900460ff1663ffffffff871611156118ad576040517f08c379a000000000000000000000000000000000000000000000000000000000815260206004820152601160248201527f6e756d576f72647320746f6f20686967680000000000000000000000000000006044820152606401610858565b60006040518060c0016040528060035481526020017f000000000000000000000000000000000000000000000000000000000000000081526020018961ffff168152602001600660049054906101000a900463ffffffff16858c611911919061352e565b61191b919061352e565b63ffffffff1681526020018863ffffffff16815260200187878080601f01602080910402602001604051908101604052809392919081815260200183838082843760009201919091525050509152506002546040517f9b1c385e00000000000000000000000000000000000000000000000000000000815291925073ffffffffffffffffffffffffffffffffffffffff1690639b1c385e906119c1908490600401613552565b6020604051808303816000875af11580156119e0573d6000803e3d6000fd5b505050506040513d601f19601f82011682018060405250810190611a0491906134c9565b6040805160608101825233815263ffffffff808d16602080840191825267ffffffffffffffff3a81168587019081526000888152600790935295909120935184549251955190911678010000000000000000000000000000000000000000000000000277ffffffffffffffffffffffffffffffffffffffffffffffff9590931674010000000000000000000000000000000000000000027fffffffffffffffff00000000000000000000000000000000000000000000000090921673ffffffffffffffffffffffffffffffffffffffff91909116171792909216919091179055935050505095945050505050565b611afa612523565b600280547fffffffffffffffffffff00ffffffffffffffffffffffffffffffffffffffffff1690556040517fc0f961051f97b04c496472d11cb6170d844e4b2c9dfd3b602a4fa0139712d48490600090a1565b60025474010000000000000000000000000000000000000000900460ff16611bd1576040517f08c379a000000000000000000000000000000000000000000000000000000000815260206004820152601960248201527f77726170706572206973206e6f7420636f6e66696775726564000000000000006044820152606401610858565b6002547501000000000000000000000000000000000000000000900460ff1615611c57576040517f08c379a000000000000000000000000000000000000000000000000000000000815260206004820152601360248201527f777261707065722069732064697361626c6564000000000000000000000000006044820152606401610858565b3373ffffffffffffffffffffffffffffffffffffffff7f00000000000000000000000000000000000000000000000000000000000000001614611cf6576040517f08c379a000000000000000000000000000000000000000000000000000000000815260206004820152601760248201527f6f6e6c792063616c6c61626c652066726f6d204c494e4b0000000000000000006044820152606401610858565b6000808080611d07858701876135af565b9350935093509350611d1a816001610cf2565b6000611d25856128a4565b9050600080611d32612266565b915091506000611d4a8863ffffffff16873a866123bc565b9050808b1015611db6576040517f08c379a000000000000000000000000000000000000000000000000000000000815260206004820152600b60248201527f66656520746f6f206c6f770000000000000000000000000000000000000000006044820152606401610858565b600254760100000000000000000000000000000000000000000000900460ff1663ffffffff87161115611e45576040517f08c379a000000000000000000000000000000000000000000000000000000000815260206004820152601160248201527f6e756d576f72647320746f6f20686967680000000000000000000000000000006044820152606401610858565b60006040518060c0016040528060035481526020017f000000000000000000000000000000000000000000000000000000000000000081526020018961ffff168152602001600660049054906101000a900463ffffffff16878c611ea9919061352e565b611eb3919061352e565b63ffffffff908116825289166020820152604090810188905260025490517f9b1c385e00000000000000000000000000000000000000000000000000000000815291925060009173ffffffffffffffffffffffffffffffffffffffff90911690639b1c385e90611f27908590600401613552565b6020604051808303816000875af1158015611f46573d6000803e3d6000fd5b505050506040513d601f19601f82011682018060405250810190611f6a91906134c9565b905060405180606001604052808f73ffffffffffffffffffffffffffffffffffffffff1681526020018b63ffffffff1681526020013a67ffffffffffffffff168152506007600083815260200190815260200160002060008201518160000160006101000a81548173ffffffffffffffffffffffffffffffffffffffff021916908373ffffffffffffffffffffffffffffffffffffffff16021790555060208201518160000160146101000a81548163ffffffff021916908363ffffffff16021790555060408201518160000160186101000a81548167ffffffffffffffff021916908367ffffffffffffffff1602179055509050508060048190555083156120ab576005546040805183815260208101929092527f6ca648a381f22ead7e37773d934e64885dcf861fbfbb26c40354cbf0c4662d1a910160405180910390a15b5050505050505050505050505050565b6120c3612523565b600680547fffffffffffffffffffffffffffffffffffffffff00000000ffffffffffffffff166801000000000000000063ffffffff8416908102919091179091556040519081527f697b48b8b76cebb09a54ec4ff810e8a181c96f65395d51c744db09c115d1d5d09060200161163b565b60025460009074010000000000000000000000000000000000000000900460ff166121bb576040517f08c379a000000000000000000000000000000000000000000000000000000000815260206004820152601960248201527f77726170706572206973206e6f7420636f6e66696775726564000000000000006044820152606401610858565b6002547501000000000000000000000000000000000000000000900460ff1615612241576040517f08c379a000000000000000000000000000000000000000000000000000000000815260206004820152601360248201527f777261707065722069732064697361626c6564000000000000000000000000006044820152606401610858565b61101b8463ffffffff1684846125a6565b61225a612523565b612263816128bc565b50565b6000806000600660009054906101000a900463ffffffff16905060007f000000000000000000000000000000000000000000000000000000000000000073ffffffffffffffffffffffffffffffffffffffff1663feaf968c6040518163ffffffff1660e01b815260040160a060405180830381865afa1580156122ed573d6000803e3d6000fd5b505050506040513d601f19601f820116820180604052508101906123119190613638565b50919650909250505063ffffffff82161580159061233d57506123348142613688565b8263ffffffff16105b9250821561234b5760055493505b60008412156123b6576040517f08c379a000000000000000000000000000000000000000000000000000000000815260206004820152601660248201527f496e76616c6964204c494e4b20776569207072696365000000000000000000006044820152606401610858565b50509091565b60065460009081906123dc90640100000000900463ffffffff168561369b565b6006549091506000906124009068010000000000000000900463ffffffff166129b1565b61240b876000612a79565b61241b9063ffffffff16896136b2565b612425908761369b565b61242f91906136b2565b6006549091506000906124829063ffffffff7a01000000000000000000000000000000000000000000000000000082048116917601000000000000000000000000000000000000000000009004166136c5565b6124979063ffffffff1664e8d4a5100061369b565b6006546064906124cd907f0100000000000000000000000000000000000000000000000000000000000000900460ff16826136e2565b6124da9060ff168561369b565b6124e4919061372a565b6124ee91906136b2565b9050846124fb82856136b2565b61250d90670de0b6b3a764000061369b565b612517919061372a565b98975050505050505050565b60005473ffffffffffffffffffffffffffffffffffffffff1633146125a4576040517f08c379a000000000000000000000000000000000000000000000000000000000815260206004820152601660248201527f4f6e6c792063616c6c61626c65206279206f776e6572000000000000000000006044820152606401610858565b565b60065460009081906125c690640100000000900463ffffffff168461369b565b6006549091506000906125ea9068010000000000000000900463ffffffff166129b1565b6125f5866001612a79565b6126059063ffffffff16886136b2565b61260f908661369b565b61261991906136b2565b60065490915060009061265190760100000000000000000000000000000000000000000000900463ffffffff1664e8d4a5100061369b565b600654606490612686907e01000000000000000000000000000000000000000000000000000000000000900460ff16826136e2565b6126939060ff168561369b565b61269d919061372a565b6126a791906136b2565b90506126b381846136b2565b979650505050505050565b60008381526007602081815260408084208151606081018352815473ffffffffffffffffffffffffffffffffffffffff808216835274010000000000000000000000000000000000000000820463ffffffff1683870152780100000000000000000000000000000000000000000000000090910467ffffffffffffffff1693820193909352888652939092529290558051909181166127b9576040517f08c379a000000000000000000000000000000000000000000000000000000000815260206004820152601160248201527f72657175657374206e6f7420666f756e640000000000000000000000000000006044820152606401610858565b600080631fe543e360e01b8787876040516024016127d99392919061373e565b604051602081830303815290604052907bffffffffffffffffffffffffffffffffffffffffffffffffffffffff19166020820180517bffffffffffffffffffffffffffffffffffffffffffffffffffffffff83818316178352505050509050600061284f856020015163ffffffff168584612b24565b90508061289a5760405173ffffffffffffffffffffffffffffffffffffffff85169089907fc551b83c151f2d1c7eeb938ac59008e0409f1c1dc1e2f112449d4d79b458902290600090a35b5050505050505050565b60006128b1603f83613797565b610cec90600161352e565b3373ffffffffffffffffffffffffffffffffffffffff82160361293b576040517f08c379a000000000000000000000000000000000000000000000000000000000815260206004820152601760248201527f43616e6e6f74207472616e7366657220746f2073656c660000000000000000006044820152606401610858565b600180547fffffffffffffffffffffffff00000000000000000000000000000000000000001673ffffffffffffffffffffffffffffffffffffffff83811691821790925560008054604051929316917fed8889f560326eb138920d842192f0eb3dd22b4f139c87a2c57538e05bae12789190a350565b6000466129bd81612b70565b15612a52576000606c73ffffffffffffffffffffffffffffffffffffffff166341b247a86040518163ffffffff1660e01b815260040160c060405180830381865afa158015612a10573d6000803e3d6000fd5b505050506040513d601f19601f82011682018060405250810190612a3491906137ba565b5050505091505083608c612a4891906136b2565b61101b908261369b565b612a5b81612b93565b15612a7057612a6983612bcd565b9392505050565b50600092915050565b60008115612ad457600654612aaa9074010000000000000000000000000000000000000000900461ffff1684613804565b600654612acd91906c01000000000000000000000000900463ffffffff1661352e565b9050610cec565b600654612afd9074010000000000000000000000000000000000000000900461ffff1684613804565b600654612acd9190700100000000000000000000000000000000900463ffffffff1661352e565b60005a611388811015612b3657600080fd5b611388810390508460408204820311612b4e57600080fd5b50823b612b5a57600080fd5b60008083516020850160008789f1949350505050565b600061a4b1821480612b84575062066eed82145b80610cec57505062066eee1490565b6000600a821480612ba557506101a482145b80612bb2575062aa37dc82145b80612bbe575061210582145b80610cec57505062014a331490565b60008073420000000000000000000000000000000000000f73ffffffffffffffffffffffffffffffffffffffff1663519b4bd36040518163ffffffff1660e01b8152600401602060405180830381865afa158015612c2f573d6000803e3d6000fd5b505050506040513d601f19601f82011682018060405250810190612c5391906134c9565b9050600080612c628186613688565b90506000612c7182601061369b565b612c7c84600461369b565b612c8691906136b2565b9050600073420000000000000000000000000000000000000f73ffffffffffffffffffffffffffffffffffffffff16630c18c1626040518163ffffffff1660e01b8152600401602060405180830381865afa158015612ce9573d6000803e3d6000fd5b505050506040513d601f19601f82011682018060405250810190612d0d91906134c9565b9050600073420000000000000000000000000000000000000f73ffffffffffffffffffffffffffffffffffffffff1663f45e65d86040518163ffffffff1660e01b8152600401602060405180830381865afa158015612d70573d6000803e3d6000fd5b505050506040513d601f19601f82011682018060405250810190612d9491906134c9565b9050600073420000000000000000000000000000000000000f73ffffffffffffffffffffffffffffffffffffffff1663313ce5676040518163ffffffff1660e01b8152600401602060405180830381865afa158015612df7573d6000803e3d6000fd5b505050506040513d601f19601f82011682018060405250810190612e1b91906134c9565b90506000612e2a82600a61394c565b905060008184612e3a87896136b2565b612e44908c61369b565b612e4e919061369b565b612e58919061372a565b9b9a5050505050505050505050565b803563ffffffff81168114612e7b57600080fd5b919050565b600080600060608486031215612e9557600080fd5b612e9e84612e67565b9250612eac60208501612e67565b9150604084013590509250925092565b803561ffff81168114612e7b57600080fd5b803560ff81168114612e7b57600080fd5b6000806000806000806000806000806000806101808d8f031215612f0257600080fd5b612f0b8d612e67565b9b50612f1960208e01612e67565b9a50612f2760408e01612e67565b9950612f3560608e01612ebc565b9850612f4360808e01612ece565b9750612f5160a08e01612ece565b965060c08d01359550612f6660e08e01612ece565b9450612f756101008e01612e67565b93506101208d01359250612f8c6101408e01612e67565b9150612f9b6101608e01612e67565b90509295989b509295989b509295989b565b60008060408385031215612fc057600080fd5b612fc983612e67565b9150612fd760208401612e67565b90509250929050565b6000815180845260005b8181101561300657602081850181015186830182015201612fea565b5060006020828601015260207fffffffffffffffffffffffffffffffffffffffffffffffffffffffffffffffe0601f83011685010191505092915050565b602081526000610ce96020830184612fe0565b7f4e487b7100000000000000000000000000000000000000000000000000000000600052604160045260246000fd5b600082601f83011261309757600080fd5b813567ffffffffffffffff808211156130b2576130b2613057565b604051601f83017fffffffffffffffffffffffffffffffffffffffffffffffffffffffffffffffe0908116603f011681019082821181831017156130f8576130f8613057565b8160405283815286602085880101111561311157600080fd5b836020870160208301376000602085830101528094505050505092915050565b801515811461226357600080fd5b6000806040838503121561315257600080fd5b823567ffffffffffffffff81111561316957600080fd5b61317585828601613086565b925050602083013561318681613131565b809150509250929050565b6000806000604084860312156131a657600080fd5b83359250602084013567ffffffffffffffff808211156131c557600080fd5b818601915086601f8301126131d957600080fd5b8135818111156131e857600080fd5b8760208260051b85010111156131fd57600080fd5b6020830194508093505050509250925092565b803573ffffffffffffffffffffffffffffffffffffffff81168114612e7b57600080fd5b60006020828403121561324657600080fd5b610ce982613210565b60006020828403121561326157600080fd5b5035919050565b60008083601f84011261327a57600080fd5b50813567ffffffffffffffff81111561329257600080fd5b6020830191508360208285010111156132aa57600080fd5b9250929050565b6000806000806000608086880312156132c957600080fd5b6132d286612e67565b94506132e060208701612ebc565b93506132ee60408701612e67565b9250606086013567ffffffffffffffff81111561330a57600080fd5b61331688828901613268565b969995985093965092949392505050565b6000806000806060858703121561333d57600080fd5b61334685613210565b935060208501359250604085013567ffffffffffffffff81111561336957600080fd5b61337587828801613268565b95989497509550505050565b60006020828403121561339357600080fd5b610ce982612e67565b8c815263ffffffff8c811660208301528b811660408301528a81166060830152898116608083015288811660a0830152871660c082015261ffff861660e082015260ff858116610100830152841661012082015261018081018361014083015261340c61016083018460ff169052565b9d9c50505050505050505050505050565b63ffffffff8d811682528c811660208301528b8116604083015261ffff8b16606083015260ff8a8116608084015289811660a084015260c08301899052871660e0830152851661010082015261018081018461012083015261348861014083018563ffffffff169052565b63ffffffff831661016083015261340c565b7f4e487b7100000000000000000000000000000000000000000000000000000000600052603260045260246000fd5b6000602082840312156134db57600080fd5b5051919050565b6000602082840312156134f457600080fd5b8151612a6981613131565b7f4e487b7100000000000000000000000000000000000000000000000000000000600052601160045260246000fd5b63ffffffff81811683821601908082111561354b5761354b6134ff565b5092915050565b60208152815160208201526020820151604082015261ffff60408301511660608201526000606083015163ffffffff80821660808501528060808601511660a0850152505060a083015160c08084015261101b60e0840182612fe0565b600080600080608085870312156135c557600080fd5b6135ce85612e67565b93506135dc60208601612ebc565b92506135ea60408601612e67565b9150606085013567ffffffffffffffff81111561360657600080fd5b61361287828801613086565b91505092959194509250565b805169ffffffffffffffffffff81168114612e7b57600080fd5b600080600080600060a0868803121561365057600080fd5b6136598661361e565b945060208601519350604086015192506060860151915061367c6080870161361e565b90509295509295909350565b81810381811115610cec57610cec6134ff565b8082028115828204841417610cec57610cec6134ff565b80820180821115610cec57610cec6134ff565b63ffffffff82811682821603908082111561354b5761354b6134ff565b60ff8181168382160190811115610cec57610cec6134ff565b7f4e487b7100000000000000000000000000000000000000000000000000000000600052601260045260246000fd5b600082613739576137396136fb565b500490565b8381526040602082015281604082015260007f07ffffffffffffffffffffffffffffffffffffffffffffffffffffffffffffff83111561377d57600080fd5b8260051b8085606085013791909101606001949350505050565b600063ffffffff808416806137ae576137ae6136fb565b92169190910492915050565b60008060008060008060c087890312156137d357600080fd5b865195506020870151945060408701519350606087015192506080870151915060a087015190509295509295509295565b63ffffffff818116838216028082169190828114613824576138246134ff565b505092915050565b600181815b8085111561388557817fffffffffffffffffffffffffffffffffffffffffffffffffffffffffffffffff0482111561386b5761386b6134ff565b8085161561387857918102915b93841c9390800290613831565b509250929050565b60008261389c57506001610cec565b816138a957506000610cec565b81600181146138bf57600281146138c9576138e5565b6001915050610cec565b60ff8411156138da576138da6134ff565b50506001821b610cec565b5060208310610133831016604e8410600b8410161715613908575081810a610cec565b613912838361382c565b807fffffffffffffffffffffffffffffffffffffffffffffffffffffffffffffffff04821115613944576139446134ff565b029392505050565b6000610ce9838361388d56fea164736f6c6343000813000a",
  "linkReferences": {},
  "deployedLinkReferences": {}
}