{"@chainlink/contracts/src/v0.8/vrf/dev/VRFV2PlusWrapper.sol":{"VRFV2PlusWrapper":{"abi":[{"inputs":[{"internalType":"address","name":"_link","type":"address"},{"internalType":"address","name":"_linkNativeFeed","type":"address"},{"internalType":"address","name":"_coordinator","type":"address"},{"internalType":"uint256","name":"_subId","type":"uint256"}],"stateMutability":"nonpayable","type":"constructor"},{"inputs":[],"name":"FailedToTransferLink","type":"error"},{"inputs":[{"internalType":"uint16","name":"expectedMinimumLength","type":"uint16"},{"internalType":"uint16","name":"actualLength","type":"uint16"}],"name":"IncorrectExtraArgsLength","type":"error"},{"inputs":[{"internalType":"uint8","name":"premiumPercentage","type":"uint8"},{"internalType":"uint8","name":"max","type":"uint8"}],"name":"InvalidPremiumPercentage","type":"error"},{"inputs":[],"name":"LINKPaymentInRequestRandomWordsInNative","type":"error"},{"inputs":[],"name":"LinkAlreadySet","type":"error"},{"inputs":[{"internalType":"uint32","name":"flatFeeLinkDiscountPPM","type":"uint32"},{"internalType":"uint32","name":"flatFeeNativePPM","type":"uint32"}],"name":"LinkDiscountTooHigh","type":"error"},{"inputs":[],"name":"NativePaymentInOnTokenTransfer","type":"error"},{"inputs":[{"internalType":"address","name":"have","type":"address"},{"internalType":"address","name":"want","type":"address"}],"name":"OnlyCoordinatorCanFulfill","type":"error"},{"inputs":[{"internalType":"address","name":"have","type":"address"},{"internalType":"address","name":"owner","type":"address"},{"internalType":"address","name":"coordinator","type":"address"}],"name":"OnlyOwnerOrCoordinator","type":"error"},{"inputs":[],"name":"SubscriptionIdMissing","type":"error"},{"inputs":[],"name":"ZeroAddress","type":"error"},{"anonymous":false,"inputs":[{"indexed":false,"internalType":"uint32","name":"wrapperGasOverhead","type":"uint32"},{"indexed":false,"internalType":"uint32","name":"coordinatorGasOverheadNative","type":"uint32"},{"indexed":false,"internalType":"uint32","name":"coordinatorGasOverheadLink","type":"uint32"},{"indexed":false,"internalType":"uint16","name":"coordinatorGasOverheadPerWord","type":"uint16"},{"indexed":false,"internalType":"uint8","name":"coordinatorNativePremiumPercentage","type":"uint8"},{"indexed":false,"internalType":"uint8","name":"coordinatorLinkPremiumPercentage","type":"uint8"},{"indexed":false,"internalType":"bytes32","name":"keyHash","type":"bytes32"},{"indexed":false,"internalType":"uint8","name":"maxNumWords","type":"uint8"},{"indexed":false,"internalType":"uint32","name":"stalenessSeconds","type":"uint32"},{"indexed":false,"internalType":"int256","name":"fallbackWeiPerUnitLink","type":"int256"},{"indexed":false,"internalType":"uint32","name":"fulfillmentFlatFeeNativePPM","type":"uint32"},{"indexed":false,"internalType":"uint32","name":"fulfillmentFlatFeeLinkDiscountPPM","type":"uint32"}],"name":"ConfigSet","type":"event"},{"anonymous":false,"inputs":[{"indexed":false,"internalType":"address","name":"vrfCoordinator","type":"address"}],"name":"CoordinatorSet","type":"event"},{"anonymous":false,"inputs":[],"name":"Disabled","type":"event"},{"anonymous":false,"inputs":[],"name":"Enabled","type":"event"},{"anonymous":false,"inputs":[{"indexed":false,"internalType":"uint256","name":"requestId","type":"uint256"},{"indexed":false,"internalType":"int256","name":"fallbackWeiPerUnitLink","type":"int256"}],"name":"FallbackWeiPerUnitLinkUsed","type":"event"},{"anonymous":false,"inputs":[{"indexed":false,"internalType":"uint32","name":"size","type":"uint32"}],"name":"FulfillmentTxSizeSet","type":"event"},{"anonymous":false,"inputs":[{"indexed":true,"internalType":"address","name":"to","type":"address"},{"indexed":false,"internalType":"uint256","name":"amount","type":"uint256"}],"name":"NativeWithdrawn","type":"event"},{"anonymous":false,"inputs":[{"indexed":true,"internalType":"address","name":"from","type":"address"},{"indexed":true,"internalType":"address","name":"to","type":"address"}],"name":"OwnershipTransferRequested","type":"event"},{"anonymous":false,"inputs":[{"indexed":true,"internalType":"address","name":"from","type":"address"},{"indexed":true,"internalType":"address","name":"to","type":"address"}],"name":"OwnershipTransferred","type":"event"},{"anonymous":false,"inputs":[{"indexed":true,"internalType":"address","name":"to","type":"address"},{"indexed":false,"internalType":"uint256","name":"amount","type":"uint256"}],"name":"Withdrawn","type":"event"},{"anonymous":false,"inputs":[{"indexed":true,"internalType":"uint256","name":"requestId","type":"uint256"},{"indexed":true,"internalType":"address","name":"consumer","type":"address"}],"name":"WrapperFulfillmentFailed","type":"event"},{"inputs":[],"name":"SUBSCRIPTION_ID","outputs":[{"internalType":"uint256","name":"","type":"uint256"}],"stateMutability":"view","type":"function"},{"inputs":[],"name":"acceptOwnership","outputs":[],"stateMutability":"nonpayable","type":"function"},{"inputs":[{"internalType":"uint32","name":"_callbackGasLimit","type":"uint32"},{"internalType":"uint32","name":"_numWords","type":"uint32"}],"name":"calculateRequestPrice","outputs":[{"internalType":"uint256","name":"","type":"uint256"}],"stateMutability":"view","type":"function"},{"inputs":[{"internalType":"uint32","name":"_callbackGasLimit","type":"uint32"},{"internalType":"uint32","name":"_numWords","type":"uint32"}],"name":"calculateRequestPriceNative","outputs":[{"internalType":"uint256","name":"","type":"uint256"}],"stateMutability":"view","type":"function"},{"inputs":[{"internalType":"bytes","name":"extraArgs","type":"bytes"},{"internalType":"bool","name":"isLinkMode","type":"bool"}],"name":"checkPaymentMode","outputs":[],"stateMutability":"pure","type":"function"},{"inputs":[],"name":"disable","outputs":[],"stateMutability":"nonpayable","type":"function"},{"inputs":[],"name":"enable","outputs":[],"stateMutability":"nonpayable","type":"function"},{"inputs":[{"internalType":"uint32","name":"_callbackGasLimit","type":"uint32"},{"internalType":"uint32","name":"_numWords","type":"uint32"},{"internalType":"uint256","name":"_requestGasPriceWei","type":"uint256"}],"name":"estimateRequestPrice","outputs":[{"internalType":"uint256","name":"","type":"uint256"}],"stateMutability":"view","type":"function"},{"inputs":[{"internalType":"uint32","name":"_callbackGasLimit","type":"uint32"},{"internalType":"uint32","name":"_numWords","type":"uint32"},{"internalType":"uint256","name":"_requestGasPriceWei","type":"uint256"}],"name":"estimateRequestPriceNative","outputs":[{"internalType":"uint256","name":"","type":"uint256"}],"stateMutability":"view","type":"function"},{"inputs":[],"name":"getConfig","outputs":[{"internalType":"int256","name":"fallbackWeiPerUnitLink","type":"int256"},{"internalType":"uint32","name":"stalenessSeconds","type":"uint32"},{"internalType":"uint32","name":"fulfillmentFlatFeeNativePPM","type":"uint32"},{"internalType":"uint32","name":"fulfillmentFlatFeeLinkDiscountPPM","type":"uint32"},{"internalType":"uint32","name":"wrapperGasOverhead","type":"uint32"},{"internalType":"uint32","name":"coordinatorGasOverheadNative","type":"uint32"},{"internalType":"uint32","name":"coordinatorGasOverheadLink","type":"uint32"},{"internalType":"uint16","name":"coordinatorGasOverheadPerWord","type":"uint16"},{"internalType":"uint8","name":"wrapperNativePremiumPercentage","type":"uint8"},{"internalType":"uint8","name":"wrapperLinkPremiumPercentage","type":"uint8"},{"internalType":"bytes32","name":"keyHash","type":"bytes32"},{"internalType":"uint8","name":"maxNumWords","type":"uint8"}],"stateMutability":"view","type":"function"},{"inputs":[],"name":"lastRequestId","outputs":[{"internalType":"uint256","name":"","type":"uint256"}],"stateMutability":"view","type":"function"},{"inputs":[],"name":"link","outputs":[{"internalType":"address","name":"","type":"address"}],"stateMutability":"view","type":"function"},{"inputs":[],"name":"linkNativeFeed","outputs":[{"internalType":"address","name":"","type":"address"}],"stateMutability":"view","type":"function"},{"inputs":[{"internalType":"address","name":"_sender","type":"address"},{"internalType":"uint256","name":"_amount","type":"uint256"},{"internalType":"bytes","name":"_data","type":"bytes"}],"name":"onTokenTransfer","outputs":[],"stateMutability":"nonpayable","type":"function"},{"inputs":[],"name":"owner","outputs":[{"internalType":"address","name":"","type":"address"}],"stateMutability":"view","type":"function"},{"inputs":[{"internalType":"uint256","name":"requestId","type":"uint256"},{"internalType":"uint256[]","name":"randomWords","type":"uint256[]"}],"name":"rawFulfillRandomWords","outputs":[],"stateMutability":"nonpayable","type":"function"},{"inputs":[{"internalType":"uint32","name":"_callbackGasLimit","type":"uint32"},{"internalType":"uint16","name":"_requestConfirmations","type":"uint16"},{"internalType":"uint32","name":"_numWords","type":"uint32"},{"internalType":"bytes","name":"extraArgs","type":"bytes"}],"name":"requestRandomWordsInNative","outputs":[{"internalType":"uint256","name":"requestId","type":"uint256"}],"stateMutability":"payable","type":"function"},{"inputs":[{"internalType":"uint256","name":"","type":"uint256"}],"name":"s_callbacks","outputs":[{"internalType":"address","name":"callbackAddress","type":"address"},{"internalType":"uint32","name":"callbackGasLimit","type":"uint32"},{"internalType":"uint64","name":"requestGasPrice","type":"uint64"}],"stateMutability":"view","type":"function"},{"inputs":[],"name":"s_configured","outputs":[{"internalType":"bool","name":"","type":"bool"}],"stateMutability":"view","type":"function"},{"inputs":[],"name":"s_disabled","outputs":[{"internalType":"bool","name":"","type":"bool"}],"stateMutability":"view","type":"function"},{"inputs":[],"name":"s_fulfillmentTxSizeBytes","outputs":[{"internalType":"uint32","name":"","type":"uint32"}],"stateMutability":"view","type":"function"},{"inputs":[],"name":"s_vrfCoordinator","outputs":[{"internalType":"contract IVRFCoordinatorV2Plus","name":"","type":"address"}],"stateMutability":"view","type":"function"},{"inputs":[{"internalType":"uint32","name":"_wrapperGasOverhead","type":"uint32"},{"internalType":"uint32","name":"_coordinatorGasOverheadNative","type":"uint32"},{"internalType":"uint32","name":"_coordinatorGasOverheadLink","type":"uint32"},{"internalType":"uint16","name":"_coordinatorGasOverheadPerWord","type":"uint16"},{"internalType":"uint8","name":"_coordinatorNativePremiumPercentage","type":"uint8"},{"internalType":"uint8","name":"_coordinatorLinkPremiumPercentage","type":"uint8"},{"internalType":"bytes32","name":"_keyHash","type":"bytes32"},{"internalType":"uint8","name":"_maxNumWords","type":"uint8"},{"internalType":"uint32","name":"_stalenessSeconds","type":"uint32"},{"internalType":"int256","name":"_fallbackWeiPerUnitLink","type":"int256"},{"internalType":"uint32","name":"_fulfillmentFlatFeeNativePPM","type":"uint32"},{"internalType":"uint32","name":"_fulfillmentFlatFeeLinkDiscountPPM","type":"uint32"}],"name":"setConfig","outputs":[],"stateMutability":"nonpayable","type":"function"},{"inputs":[{"internalType":"address","name":"_vrfCoordinator","type":"address"}],"name":"setCoordinator","outputs":[],"stateMutability":"nonpayable","type":"function"},{"inputs":[{"internalType":"uint32","name":"size","type":"uint32"}],"name":"setFulfillmentTxSize","outputs":[],"stateMutability":"nonpayable","type":"function"},{"inputs":[{"internalType":"address","name":"to","type":"address"}],"name":"transferOwnership","outputs":[],"stateMutability":"nonpayable","type":"function"},{"inputs":[],"name":"typeAndVersion","outputs":[{"internalType":"string","name":"","type":"string"}],"stateMutability":"pure","type":"function"},{"inputs":[{"internalType":"address","name":"_recipient","type":"address"}],"name":"withdraw","outputs":[],"stateMutability":"nonpayable","type":"function"},{"inputs":[{"internalType":"address","name":"_recipient","type":"address"}],"name":"withdrawNative","outputs":[],"stateMutability":"nonpayable","type":"function"}],"evm":{"bytecode":{"linkReferences":{},"object":"60e06040526006805463ffffffff60401b191669024400000000000000001790553480156200002d57600080fd5b5060405162003e0938038062003e098339810160408190526200005091620002a1565b813380600081620000a85760405162461bcd60e51b815260206004820152601860248201527f43616e6e6f7420736574206f776e657220746f207a65726f000000000000000060448201526064015b60405180910390fd5b600080546001600160a01b0319166001600160a01b0384811691909117909155811615620000db57620000db81620001d9565b5050506001600160a01b038116620001065760405163d92e233d60e01b815260040160405180910390fd5b600280546001600160a01b0319166001600160a01b0392831617905584811660a052831660c0526000819003620001505760405163a81c0bef60e01b815260040160405180910390fd5b60025460405163dc311dd360e01b8152600481018390526001600160a01b039091169063dc311dd390602401600060405180830381865afa1580156200019a573d6000803e3d6000fd5b505050506040513d6000823e601f3d908101601f19168201604052620001c4919081019062000321565b505050608092909252506200044a9350505050565b336001600160a01b03821603620002335760405162461bcd60e51b815260206004820152601760248201527f43616e6e6f74207472616e7366657220746f2073656c6600000000000000000060448201526064016200009f565b600180546001600160a01b0319166001600160a01b0383811691821790925560008054604051929316917fed8889f560326eb138920d842192f0eb3dd22b4f139c87a2c57538e05bae12789190a350565b80516001600160a01b03811681146200029c57600080fd5b919050565b60008060008060808587031215620002b857600080fd5b620002c38562000284565b9350620002d36020860162000284565b9250620002e36040860162000284565b6060959095015193969295505050565b80516001600160601b03811681146200029c57600080fd5b634e487b7160e01b600052604160045260246000fd5b600080600080600060a086880312156200033a57600080fd5b6200034586620002f3565b9450602062000356818801620002f3565b60408801519095506001600160401b0380821682146200037557600080fd5b8195506200038660608a0162000284565b945060808901519150808211156200039d57600080fd5b818901915089601f830112620003b257600080fd5b815181811115620003c757620003c76200030b565b8060051b604051601f19603f83011681018181108582111715620003ef57620003ef6200030b565b60405291825284820192508381018501918c8311156200040e57600080fd5b938501935b828510156200043757620004278562000284565b8452938501939285019262000413565b8096505050505050509295509295909350565b60805160a05160c051613965620004a46000396000818161037e01526122840152600081816102ea015281816111f6015281816112c50152611c6f01526000818161020b015281816118c40152611e5c01526139656000f3fe6080604052600436106101c15760003560e01c806357a8070a116100f7578063a4c0ed3611610095578063cdd8d88511610064578063cdd8d88514610741578063e1cab7451461077f578063f2fde38b1461079f578063fc2a88c3146107bf57600080fd5b8063a4c0ed36146105b9578063a608a1e1146105d9578063bf17e5591461060c578063c3f909d41461062c57600080fd5b80638ea98117116100d15780638ea98117146105445780639cfc058e146105645780639eccacf614610577578063a3907d71146105a457600080fd5b806357a8070a146104c257806379ba5097146105045780638da5cb5b1461051957600080fd5b80631fe543e3116101645780632f2770db1161013e5780632f2770db146103a25780632f622e6b146103b757806348baa1c5146103d757806351cff8d9146104a257600080fd5b80631fe543e31461032f57806327e5c50a1461034f5780632808e6c81461036f57600080fd5b806313c34b7f116101a057806313c34b7f1461024f578063181f5a771461026f57806318b6f4c8146102bb5780631c4695f4146102db57600080fd5b806226501b146101c6578063030932bb146101f9578063045343aa1461022d575b600080fd5b3480156101d257600080fd5b506101e66101e1366004612e80565b6107d5565b6040519081526020015b60405180910390f35b34801561020557600080fd5b506101e67f000000000000000000000000000000000000000000000000000000000000000081565b34801561023957600080fd5b5061024d610248366004612edf565b61090f565b005b34801561025b57600080fd5b506101e661026a366004612fad565b610bcb565b34801561027b57600080fd5b50604080518082018252601681527f5652465632506c75735772617070657220312e302e3000000000000000000000602082015290516101f09190613044565b3480156102c757600080fd5b5061024d6102d636600461313f565b610cf2565b3480156102e757600080fd5b507f00000000000000000000000000000000000000000000000000000000000000005b60405173ffffffffffffffffffffffffffffffffffffffff90911681526020016101f0565b34801561033b57600080fd5b5061024d61034a366004613191565b610e71565b34801561035b57600080fd5b506101e661036a366004612fad565b610eef565b34801561037b57600080fd5b507f000000000000000000000000000000000000000000000000000000000000000061030a565b3480156103ae57600080fd5b5061024d611023565b3480156103c357600080fd5b5061024d6103d2366004613234565b611096565b3480156103e357600080fd5b506104616103f236600461324f565b60076020526000908152604090205473ffffffffffffffffffffffffffffffffffffffff81169074010000000000000000000000000000000000000000810463ffffffff16907801000000000000000000000000000000000000000000000000900467ffffffffffffffff1683565b6040805173ffffffffffffffffffffffffffffffffffffffff909416845263ffffffff909216602084015267ffffffffffffffff16908201526060016101f0565b3480156104ae57600080fd5b5061024d6104bd366004613234565b6111bd565b3480156104ce57600080fd5b506002546104f49074010000000000000000000000000000000000000000900460ff1681565b60405190151581526020016101f0565b34801561051057600080fd5b5061024d6113be565b34801561052557600080fd5b5060005473ffffffffffffffffffffffffffffffffffffffff1661030a565b34801561055057600080fd5b5061024d61055f366004613234565b6114bb565b6101e66105723660046132b1565b611646565b34801561058357600080fd5b5060025461030a9073ffffffffffffffffffffffffffffffffffffffff1681565b3480156105b057600080fd5b5061024d611af2565b3480156105c557600080fd5b5061024d6105d4366004613327565b611b4d565b3480156105e557600080fd5b506002546104f4907501000000000000000000000000000000000000000000900460ff1681565b34801561061857600080fd5b5061024d610627366004613381565b6120bb565b34801561063857600080fd5b506005546006546003546002546040516101f0949363ffffffff808216947601000000000000000000000000000000000000000000008084048316957a010000000000000000000000000000000000000000000000000000850484169564010000000086048516956c0100000000000000000000000081048616957001000000000000000000000000000000008204169461ffff740100000000000000000000000000000000000000008304169460ff7e0100000000000000000000000000000000000000000000000000000000000084048116957f0100000000000000000000000000000000000000000000000000000000000000909404811694929391909104169061339c565b34801561074d57600080fd5b5060065461076a9068010000000000000000900463ffffffff1681565b60405163ffffffff90911681526020016101f0565b34801561078b57600080fd5b506101e661079a366004612e80565b612134565b3480156107ab57600080fd5b5061024d6107ba366004613234565b612252565b3480156107cb57600080fd5b506101e660045481565b60025460009074010000000000000000000000000000000000000000900460ff16610861576040517f08c379a000000000000000000000000000000000000000000000000000000000815260206004820152601960248201527f77726170706572206973206e6f7420636f6e666967757265640000000000000060448201526064015b60405180910390fd5b6002547501000000000000000000000000000000000000000000900460ff16156108e7576040517f08c379a000000000000000000000000000000000000000000000000000000000815260206004820152601360248201527f777261707065722069732064697361626c6564000000000000000000000000006044820152606401610858565b60006108f1612266565b5090506109068563ffffffff168585846123bc565b95945050505050565b610917612523565b8163ffffffff168163ffffffff16111561096d576040517f2780dcb200000000000000000000000000000000000000000000000000000000815263ffffffff808316600483015283166024820152604401610858565b609b60ff891611156109b7576040517f3acc511a00000000000000000000000000000000000000000000000000000000815260ff89166004820152609b6024820152604401610858565b609b60ff88161115610a01576040517f3acc511a00000000000000000000000000000000000000000000000000000000815260ff88166004820152609b6024820152604401610858565b8b600660046101000a81548163ffffffff021916908363ffffffff1602179055508a6006600c6101000a81548163ffffffff021916908363ffffffff16021790555089600660106101000a81548163ffffffff021916908363ffffffff16021790555088600660146101000a81548161ffff021916908361ffff160217905550876006601e6101000a81548160ff021916908360ff160217905550866006601f6101000a81548160ff021916908360ff1602179055508560038190555084600260166101000a81548160ff021916908360ff1602179055506001600260146101000a81548160ff02191690831515021790555083600660006101000a81548163ffffffff021916908363ffffffff1602179055508260058190555081600660166101000a81548163ffffffff021916908363ffffffff160217905550806006601a6101000a81548163ffffffff021916908363ffffffff1602179055507f8aee1a8c131eaf1a5bd30594737b6926a7c5cb29281a97639f6ac93947c8995e8c8c8c8c8c8c8c8c8c8c8c6006601a9054906101000a900463ffffffff16604051610bb59c9b9a9998979695949392919061341d565b60405180910390a1505050505050505050505050565b60025460009074010000000000000000000000000000000000000000900460ff16610c52576040517f08c379a000000000000000000000000000000000000000000000000000000000815260206004820152601960248201527f77726170706572206973206e6f7420636f6e66696775726564000000000000006044820152606401610858565b6002547501000000000000000000000000000000000000000000900460ff1615610cd8576040517f08c379a000000000000000000000000000000000000000000000000000000000815260206004820152601360248201527f777261707065722069732064697361626c6564000000000000000000000000006044820152606401610858565b610ce98363ffffffff16833a6125a6565b90505b92915050565b8151600003610d365780610d32576040517f6b81746e00000000000000000000000000000000000000000000000000000000815260040160405180910390fd5b5050565b815160241115610d875781516040517f51200dce0000000000000000000000000000000000000000000000000000000081526108589160249160040161ffff92831681529116602082015260400190565b600082602381518110610d9c57610d9c61349a565b6020910101517fff00000000000000000000000000000000000000000000000000000000000000167f0100000000000000000000000000000000000000000000000000000000000000149050808015610df25750815b15610e29576040517f6048aa6800000000000000000000000000000000000000000000000000000000815260040160405180910390fd5b80158015610e35575081155b15610e6c576040517f6b81746e00000000000000000000000000000000000000000000000000000000815260040160405180910390fd5b505050565b60025473ffffffffffffffffffffffffffffffffffffffff163314610ee4576002546040517f1cf993f400000000000000000000000000000000000000000000000000000000815233600482015273ffffffffffffffffffffffffffffffffffffffff9091166024820152604401610858565b610e6c8383836126be565b60025460009074010000000000000000000000000000000000000000900460ff16610f76576040517f08c379a000000000000000000000000000000000000000000000000000000000815260206004820152601960248201527f77726170706572206973206e6f7420636f6e66696775726564000000000000006044820152606401610858565b6002547501000000000000000000000000000000000000000000900460ff1615610ffc576040517f08c379a000000000000000000000000000000000000000000000000000000000815260206004820152601360248201527f777261707065722069732064697361626c6564000000000000000000000000006044820152606401610858565b6000611006612266565b50905061101b8463ffffffff16843a846123bc565b949350505050565b61102b612523565b600280547fffffffffffffffffffff00ffffffffffffffffffffffffffffffffffffffffff1675010000000000000000000000000000000000000000001790556040517f75884cdadc4a89e8b545db800057f06ec7f5338a08183c7ba515f2bfdd9fe1e190600090a1565b61109e612523565b604051479060009073ffffffffffffffffffffffffffffffffffffffff84169083908381818185875af1925050503d80600081146110f8576040519150601f19603f3d011682016040523d82523d6000602084013e6110fd565b606091505b5050905080611168576040517f08c379a000000000000000000000000000000000000000000000000000000000815260206004820152601960248201527f6661696c656420746f207769746864726177206e6174697665000000000000006044820152606401610858565b8273ffffffffffffffffffffffffffffffffffffffff167fc303ca808382409472acbbf899c316cf439f409f6584aae22df86dfa3c9ed504836040516111b091815260200190565b60405180910390a2505050565b6111c5612523565b6040517f70a082310000000000000000000000000000000000000000000000000000000081523060048201526000907f000000000000000000000000000000000000000000000000000000000000000073ffffffffffffffffffffffffffffffffffffffff16906370a0823190602401602060405180830381865afa158015611252573d6000803e3d6000fd5b505050506040513d601f19601f8201168201806040525081019061127691906134c9565b6040517fa9059cbb00000000000000000000000000000000000000000000000000000000815273ffffffffffffffffffffffffffffffffffffffff8481166004830152602482018390529192507f00000000000000000000000000000000000000000000000000000000000000009091169063a9059cbb906044016020604051808303816000875af1158015611310573d6000803e3d6000fd5b505050506040513d601f19601f8201168201806040525081019061133491906134e2565b61136a576040517f7c07fc4c00000000000000000000000000000000000000000000000000000000815260040160405180910390fd5b8173ffffffffffffffffffffffffffffffffffffffff167f7084f5476618d8e60b11ef0d7d3f06914655adb8793e28ff7f018d4c76d505d5826040516113b291815260200190565b60405180910390a25050565b60015473ffffffffffffffffffffffffffffffffffffffff16331461143f576040517f08c379a000000000000000000000000000000000000000000000000000000000815260206004820152601660248201527f4d7573742062652070726f706f736564206f776e6572000000000000000000006044820152606401610858565b60008054337fffffffffffffffffffffffff00000000000000000000000000000000000000008083168217845560018054909116905560405173ffffffffffffffffffffffffffffffffffffffff90921692909183917f8be0079c531659141344cd1fd0a4f28419497f9722a3daafe3b4186f6b6457e091a350565b60005473ffffffffffffffffffffffffffffffffffffffff1633148015906114fb575060025473ffffffffffffffffffffffffffffffffffffffff163314155b1561157f573361152060005473ffffffffffffffffffffffffffffffffffffffff1690565b6002546040517f061db9c100000000000000000000000000000000000000000000000000000000815273ffffffffffffffffffffffffffffffffffffffff93841660048201529183166024830152919091166044820152606401610858565b73ffffffffffffffffffffffffffffffffffffffff81166115cc576040517fd92e233d00000000000000000000000000000000000000000000000000000000815260040160405180910390fd5b600280547fffffffffffffffffffffffff00000000000000000000000000000000000000001673ffffffffffffffffffffffffffffffffffffffff83169081179091556040519081527fd1a6a14209a385a964d036e404cb5cfb71f4000cdb03c9366292430787261be6906020015b60405180910390a150565b60025460009074010000000000000000000000000000000000000000900460ff166116cd576040517f08c379a000000000000000000000000000000000000000000000000000000000815260206004820152601960248201527f77726170706572206973206e6f7420636f6e66696775726564000000000000006044820152606401610858565b6002547501000000000000000000000000000000000000000000900460ff1615611753576040517f08c379a000000000000000000000000000000000000000000000000000000000815260206004820152601360248201527f777261707065722069732064697361626c6564000000000000000000000000006044820152606401610858565b61179283838080601f01602080910402602001604051908101604052809392919081815260200183838082843760009201829052509250610cf2915050565b600061179d876128a4565b905060006117b28863ffffffff16873a6125a6565b90508034101561181e576040517f08c379a000000000000000000000000000000000000000000000000000000000815260206004820152600b60248201527f66656520746f6f206c6f770000000000000000000000000000000000000000006044820152606401610858565b600254760100000000000000000000000000000000000000000000900460ff1663ffffffff871611156118ad576040517f08c379a000000000000000000000000000000000000000000000000000000000815260206004820152601160248201527f6e756d576f72647320746f6f20686967680000000000000000000000000000006044820152606401610858565b60006040518060c0016040528060035481526020017f000000000000000000000000000000000000000000000000000000000000000081526020018961ffff168152602001600660049054906101000a900463ffffffff16858c611911919061352e565b61191b919061352e565b63ffffffff1681526020018863ffffffff16815260200187878080601f01602080910402602001604051908101604052809392919081815260200183838082843760009201919091525050509152506002546040517f9b1c385e00000000000000000000000000000000000000000000000000000000815291925073ffffffffffffffffffffffffffffffffffffffff1690639b1c385e906119c1908490600401613552565b6020604051808303816000875af11580156119e0573d6000803e3d6000fd5b505050506040513d601f19601f82011682018060405250810190611a0491906134c9565b6040805160608101825233815263ffffffff808d16602080840191825267ffffffffffffffff3a81168587019081526000888152600790935295909120935184549251955190911678010000000000000000000000000000000000000000000000000277ffffffffffffffffffffffffffffffffffffffffffffffff9590931674010000000000000000000000000000000000000000027fffffffffffffffff00000000000000000000000000000000000000000000000090921673ffffffffffffffffffffffffffffffffffffffff91909116171792909216919091179055935050505095945050505050565b611afa612523565b600280547fffffffffffffffffffff00ffffffffffffffffffffffffffffffffffffffffff1690556040517fc0f961051f97b04c496472d11cb6170d844e4b2c9dfd3b602a4fa0139712d48490600090a1565b60025474010000000000000000000000000000000000000000900460ff16611bd1576040517f08c379a000000000000000000000000000000000000000000000000000000000815260206004820152601960248201527f77726170706572206973206e6f7420636f6e66696775726564000000000000006044820152606401610858565b6002547501000000000000000000000000000000000000000000900460ff1615611c57576040517f08c379a000000000000000000000000000000000000000000000000000000000815260206004820152601360248201527f777261707065722069732064697361626c6564000000000000000000000000006044820152606401610858565b3373ffffffffffffffffffffffffffffffffffffffff7f00000000000000000000000000000000000000000000000000000000000000001614611cf6576040517f08c379a000000000000000000000000000000000000000000000000000000000815260206004820152601760248201527f6f6e6c792063616c6c61626c652066726f6d204c494e4b0000000000000000006044820152606401610858565b6000808080611d07858701876135af565b9350935093509350611d1a816001610cf2565b6000611d25856128a4565b9050600080611d32612266565b915091506000611d4a8863ffffffff16873a866123bc565b9050808b1015611db6576040517f08c379a000000000000000000000000000000000000000000000000000000000815260206004820152600b60248201527f66656520746f6f206c6f770000000000000000000000000000000000000000006044820152606401610858565b600254760100000000000000000000000000000000000000000000900460ff1663ffffffff87161115611e45576040517f08c379a000000000000000000000000000000000000000000000000000000000815260206004820152601160248201527f6e756d576f72647320746f6f20686967680000000000000000000000000000006044820152606401610858565b60006040518060c0016040528060035481526020017f000000000000000000000000000000000000000000000000000000000000000081526020018961ffff168152602001600660049054906101000a900463ffffffff16878c611ea9919061352e565b611eb3919061352e565b63ffffffff908116825289166020820152604090810188905260025490517f9b1c385e00000000000000000000000000000000000000000000000000000000815291925060009173ffffffffffffffffffffffffffffffffffffffff90911690639b1c385e90611f27908590600401613552565b6020604051808303816000875af1158015611f46573d6000803e3d6000fd5b505050506040513d601f19601f82011682018060405250810190611f6a91906134c9565b905060405180606001604052808f73ffffffffffffffffffffffffffffffffffffffff1681526020018b63ffffffff1681526020013a67ffffffffffffffff168152506007600083815260200190815260200160002060008201518160000160006101000a81548173ffffffffffffffffffffffffffffffffffffffff021916908373ffffffffffffffffffffffffffffffffffffffff16021790555060208201518160000160146101000a81548163ffffffff021916908363ffffffff16021790555060408201518160000160186101000a81548167ffffffffffffffff021916908367ffffffffffffffff1602179055509050508060048190555083156120ab576005546040805183815260208101929092527f6ca648a381f22ead7e37773d934e64885dcf861fbfbb26c40354cbf0c4662d1a910160405180910390a15b5050505050505050505050505050565b6120c3612523565b600680547fffffffffffffffffffffffffffffffffffffffff00000000ffffffffffffffff166801000000000000000063ffffffff8416908102919091179091556040519081527f697b48b8b76cebb09a54ec4ff810e8a181c96f65395d51c744db09c115d1d5d09060200161163b565b60025460009074010000000000000000000000000000000000000000900460ff166121bb576040517f08c379a000000000000000000000000000000000000000000000000000000000815260206004820152601960248201527f77726170706572206973206e6f7420636f6e66696775726564000000000000006044820152606401610858565b6002547501000000000000000000000000000000000000000000900460ff1615612241576040517f08c379a000000000000000000000000000000000000000000000000000000000815260206004820152601360248201527f777261707065722069732064697361626c6564000000000000000000000000006044820152606401610858565b61101b8463ffffffff1684846125a6565b61225a612523565b612263816128bc565b50565b6000806000600660009054906101000a900463ffffffff16905060007f000000000000000000000000000000000000000000000000000000000000000073ffffffffffffffffffffffffffffffffffffffff1663feaf968c6040518163ffffffff1660e01b815260040160a060405180830381865afa1580156122ed573d6000803e3d6000fd5b505050506040513d601f19601f820116820180604052508101906123119190613638565b50919650909250505063ffffffff82161580159061233d57506123348142613688565b8263ffffffff16105b9250821561234b5760055493505b60008412156123b6576040517f08c379a000000000000000000000000000000000000000000000000000000000815260206004820152601660248201527f496e76616c6964204c494e4b20776569207072696365000000000000000000006044820152606401610858565b50509091565b60065460009081906123dc90640100000000900463ffffffff168561369b565b6006549091506000906124009068010000000000000000900463ffffffff166129b1565b61240b876000612a79565b61241b9063ffffffff16896136b2565b612425908761369b565b61242f91906136b2565b6006549091506000906124829063ffffffff7a01000000000000000000000000000000000000000000000000000082048116917601000000000000000000000000000000000000000000009004166136c5565b6124979063ffffffff1664e8d4a5100061369b565b6006546064906124cd907f0100000000000000000000000000000000000000000000000000000000000000900460ff16826136e2565b6124da9060ff168561369b565b6124e4919061372a565b6124ee91906136b2565b9050846124fb82856136b2565b61250d90670de0b6b3a764000061369b565b612517919061372a565b98975050505050505050565b60005473ffffffffffffffffffffffffffffffffffffffff1633146125a4576040517f08c379a000000000000000000000000000000000000000000000000000000000815260206004820152601660248201527f4f6e6c792063616c6c61626c65206279206f776e6572000000000000000000006044820152606401610858565b565b60065460009081906125c690640100000000900463ffffffff168461369b565b6006549091506000906125ea9068010000000000000000900463ffffffff166129b1565b6125f5866001612a79565b6126059063ffffffff16886136b2565b61260f908661369b565b61261991906136b2565b60065490915060009061265190760100000000000000000000000000000000000000000000900463ffffffff1664e8d4a5100061369b565b600654606490612686907e01000000000000000000000000000000000000000000000000000000000000900460ff16826136e2565b6126939060ff168561369b565b61269d919061372a565b6126a791906136b2565b90506126b381846136b2565b979650505050505050565b60008381526007602081815260408084208151606081018352815473ffffffffffffffffffffffffffffffffffffffff808216835274010000000000000000000000000000000000000000820463ffffffff1683870152780100000000000000000000000000000000000000000000000090910467ffffffffffffffff1693820193909352888652939092529290558051909181166127b9576040517f08c379a000000000000000000000000000000000000000000000000000000000815260206004820152601160248201527f72657175657374206e6f7420666f756e640000000000000000000000000000006044820152606401610858565b600080631fe543e360e01b8787876040516024016127d99392919061373e565b604051602081830303815290604052907bffffffffffffffffffffffffffffffffffffffffffffffffffffffff19166020820180517bffffffffffffffffffffffffffffffffffffffffffffffffffffffff83818316178352505050509050600061284f856020015163ffffffff168584612b24565b90508061289a5760405173ffffffffffffffffffffffffffffffffffffffff85169089907fc551b83c151f2d1c7eeb938ac59008e0409f1c1dc1e2f112449d4d79b458902290600090a35b5050505050505050565b60006128b1603f83613797565b610cec90600161352e565b3373ffffffffffffffffffffffffffffffffffffffff82160361293b576040517f08c379a000000000000000000000000000000000000000000000000000000000815260206004820152601760248201527f43616e6e6f74207472616e7366657220746f2073656c660000000000000000006044820152606401610858565b600180547fffffffffffffffffffffffff00000000000000000000000000000000000000001673ffffffffffffffffffffffffffffffffffffffff83811691821790925560008054604051929316917fed8889f560326eb138920d842192f0eb3dd22b4f139c87a2c57538e05bae12789190a350565b6000466129bd81612b70565b15612a52576000606c73ffffffffffffffffffffffffffffffffffffffff166341b247a86040518163ffffffff1660e01b815260040160c060405180830381865afa158015612a10573d6000803e3d6000fd5b505050506040513d601f19601f82011682018060405250810190612a3491906137ba565b5050505091505083608c612a4891906136b2565b61101b908261369b565b612a5b81612b93565b15612a7057612a6983612bcd565b9392505050565b50600092915050565b60008115612ad457600654612aaa9074010000000000000000000000000000000000000000900461ffff1684613804565b600654612acd91906c01000000000000000000000000900463ffffffff1661352e565b9050610cec565b600654612afd9074010000000000000000000000000000000000000000900461ffff1684613804565b600654612acd9190700100000000000000000000000000000000900463ffffffff1661352e565b60005a611388811015612b3657600080fd5b611388810390508460408204820311612b4e57600080fd5b50823b612b5a57600080fd5b60008083516020850160008789f1949350505050565b600061a4b1821480612b84575062066eed82145b80610cec57505062066eee1490565b6000600a821480612ba557506101a482145b80612bb2575062aa37dc82145b80612bbe575061210582145b80610cec57505062014a331490565b60008073420000000000000000000000000000000000000f73ffffffffffffffffffffffffffffffffffffffff1663519b4bd36040518163ffffffff1660e01b8152600401602060405180830381865afa158015612c2f573d6000803e3d6000fd5b505050506040513d601f19601f82011682018060405250810190612c5391906134c9565b9050600080612c628186613688565b90506000612c7182601061369b565b612c7c84600461369b565b612c8691906136b2565b9050600073420000000000000000000000000000000000000f73ffffffffffffffffffffffffffffffffffffffff16630c18c1626040518163ffffffff1660e01b8152600401602060405180830381865afa158015612ce9573d6000803e3d6000fd5b505050506040513d601f19601f82011682018060405250810190612d0d91906134c9565b9050600073420000000000000000000000000000000000000f73ffffffffffffffffffffffffffffffffffffffff1663f45e65d86040518163ffffffff1660e01b8152600401602060405180830381865afa158015612d70573d6000803e3d6000fd5b505050506040513d601f19601f82011682018060405250810190612d9491906134c9565b9050600073420000000000000000000000000000000000000f73ffffffffffffffffffffffffffffffffffffffff1663313ce5676040518163ffffffff1660e01b8152600401602060405180830381865afa158015612df7573d6000803e3d6000fd5b505050506040513d601f19601f82011682018060405250810190612e1b91906134c9565b90506000612e2a82600a61394c565b905060008184612e3a87896136b2565b612e44908c61369b565b612e4e919061369b565b612e58919061372a565b9b9a5050505050505050505050565b803563ffffffff81168114612e7b57600080fd5b919050565b600080600060608486031215612e9557600080fd5b612e9e84612e67565b9250612eac60208501612e67565b9150604084013590509250925092565b803561ffff81168114612e7b57600080fd5b803560ff81168114612e7b57600080fd5b6000806000806000806000806000806000806101808d8f031215612f0257600080fd5b612f0b8d612e67565b9b50612f1960208e01612e67565b9a50612f2760408e01612e67565b9950612f3560608e01612ebc565b9850612f4360808e01612ece565b9750612f5160a08e01612ece565b965060c08d01359550612f6660e08e01612ece565b9450612f756101008e01612e67565b93506101208d01359250612f8c6101408e01612e67565b9150612f9b6101608e01612e67565b90509295989b509295989b509295989b565b60008060408385031215612fc057600080fd5b612fc983612e67565b9150612fd760208401612e67565b90509250929050565b6000815180845260005b8181101561300657602081850181015186830182015201612fea565b5060006020828601015260207fffffffffffffffffffffffffffffffffffffffffffffffffffffffffffffffe0601f83011685010191505092915050565b602081526000610ce96020830184612fe0565b7f4e487b7100000000000000000000000000000000000000000000000000000000600052604160045260246000fd5b600082601f83011261309757600080fd5b813567ffffffffffffffff808211156130b2576130b2613057565b604051601f83017fffffffffffffffffffffffffffffffffffffffffffffffffffffffffffffffe0908116603f011681019082821181831017156130f8576130f8613057565b8160405283815286602085880101111561311157600080fd5b836020870160208301376000602085830101528094505050505092915050565b801515811461226357600080fd5b6000806040838503121561315257600080fd5b823567ffffffffffffffff81111561316957600080fd5b61317585828601613086565b925050602083013561318681613131565b809150509250929050565b6000806000604084860312156131a657600080fd5b83359250602084013567ffffffffffffffff808211156131c557600080fd5b818601915086601f8301126131d957600080fd5b8135818111156131e857600080fd5b8760208260051b85010111156131fd57600080fd5b6020830194508093505050509250925092565b803573ffffffffffffffffffffffffffffffffffffffff81168114612e7b57600080fd5b60006020828403121561324657600080fd5b610ce982613210565b60006020828403121561326157600080fd5b5035919050565b60008083601f84011261327a57600080fd5b50813567ffffffffffffffff81111561329257600080fd5b6020830191508360208285010111156132aa57600080fd5b9250929050565b6000806000806000608086880312156132c957600080fd5b6132d286612e67565b94506132e060208701612ebc565b93506132ee60408701612e67565b9250606086013567ffffffffffffffff81111561330a57600080fd5b61331688828901613268565b969995985093965092949392505050565b6000806000806060858703121561333d57600080fd5b61334685613210565b935060208501359250604085013567ffffffffffffffff81111561336957600080fd5b61337587828801613268565b95989497509550505050565b60006020828403121561339357600080fd5b610ce982612e67565b8c815263ffffffff8c811660208301528b811660408301528a81166060830152898116608083015288811660a0830152871660c082015261ffff861660e082015260ff858116610100830152841661012082015261018081018361014083015261340c61016083018460ff169052565b9d9c50505050505050505050505050565b63ffffffff8d811682528c811660208301528b8116604083015261ffff8b16606083015260ff8a8116608084015289811660a084015260c08301899052871660e0830152851661010082015261018081018461012083015261348861014083018563ffffffff169052565b63ffffffff831661016083015261340c565b7f4e487b7100000000000000000000000000000000000000000000000000000000600052603260045260246000fd5b6000602082840312156134db57600080fd5b5051919050565b6000602082840312156134f457600080fd5b8151612a6981613131565b7f4e487b7100000000000000000000000000000000000000000000000000000000600052601160045260246000fd5b63ffffffff81811683821601908082111561354b5761354b6134ff565b5092915050565b60208152815160208201526020820151604082015261ffff60408301511660608201526000606083015163ffffffff80821660808501528060808601511660a0850152505060a083015160c08084015261101b60e0840182612fe0565b600080600080608085870312156135c557600080fd5b6135ce85612e67565b93506135dc60208601612ebc565b92506135ea60408601612e67565b9150606085013567ffffffffffffffff81111561360657600080fd5b61361287828801613086565b91505092959194509250565b805169ffffffffffffffffffff81168114612e7b57600080fd5b600080600080600060a0868803121561365057600080fd5b6136598661361e565b945060208601519350604086015192506060860151915061367c6080870161361e565b90509295509295909350565b81810381811115610cec57610cec6134ff565b8082028115828204841417610cec57610cec6134ff565b80820180821115610cec57610cec6134ff565b63ffffffff82811682821603908082111561354b5761354b6134ff565b60ff8181168382160190811115610cec57610cec6134ff565b7f4e487b7100000000000000000000000000000000000000000000000000000000600052601260045260246000fd5b600082613739576137396136fb565b500490565b8381526040602082015281604082015260007f07ffffffffffffffffffffffffffffffffffffffffffffffffffffffffffffff83111561377d57600080fd5b8260051b8085606085013791909101606001949350505050565b600063ffffffff808416806137ae576137ae6136fb565b92169190910492915050565b60008060008060008060c087890312156137d357600080fd5b865195506020870151945060408701519350606087015192506080870151915060a087015190509295509295509295565b63ffffffff818116838216028082169190828114613824576138246134ff565b505092915050565b600181815b8085111561388557817fffffffffffffffffffffffffffffffffffffffffffffffffffffffffffffffff0482111561386b5761386b6134ff565b8085161561387857918102915b93841c9390800290613831565b509250929050565b60008261389c57506001610cec565b816138a957506000610cec565b81600181146138bf57600281146138c9576138e5565b6001915050610cec565b60ff8411156138da576138da6134ff565b50506001821b610cec565b5060208310610133831016604e8410600b8410161715613908575081810a610cec565b613912838361382c565b807fffffffffffffffffffffffffffffffffffffffffffffffffffffffffffffffff04821115613944576139446134ff565b029392505050565b6000610ce9838361388d56fea164736f6c6343000813000a","opcodes":"PUSH1 0xE0 PUSH1 0x40 MSTORE PUSH1 0x6 DUP1 SLOAD PUSH4 0xFFFFFFFF PUSH1 0x40 SHL NOT AND PUSH10 0x2440000000000000000 OR SWAP1 SSTORE CALLVALUE DUP1 ISZERO PUSH3 0x2D JUMPI PUSH1 0x0 DUP1 REVERT JUMPDEST POP PUSH1 0x40 MLOAD PUSH3 0x3E09 CODESIZE SUB DUP1 PUSH3 0x3E09 DUP4 CODECOPY DUP2 ADD PUSH1 0x40 DUP2 SWAP1 MSTORE PUSH3 0x50 SWAP2 PUSH3 0x2A1 JUMP JUMPDEST DUP2 CALLER DUP1 PUSH1 0x0 DUP2 PUSH3 0xA8 JUMPI PUSH1 0x40 MLOAD PUSH3 0x461BCD PUSH1 0xE5 SHL DUP2 MSTORE PUSH1 0x20 PUSH1 0x4 DUP3 ADD MSTORE PUSH1 0x18 PUSH1 0x24 DUP3 ADD MSTORE PUSH32 0x43616E6E6F7420736574206F776E657220746F207A65726F0000000000000000 PUSH1 0x44 DUP3 ADD MSTORE PUSH1 0x64 ADD JUMPDEST PUSH1 0x40 MLOAD DUP1 SWAP2 SUB SWAP1 REVERT JUMPDEST PUSH1 0x0 DUP1 SLOAD PUSH1 0x1 PUSH1 0x1 PUSH1 0xA0 SHL SUB NOT AND PUSH1 0x1 PUSH1 0x1 PUSH1 0xA0 SHL SUB DUP5 DUP2 AND SWAP2 SWAP1 SWAP2 OR SWAP1 SWAP2 SSTORE DUP2 AND ISZERO PUSH3 0xDB JUMPI PUSH3 0xDB DUP2 PUSH3 0x1D9 JUMP JUMPDEST POP POP POP PUSH1 0x1 PUSH1 0x1 PUSH1 0xA0 SHL SUB DUP2 AND PUSH3 0x106 JUMPI PUSH1 0x40 MLOAD PUSH4 0xD92E233D PUSH1 0xE0 SHL DUP2 MSTORE PUSH1 0x4 ADD PUSH1 0x40 MLOAD DUP1 SWAP2 SUB SWAP1 REVERT JUMPDEST PUSH1 0x2 DUP1 SLOAD PUSH1 0x1 PUSH1 0x1 PUSH1 0xA0 SHL SUB NOT AND PUSH1 0x1 PUSH1 0x1 PUSH1 0xA0 SHL SUB SWAP3 DUP4 AND OR SWAP1 SSTORE DUP5 DUP2 AND PUSH1 0xA0 MSTORE DUP4 AND PUSH1 0xC0 MSTORE PUSH1 0x0 DUP2 SWAP1 SUB PUSH3 0x150 JUMPI PUSH1 0x40 MLOAD PUSH4 0xA81C0BEF PUSH1 0xE0 SHL DUP2 MSTORE PUSH1 0x4 ADD PUSH1 0x40 MLOAD DUP1 SWAP2 SUB SWAP1 REVERT JUMPDEST PUSH1 0x2 SLOAD PUSH1 0x40 MLOAD PUSH4 0xDC311DD3 PUSH1 0xE0 SHL DUP2 MSTORE PUSH1 0x4 DUP2 ADD DUP4 SWAP1 MSTORE PUSH1 0x1 PUSH1 0x1 PUSH1 0xA0 SHL SUB SWAP1 SWAP2 AND SWAP1 PUSH4 0xDC311DD3 SWAP1 PUSH1 0x24 ADD PUSH1 0x0 PUSH1 0x40 MLOAD DUP1 DUP4 SUB DUP2 DUP7 GAS STATICCALL ISZERO DUP1 ISZERO PUSH3 0x19A JUMPI RETURNDATASIZE PUSH1 0x0 DUP1 RETURNDATACOPY RETURNDATASIZE PUSH1 0x0 REVERT JUMPDEST POP POP POP POP PUSH1 0x40 MLOAD RETURNDATASIZE PUSH1 0x0 DUP3 RETURNDATACOPY PUSH1 0x1F RETURNDATASIZE SWAP1 DUP2 ADD PUSH1 0x1F NOT AND DUP3 ADD PUSH1 0x40 MSTORE PUSH3 0x1C4 SWAP2 SWAP1 DUP2 ADD SWAP1 PUSH3 0x321 JUMP JUMPDEST POP POP POP PUSH1 0x80 SWAP3 SWAP1 SWAP3 MSTORE POP PUSH3 0x44A SWAP4 POP POP POP POP JUMP JUMPDEST CALLER PUSH1 0x1 PUSH1 0x1 PUSH1 0xA0 SHL SUB DUP3 AND SUB PUSH3 0x233 JUMPI PUSH1 0x40 MLOAD PUSH3 0x461BCD PUSH1 0xE5 SHL DUP2 MSTORE PUSH1 0x20 PUSH1 0x4 DUP3 ADD MSTORE PUSH1 0x17 PUSH1 0x24 DUP3 ADD MSTORE PUSH32 0x43616E6E6F74207472616E7366657220746F2073656C66000000000000000000 PUSH1 0x44 DUP3 ADD MSTORE PUSH1 0x64 ADD PUSH3 0x9F JUMP JUMPDEST PUSH1 0x1 DUP1 SLOAD PUSH1 0x1 PUSH1 0x1 PUSH1 0xA0 SHL SUB NOT AND PUSH1 0x1 PUSH1 0x1 PUSH1 0xA0 SHL SUB DUP4 DUP2 AND SWAP2 DUP3 OR SWAP1 SWAP3 SSTORE PUSH1 0x0 DUP1 SLOAD PUSH1 0x40 MLOAD SWAP3 SWAP4 AND SWAP2 PUSH32 0xED8889F560326EB138920D842192F0EB3DD22B4F139C87A2C57538E05BAE1278 SWAP2 SWAP1 LOG3 POP JUMP JUMPDEST DUP1 MLOAD PUSH1 0x1 PUSH1 0x1 PUSH1 0xA0 SHL SUB DUP2 AND DUP2 EQ PUSH3 0x29C JUMPI PUSH1 0x0 DUP1 REVERT JUMPDEST SWAP2 SWAP1 POP JUMP JUMPDEST PUSH1 0x0 DUP1 PUSH1 0x0 DUP1 PUSH1 0x80 DUP6 DUP8 SUB SLT ISZERO PUSH3 0x2B8 JUMPI PUSH1 0x0 DUP1 REVERT JUMPDEST PUSH3 0x2C3 DUP6 PUSH3 0x284 JUMP JUMPDEST SWAP4 POP PUSH3 0x2D3 PUSH1 0x20 DUP7 ADD PUSH3 0x284 JUMP JUMPDEST SWAP3 POP PUSH3 0x2E3 PUSH1 0x40 DUP7 ADD PUSH3 0x284 JUMP JUMPDEST PUSH1 0x60 SWAP6 SWAP1 SWAP6 ADD MLOAD SWAP4 SWAP7 SWAP3 SWAP6 POP POP POP JUMP JUMPDEST DUP1 MLOAD PUSH1 0x1 PUSH1 0x1 PUSH1 0x60 SHL SUB DUP2 AND DUP2 EQ PUSH3 0x29C JUMPI PUSH1 0x0 DUP1 REVERT JUMPDEST PUSH4 0x4E487B71 PUSH1 0xE0 SHL PUSH1 0x0 MSTORE PUSH1 0x41 PUSH1 0x4 MSTORE PUSH1 0x24 PUSH1 0x0 REVERT JUMPDEST PUSH1 0x0 DUP1 PUSH1 0x0 DUP1 PUSH1 0x0 PUSH1 0xA0 DUP7 DUP9 SUB SLT ISZERO PUSH3 0x33A JUMPI PUSH1 0x0 DUP1 REVERT JUMPDEST PUSH3 0x345 DUP7 PUSH3 0x2F3 JUMP JUMPDEST SWAP5 POP PUSH1 0x20 PUSH3 0x356 DUP2 DUP9 ADD PUSH3 0x2F3 JUMP JUMPDEST PUSH1 0x40 DUP9 ADD MLOAD SWAP1 SWAP6 POP PUSH1 0x1 PUSH1 0x1 PUSH1 0x40 SHL SUB DUP1 DUP3 AND DUP3 EQ PUSH3 0x375 JUMPI PUSH1 0x0 DUP1 REVERT JUMPDEST DUP2 SWAP6 POP PUSH3 0x386 PUSH1 0x60 DUP11 ADD PUSH3 0x284 JUMP JUMPDEST SWAP5 POP PUSH1 0x80 DUP10 ADD MLOAD SWAP2 POP DUP1 DUP3 GT ISZERO PUSH3 0x39D JUMPI PUSH1 0x0 DUP1 REVERT JUMPDEST DUP2 DUP10 ADD SWAP2 POP DUP10 PUSH1 0x1F DUP4 ADD SLT PUSH3 0x3B2 JUMPI PUSH1 0x0 DUP1 REVERT JUMPDEST DUP2 MLOAD DUP2 DUP2 GT ISZERO PUSH3 0x3C7 JUMPI PUSH3 0x3C7 PUSH3 0x30B JUMP JUMPDEST DUP1 PUSH1 0x5 SHL PUSH1 0x40 MLOAD PUSH1 0x1F NOT PUSH1 0x3F DUP4 ADD AND DUP2 ADD DUP2 DUP2 LT DUP6 DUP3 GT OR ISZERO PUSH3 0x3EF JUMPI PUSH3 0x3EF PUSH3 0x30B JUMP JUMPDEST PUSH1 0x40 MSTORE SWAP2 DUP3 MSTORE DUP5 DUP3 ADD SWAP3 POP DUP4 DUP2 ADD DUP6 ADD SWAP2 DUP13 DUP4 GT ISZERO PUSH3 0x40E JUMPI PUSH1 0x0 DUP1 REVERT JUMPDEST SWAP4 DUP6 ADD SWAP4 JUMPDEST DUP3 DUP6 LT ISZERO PUSH3 0x437 JUMPI PUSH3 0x427 DUP6 PUSH3 0x284 JUMP JUMPDEST DUP5 MSTORE SWAP4 DUP6 ADD SWAP4 SWAP3 DUP6 ADD SWAP3 PUSH3 0x413 JUMP JUMPDEST DUP1 SWAP7 POP POP POP POP POP POP POP SWAP3 SWAP6 POP SWAP3 SWAP6 SWAP1 SWAP4 POP JUMP JUMPDEST PUSH1 0x80 MLOAD PUSH1 0xA0 MLOAD PUSH1 0xC0 MLOAD PUSH2 0x3965 PUSH3 0x4A4 PUSH1 0x0 CODECOPY PUSH1 0x0 DUP2 DUP2 PUSH2 0x37E ADD MSTORE PUSH2 0x2284 ADD MSTORE PUSH1 0x0 DUP2 DUP2 PUSH2 0x2EA ADD MSTORE DUP2 DUP2 PUSH2 0x11F6 ADD MSTORE DUP2 DUP2 PUSH2 0x12C5 ADD MSTORE PUSH2 0x1C6F ADD MSTORE PUSH1 0x0 DUP2 DUP2 PUSH2 0x20B ADD MSTORE DUP2 DUP2 PUSH2 0x18C4 ADD MSTORE PUSH2 0x1E5C ADD MSTORE PUSH2 0x3965 PUSH1 0x0 RETURN INVALID PUSH1 0x80 PUSH1 0x40 MSTORE PUSH1 0x4 CALLDATASIZE LT PUSH2 0x1C1 JUMPI PUSH1 0x0 CALLDATALOAD PUSH1 0xE0 SHR DUP1 PUSH4 0x57A8070A GT PUSH2 0xF7 JUMPI DUP1 PUSH4 0xA4C0ED36 GT PUSH2 0x95 JUMPI DUP1 PUSH4 0xCDD8D885 GT PUSH2 0x64 JUMPI DUP1 PUSH4 0xCDD8D885 EQ PUSH2 0x741 JUMPI DUP1 PUSH4 0xE1CAB745 EQ PUSH2 0x77F JUMPI DUP1 PUSH4 0xF2FDE38B EQ PUSH2 0x79F JUMPI DUP1 PUSH4 0xFC2A88C3 EQ PUSH2 0x7BF JUMPI PUSH1 0x0 DUP1 REVERT JUMPDEST DUP1 PUSH4 0xA4C0ED36 EQ PUSH2 0x5B9 JUMPI DUP1 PUSH4 0xA608A1E1 EQ PUSH2 0x5D9 JUMPI DUP1 PUSH4 0xBF17E559 EQ PUSH2 0x60C JUMPI DUP1 PUSH4 0xC3F909D4 EQ PUSH2 0x62C JUMPI PUSH1 0x0 DUP1 REVERT JUMPDEST DUP1 PUSH4 0x8EA98117 GT PUSH2 0xD1 JUMPI DUP1 PUSH4 0x8EA98117 EQ PUSH2 0x544 JUMPI DUP1 PUSH4 0x9CFC058E EQ PUSH2 0x564 JUMPI DUP1 PUSH4 0x9ECCACF6 EQ PUSH2 0x577 JUMPI DUP1 PUSH4 0xA3907D71 EQ PUSH2 0x5A4 JUMPI PUSH1 0x0 DUP1 REVERT JUMPDEST DUP1 PUSH4 0x57A8070A EQ PUSH2 0x4C2 JUMPI DUP1 PUSH4 0x79BA5097 EQ PUSH2 0x504 JUMPI DUP1 PUSH4 0x8DA5CB5B EQ PUSH2 0x519 JUMPI PUSH1 0x0 DUP1 REVERT JUMPDEST DUP1 PUSH4 0x1FE543E3 GT PUSH2 0x164 JUMPI DUP1 PUSH4 0x2F2770DB GT PUSH2 0x13E JUMPI DUP1 PUSH4 0x2F2770DB EQ PUSH2 0x3A2 JUMPI DUP1 PUSH4 0x2F622E6B EQ PUSH2 0x3B7 JUMPI DUP1 PUSH4 0x48BAA1C5 EQ PUSH2 0x3D7 JUMPI DUP1 PUSH4 0x51CFF8D9 EQ PUSH2 0x4A2 JUMPI PUSH1 0x0 DUP1 REVERT JUMPDEST DUP1 PUSH4 0x1FE543E3 EQ PUSH2 0x32F JUMPI DUP1 PUSH4 0x27E5C50A EQ PUSH2 0x34F JUMPI DUP1 PUSH4 0x2808E6C8 EQ PUSH2 0x36F JUMPI PUSH1 0x0 DUP1 REVERT JUMPDEST DUP1 PUSH4 0x13C34B7F GT PUSH2 0x1A0 JUMPI DUP1 PUSH4 0x13C34B7F EQ PUSH2 0x24F JUMPI DUP1 PUSH4 0x181F5A77 EQ PUSH2 0x26F JUMPI DUP1 PUSH4 0x18B6F4C8 EQ PUSH2 0x2BB JUMPI DUP1 PUSH4 0x1C4695F4 EQ PUSH2 0x2DB JUMPI PUSH1 0x0 DUP1 REVERT JUMPDEST DUP1 PUSH3 0x26501B EQ PUSH2 0x1C6 JUMPI DUP1 PUSH4 0x30932BB EQ PUSH2 0x1F9 JUMPI DUP1 PUSH4 0x45343AA EQ PUSH2 0x22D JUMPI JUMPDEST PUSH1 0x0 DUP1 REVERT JUMPDEST CALLVALUE DUP1 ISZERO PUSH2 0x1D2 JUMPI PUSH1 0x0 DUP1 REVERT JUMPDEST POP PUSH2 0x1E6 PUSH2 0x1E1 CALLDATASIZE PUSH1 0x4 PUSH2 0x2E80 JUMP JUMPDEST PUSH2 0x7D5 JUMP JUMPDEST PUSH1 0x40 MLOAD SWAP1 DUP2 MSTORE PUSH1 0x20 ADD JUMPDEST PUSH1 0x40 MLOAD DUP1 SWAP2 SUB SWAP1 RETURN JUMPDEST CALLVALUE DUP1 ISZERO PUSH2 0x205 JUMPI PUSH1 0x0 DUP1 REVERT JUMPDEST POP PUSH2 0x1E6 PUSH32 0x0 DUP2 JUMP JUMPDEST CALLVALUE DUP1 ISZERO PUSH2 0x239 JUMPI PUSH1 0x0 DUP1 REVERT JUMPDEST POP PUSH2 0x24D PUSH2 0x248 CALLDATASIZE PUSH1 0x4 PUSH2 0x2EDF JUMP JUMPDEST PUSH2 0x90F JUMP JUMPDEST STOP JUMPDEST CALLVALUE DUP1 ISZERO PUSH2 0x25B JUMPI PUSH1 0x0 DUP1 REVERT JUMPDEST POP PUSH2 0x1E6 PUSH2 0x26A CALLDATASIZE PUSH1 0x4 PUSH2 0x2FAD JUMP JUMPDEST PUSH2 0xBCB JUMP JUMPDEST CALLVALUE DUP1 ISZERO PUSH2 0x27B JUMPI PUSH1 0x0 DUP1 REVERT JUMPDEST POP PUSH1 0x40 DUP1 MLOAD DUP1 DUP3 ADD DUP3 MSTORE PUSH1 0x16 DUP2 MSTORE PUSH32 0x5652465632506C75735772617070657220312E302E3000000000000000000000 PUSH1 0x20 DUP3 ADD MSTORE SWAP1 MLOAD PUSH2 0x1F0 SWAP2 SWAP1 PUSH2 0x3044 JUMP JUMPDEST CALLVALUE DUP1 ISZERO PUSH2 0x2C7 JUMPI PUSH1 0x0 DUP1 REVERT JUMPDEST POP PUSH2 0x24D PUSH2 0x2D6 CALLDATASIZE PUSH1 0x4 PUSH2 0x313F JUMP JUMPDEST PUSH2 0xCF2 JUMP JUMPDEST CALLVALUE DUP1 ISZERO PUSH2 0x2E7 JUMPI PUSH1 0x0 DUP1 REVERT JUMPDEST POP PUSH32 0x0 JUMPDEST PUSH1 0x40 MLOAD PUSH20 0xFFFFFFFFFFFFFFFFFFFFFFFFFFFFFFFFFFFFFFFF SWAP1 SWAP2 AND DUP2 MSTORE PUSH1 0x20 ADD PUSH2 0x1F0 JUMP JUMPDEST CALLVALUE DUP1 ISZERO PUSH2 0x33B JUMPI PUSH1 0x0 DUP1 REVERT JUMPDEST POP PUSH2 0x24D PUSH2 0x34A CALLDATASIZE PUSH1 0x4 PUSH2 0x3191 JUMP JUMPDEST PUSH2 0xE71 JUMP JUMPDEST CALLVALUE DUP1 ISZERO PUSH2 0x35B JUMPI PUSH1 0x0 DUP1 REVERT JUMPDEST POP PUSH2 0x1E6 PUSH2 0x36A CALLDATASIZE PUSH1 0x4 PUSH2 0x2FAD JUMP JUMPDEST PUSH2 0xEEF JUMP JUMPDEST CALLVALUE DUP1 ISZERO PUSH2 0x37B JUMPI PUSH1 0x0 DUP1 REVERT JUMPDEST POP PUSH32 0x0 PUSH2 0x30A JUMP JUMPDEST CALLVALUE DUP1 ISZERO PUSH2 0x3AE JUMPI PUSH1 0x0 DUP1 REVERT JUMPDEST POP PUSH2 0x24D PUSH2 0x1023 JUMP JUMPDEST CALLVALUE DUP1 ISZERO PUSH2 0x3C3 JUMPI PUSH1 0x0 DUP1 REVERT JUMPDEST POP PUSH2 0x24D PUSH2 0x3D2 CALLDATASIZE PUSH1 0x4 PUSH2 0x3234 JUMP JUMPDEST PUSH2 0x1096 JUMP JUMPDEST CALLVALUE DUP1 ISZERO PUSH2 0x3E3 JUMPI PUSH1 0x0 DUP1 REVERT JUMPDEST POP PUSH2 0x461 PUSH2 0x3F2 CALLDATASIZE PUSH1 0x4 PUSH2 0x324F JUMP JUMPDEST PUSH1 0x7 PUSH1 0x20 MSTORE PUSH1 0x0 SWAP1 DUP2 MSTORE PUSH1 0x40 SWAP1 KECCAK256 SLOAD PUSH20 0xFFFFFFFFFFFFFFFFFFFFFFFFFFFFFFFFFFFFFFFF DUP2 AND SWAP1 PUSH21 0x10000000000000000000000000000000000000000 DUP2 DIV PUSH4 0xFFFFFFFF AND SWAP1 PUSH25 0x1000000000000000000000000000000000000000000000000 SWAP1 DIV PUSH8 0xFFFFFFFFFFFFFFFF AND DUP4 JUMP JUMPDEST PUSH1 0x40 DUP1 MLOAD PUSH20 0xFFFFFFFFFFFFFFFFFFFFFFFFFFFFFFFFFFFFFFFF SWAP1 SWAP5 AND DUP5 MSTORE PUSH4 0xFFFFFFFF SWAP1 SWAP3 AND PUSH1 0x20 DUP5 ADD MSTORE PUSH8 0xFFFFFFFFFFFFFFFF AND SWAP1 DUP3 ADD MSTORE PUSH1 0x60 ADD PUSH2 0x1F0 JUMP JUMPDEST CALLVALUE DUP1 ISZERO PUSH2 0x4AE JUMPI PUSH1 0x0 DUP1 REVERT JUMPDEST POP PUSH2 0x24D PUSH2 0x4BD CALLDATASIZE PUSH1 0x4 PUSH2 0x3234 JUMP JUMPDEST PUSH2 0x11BD JUMP JUMPDEST CALLVALUE DUP1 ISZERO PUSH2 0x4CE JUMPI PUSH1 0x0 DUP1 REVERT JUMPDEST POP PUSH1 0x2 SLOAD PUSH2 0x4F4 SWAP1 PUSH21 0x10000000000000000000000000000000000000000 SWAP1 DIV PUSH1 0xFF AND DUP2 JUMP JUMPDEST PUSH1 0x40 MLOAD SWAP1 ISZERO ISZERO DUP2 MSTORE PUSH1 0x20 ADD PUSH2 0x1F0 JUMP JUMPDEST CALLVALUE DUP1 ISZERO PUSH2 0x510 JUMPI PUSH1 0x0 DUP1 REVERT JUMPDEST POP PUSH2 0x24D PUSH2 0x13BE JUMP JUMPDEST CALLVALUE DUP1 ISZERO PUSH2 0x525 JUMPI PUSH1 0x0 DUP1 REVERT JUMPDEST POP PUSH1 0x0 SLOAD PUSH20 0xFFFFFFFFFFFFFFFFFFFFFFFFFFFFFFFFFFFFFFFF AND PUSH2 0x30A JUMP JUMPDEST CALLVALUE DUP1 ISZERO PUSH2 0x550 JUMPI PUSH1 0x0 DUP1 REVERT JUMPDEST POP PUSH2 0x24D PUSH2 0x55F CALLDATASIZE PUSH1 0x4 PUSH2 0x3234 JUMP JUMPDEST PUSH2 0x14BB JUMP JUMPDEST PUSH2 0x1E6 PUSH2 0x572 CALLDATASIZE PUSH1 0x4 PUSH2 0x32B1 JUMP JUMPDEST PUSH2 0x1646 JUMP JUMPDEST CALLVALUE DUP1 ISZERO PUSH2 0x583 JUMPI PUSH1 0x0 DUP1 REVERT JUMPDEST POP PUSH1 0x2 SLOAD PUSH2 0x30A SWAP1 PUSH20 0xFFFFFFFFFFFFFFFFFFFFFFFFFFFFFFFFFFFFFFFF AND DUP2 JUMP JUMPDEST CALLVALUE DUP1 ISZERO PUSH2 0x5B0 JUMPI PUSH1 0x0 DUP1 REVERT JUMPDEST POP PUSH2 0x24D PUSH2 0x1AF2 JUMP JUMPDEST CALLVALUE DUP1 ISZERO PUSH2 0x5C5 JUMPI PUSH1 0x0 DUP1 REVERT JUMPDEST POP PUSH2 0x24D PUSH2 0x5D4 CALLDATASIZE PUSH1 0x4 PUSH2 0x3327 JUMP JUMPDEST PUSH2 0x1B4D JUMP JUMPDEST CALLVALUE DUP1 ISZERO PUSH2 0x5E5 JUMPI PUSH1 0x0 DUP1 REVERT JUMPDEST POP PUSH1 0x2 SLOAD PUSH2 0x4F4 SWAP1 PUSH22 0x1000000000000000000000000000000000000000000 SWAP1 DIV PUSH1 0xFF AND DUP2 JUMP JUMPDEST CALLVALUE DUP1 ISZERO PUSH2 0x618 JUMPI PUSH1 0x0 DUP1 REVERT JUMPDEST POP PUSH2 0x24D PUSH2 0x627 CALLDATASIZE PUSH1 0x4 PUSH2 0x3381 JUMP JUMPDEST PUSH2 0x20BB JUMP JUMPDEST CALLVALUE DUP1 ISZERO PUSH2 0x638 JUMPI PUSH1 0x0 DUP1 REVERT JUMPDEST POP PUSH1 0x5 SLOAD PUSH1 0x6 SLOAD PUSH1 0x3 SLOAD PUSH1 0x2 SLOAD PUSH1 0x40 MLOAD PUSH2 0x1F0 SWAP5 SWAP4 PUSH4 0xFFFFFFFF DUP1 DUP3 AND SWAP5 PUSH23 0x100000000000000000000000000000000000000000000 DUP1 DUP5 DIV DUP4 AND SWAP6 PUSH27 0x10000000000000000000000000000000000000000000000000000 DUP6 DIV DUP5 AND SWAP6 PUSH5 0x100000000 DUP7 DIV DUP6 AND SWAP6 PUSH13 0x1000000000000000000000000 DUP2 DIV DUP7 AND SWAP6 PUSH17 0x100000000000000000000000000000000 DUP3 DIV AND SWAP5 PUSH2 0xFFFF PUSH21 0x10000000000000000000000000000000000000000 DUP4 DIV AND SWAP5 PUSH1 0xFF PUSH31 0x1000000000000000000000000000000000000000000000000000000000000 DUP5 DIV DUP2 AND SWAP6 PUSH32 0x100000000000000000000000000000000000000000000000000000000000000 SWAP1 SWAP5 DIV DUP2 AND SWAP5 SWAP3 SWAP4 SWAP2 SWAP1 SWAP2 DIV AND SWAP1 PUSH2 0x339C JUMP JUMPDEST CALLVALUE DUP1 ISZERO PUSH2 0x74D JUMPI PUSH1 0x0 DUP1 REVERT JUMPDEST POP PUSH1 0x6 SLOAD PUSH2 0x76A SWAP1 PUSH9 0x10000000000000000 SWAP1 DIV PUSH4 0xFFFFFFFF AND DUP2 JUMP JUMPDEST PUSH1 0x40 MLOAD PUSH4 0xFFFFFFFF SWAP1 SWAP2 AND DUP2 MSTORE PUSH1 0x20 ADD PUSH2 0x1F0 JUMP JUMPDEST CALLVALUE DUP1 ISZERO PUSH2 0x78B JUMPI PUSH1 0x0 DUP1 REVERT JUMPDEST POP PUSH2 0x1E6 PUSH2 0x79A CALLDATASIZE PUSH1 0x4 PUSH2 0x2E80 JUMP JUMPDEST PUSH2 0x2134 JUMP JUMPDEST CALLVALUE DUP1 ISZERO PUSH2 0x7AB JUMPI PUSH1 0x0 DUP1 REVERT JUMPDEST POP PUSH2 0x24D PUSH2 0x7BA CALLDATASIZE PUSH1 0x4 PUSH2 0x3234 JUMP JUMPDEST PUSH2 0x2252 JUMP JUMPDEST CALLVALUE DUP1 ISZERO PUSH2 0x7CB JUMPI PUSH1 0x0 DUP1 REVERT JUMPDEST POP PUSH2 0x1E6 PUSH1 0x4 SLOAD DUP2 JUMP JUMPDEST PUSH1 0x2 SLOAD PUSH1 0x0 SWAP1 PUSH21 0x10000000000000000000000000000000000000000 SWAP1 DIV PUSH1 0xFF AND PUSH2 0x861 JUMPI PUSH1 0x40 MLOAD PUSH32 0x8C379A000000000000000000000000000000000000000000000000000000000 DUP2 MSTORE PUSH1 0x20 PUSH1 0x4 DUP3 ADD MSTORE PUSH1 0x19 PUSH1 0x24 DUP3 ADD MSTORE PUSH32 0x77726170706572206973206E6F7420636F6E6669677572656400000000000000 PUSH1 0x44 DUP3 ADD MSTORE PUSH1 0x64 ADD JUMPDEST PUSH1 0x40 MLOAD DUP1 SWAP2 SUB SWAP1 REVERT JUMPDEST PUSH1 0x2 SLOAD PUSH22 0x1000000000000000000000000000000000000000000 SWAP1 DIV PUSH1 0xFF AND ISZERO PUSH2 0x8E7 JUMPI PUSH1 0x40 MLOAD PUSH32 0x8C379A000000000000000000000000000000000000000000000000000000000 DUP2 MSTORE PUSH1 0x20 PUSH1 0x4 DUP3 ADD MSTORE PUSH1 0x13 PUSH1 0x24 DUP3 ADD MSTORE PUSH32 0x777261707065722069732064697361626C656400000000000000000000000000 PUSH1 0x44 DUP3 ADD MSTORE PUSH1 0x64 ADD PUSH2 0x858 JUMP JUMPDEST PUSH1 0x0 PUSH2 0x8F1 PUSH2 0x2266 JUMP JUMPDEST POP SWAP1 POP PUSH2 0x906 DUP6 PUSH4 0xFFFFFFFF AND DUP6 DUP6 DUP5 PUSH2 0x23BC JUMP JUMPDEST SWAP6 SWAP5 POP POP POP POP POP JUMP JUMPDEST PUSH2 0x917 PUSH2 0x2523 JUMP JUMPDEST DUP2 PUSH4 0xFFFFFFFF AND DUP2 PUSH4 0xFFFFFFFF AND GT ISZERO PUSH2 0x96D JUMPI PUSH1 0x40 MLOAD PUSH32 0x2780DCB200000000000000000000000000000000000000000000000000000000 DUP2 MSTORE PUSH4 0xFFFFFFFF DUP1 DUP4 AND PUSH1 0x4 DUP4 ADD MSTORE DUP4 AND PUSH1 0x24 DUP3 ADD MSTORE PUSH1 0x44 ADD PUSH2 0x858 JUMP JUMPDEST PUSH1 0x9B PUSH1 0xFF DUP10 AND GT ISZERO PUSH2 0x9B7 JUMPI PUSH1 0x40 MLOAD PUSH32 0x3ACC511A00000000000000000000000000000000000000000000000000000000 DUP2 MSTORE PUSH1 0xFF DUP10 AND PUSH1 0x4 DUP3 ADD MSTORE PUSH1 0x9B PUSH1 0x24 DUP3 ADD MSTORE PUSH1 0x44 ADD PUSH2 0x858 JUMP JUMPDEST PUSH1 0x9B PUSH1 0xFF DUP9 AND GT ISZERO PUSH2 0xA01 JUMPI PUSH1 0x40 MLOAD PUSH32 0x3ACC511A00000000000000000000000000000000000000000000000000000000 DUP2 MSTORE PUSH1 0xFF DUP9 AND PUSH1 0x4 DUP3 ADD MSTORE PUSH1 0x9B PUSH1 0x24 DUP3 ADD MSTORE PUSH1 0x44 ADD PUSH2 0x858 JUMP JUMPDEST DUP12 PUSH1 0x6 PUSH1 0x4 PUSH2 0x100 EXP DUP2 SLOAD DUP2 PUSH4 0xFFFFFFFF MUL NOT AND SWAP1 DUP4 PUSH4 0xFFFFFFFF AND MUL OR SWAP1 SSTORE POP DUP11 PUSH1 0x6 PUSH1 0xC PUSH2 0x100 EXP DUP2 SLOAD DUP2 PUSH4 0xFFFFFFFF MUL NOT AND SWAP1 DUP4 PUSH4 0xFFFFFFFF AND MUL OR SWAP1 SSTORE POP DUP10 PUSH1 0x6 PUSH1 0x10 PUSH2 0x100 EXP DUP2 SLOAD DUP2 PUSH4 0xFFFFFFFF MUL NOT AND SWAP1 DUP4 PUSH4 0xFFFFFFFF AND MUL OR SWAP1 SSTORE POP DUP9 PUSH1 0x6 PUSH1 0x14 PUSH2 0x100 EXP DUP2 SLOAD DUP2 PUSH2 0xFFFF MUL NOT AND SWAP1 DUP4 PUSH2 0xFFFF AND MUL OR SWAP1 SSTORE POP DUP8 PUSH1 0x6 PUSH1 0x1E PUSH2 0x100 EXP DUP2 SLOAD DUP2 PUSH1 0xFF MUL NOT AND SWAP1 DUP4 PUSH1 0xFF AND MUL OR SWAP1 SSTORE POP DUP7 PUSH1 0x6 PUSH1 0x1F PUSH2 0x100 EXP DUP2 SLOAD DUP2 PUSH1 0xFF MUL NOT AND SWAP1 DUP4 PUSH1 0xFF AND MUL OR SWAP1 SSTORE POP DUP6 PUSH1 0x3 DUP2 SWAP1 SSTORE POP DUP5 PUSH1 0x2 PUSH1 0x16 PUSH2 0x100 EXP DUP2 SLOAD DUP2 PUSH1 0xFF MUL NOT AND SWAP1 DUP4 PUSH1 0xFF AND MUL OR SWAP1 SSTORE POP PUSH1 0x1 PUSH1 0x2 PUSH1 0x14 PUSH2 0x100 EXP DUP2 SLOAD DUP2 PUSH1 0xFF MUL NOT AND SWAP1 DUP4 ISZERO ISZERO MUL OR SWAP1 SSTORE POP DUP4 PUSH1 0x6 PUSH1 0x0 PUSH2 0x100 EXP DUP2 SLOAD DUP2 PUSH4 0xFFFFFFFF MUL NOT AND SWAP1 DUP4 PUSH4 0xFFFFFFFF AND MUL OR SWAP1 SSTORE POP DUP3 PUSH1 0x5 DUP2 SWAP1 SSTORE POP DUP2 PUSH1 0x6 PUSH1 0x16 PUSH2 0x100 EXP DUP2 SLOAD DUP2 PUSH4 0xFFFFFFFF MUL NOT AND SWAP1 DUP4 PUSH4 0xFFFFFFFF AND MUL OR SWAP1 SSTORE POP DUP1 PUSH1 0x6 PUSH1 0x1A PUSH2 0x100 EXP DUP2 SLOAD DUP2 PUSH4 0xFFFFFFFF MUL NOT AND SWAP1 DUP4 PUSH4 0xFFFFFFFF AND MUL OR SWAP1 SSTORE POP PUSH32 0x8AEE1A8C131EAF1A5BD30594737B6926A7C5CB29281A97639F6AC93947C8995E DUP13 DUP13 DUP13 DUP13 DUP13 DUP13 DUP13 DUP13 DUP13 DUP13 DUP13 PUSH1 0x6 PUSH1 0x1A SWAP1 SLOAD SWAP1 PUSH2 0x100 EXP SWAP1 DIV PUSH4 0xFFFFFFFF AND PUSH1 0x40 MLOAD PUSH2 0xBB5 SWAP13 SWAP12 SWAP11 SWAP10 SWAP9 SWAP8 SWAP7 SWAP6 SWAP5 SWAP4 SWAP3 SWAP2 SWAP1 PUSH2 0x341D JUMP JUMPDEST PUSH1 0x40 MLOAD DUP1 SWAP2 SUB SWAP1 LOG1 POP POP POP POP POP POP POP POP POP POP POP POP JUMP JUMPDEST PUSH1 0x2 SLOAD PUSH1 0x0 SWAP1 PUSH21 0x10000000000000000000000000000000000000000 SWAP1 DIV PUSH1 0xFF AND PUSH2 0xC52 JUMPI PUSH1 0x40 MLOAD PUSH32 0x8C379A000000000000000000000000000000000000000000000000000000000 DUP2 MSTORE PUSH1 0x20 PUSH1 0x4 DUP3 ADD MSTORE PUSH1 0x19 PUSH1 0x24 DUP3 ADD MSTORE PUSH32 0x77726170706572206973206E6F7420636F6E6669677572656400000000000000 PUSH1 0x44 DUP3 ADD MSTORE PUSH1 0x64 ADD PUSH2 0x858 JUMP JUMPDEST PUSH1 0x2 SLOAD PUSH22 0x1000000000000000000000000000000000000000000 SWAP1 DIV PUSH1 0xFF AND ISZERO PUSH2 0xCD8 JUMPI PUSH1 0x40 MLOAD PUSH32 0x8C379A000000000000000000000000000000000000000000000000000000000 DUP2 MSTORE PUSH1 0x20 PUSH1 0x4 DUP3 ADD MSTORE PUSH1 0x13 PUSH1 0x24 DUP3 ADD MSTORE PUSH32 0x777261707065722069732064697361626C656400000000000000000000000000 PUSH1 0x44 DUP3 ADD MSTORE PUSH1 0x64 ADD PUSH2 0x858 JUMP JUMPDEST PUSH2 0xCE9 DUP4 PUSH4 0xFFFFFFFF AND DUP4 GASPRICE PUSH2 0x25A6 JUMP JUMPDEST SWAP1 POP JUMPDEST SWAP3 SWAP2 POP POP JUMP JUMPDEST DUP2 MLOAD PUSH1 0x0 SUB PUSH2 0xD36 JUMPI DUP1 PUSH2 0xD32 JUMPI PUSH1 0x40 MLOAD PUSH32 0x6B81746E00000000000000000000000000000000000000000000000000000000 DUP2 MSTORE PUSH1 0x4 ADD PUSH1 0x40 MLOAD DUP1 SWAP2 SUB SWAP1 REVERT JUMPDEST POP POP JUMP JUMPDEST DUP2 MLOAD PUSH1 0x24 GT ISZERO PUSH2 0xD87 JUMPI DUP2 MLOAD PUSH1 0x40 MLOAD PUSH32 0x51200DCE00000000000000000000000000000000000000000000000000000000 DUP2 MSTORE PUSH2 0x858 SWAP2 PUSH1 0x24 SWAP2 PUSH1 0x4 ADD PUSH2 0xFFFF SWAP3 DUP4 AND DUP2 MSTORE SWAP2 AND PUSH1 0x20 DUP3 ADD MSTORE PUSH1 0x40 ADD SWAP1 JUMP JUMPDEST PUSH1 0x0 DUP3 PUSH1 0x23 DUP2 MLOAD DUP2 LT PUSH2 0xD9C JUMPI PUSH2 0xD9C PUSH2 0x349A JUMP JUMPDEST PUSH1 0x20 SWAP2 ADD ADD MLOAD PUSH32 0xFF00000000000000000000000000000000000000000000000000000000000000 AND PUSH32 0x100000000000000000000000000000000000000000000000000000000000000 EQ SWAP1 POP DUP1 DUP1 ISZERO PUSH2 0xDF2 JUMPI POP DUP2 JUMPDEST ISZERO PUSH2 0xE29 JUMPI PUSH1 0x40 MLOAD PUSH32 0x6048AA6800000000000000000000000000000000000000000000000000000000 DUP2 MSTORE PUSH1 0x4 ADD PUSH1 0x40 MLOAD DUP1 SWAP2 SUB SWAP1 REVERT JUMPDEST DUP1 ISZERO DUP1 ISZERO PUSH2 0xE35 JUMPI POP DUP2 ISZERO JUMPDEST ISZERO PUSH2 0xE6C JUMPI PUSH1 0x40 MLOAD PUSH32 0x6B81746E00000000000000000000000000000000000000000000000000000000 DUP2 MSTORE PUSH1 0x4 ADD PUSH1 0x40 MLOAD DUP1 SWAP2 SUB SWAP1 REVERT JUMPDEST POP POP POP JUMP JUMPDEST PUSH1 0x2 SLOAD PUSH20 0xFFFFFFFFFFFFFFFFFFFFFFFFFFFFFFFFFFFFFFFF AND CALLER EQ PUSH2 0xEE4 JUMPI PUSH1 0x2 SLOAD PUSH1 0x40 MLOAD PUSH32 0x1CF993F400000000000000000000000000000000000000000000000000000000 DUP2 MSTORE CALLER PUSH1 0x4 DUP3 ADD MSTORE PUSH20 0xFFFFFFFFFFFFFFFFFFFFFFFFFFFFFFFFFFFFFFFF SWAP1 SWAP2 AND PUSH1 0x24 DUP3 ADD MSTORE PUSH1 0x44 ADD PUSH2 0x858 JUMP JUMPDEST PUSH2 0xE6C DUP4 DUP4 DUP4 PUSH2 0x26BE JUMP JUMPDEST PUSH1 0x2 SLOAD PUSH1 0x0 SWAP1 PUSH21 0x10000000000000000000000000000000000000000 SWAP1 DIV PUSH1 0xFF AND PUSH2 0xF76 JUMPI PUSH1 0x40 MLOAD PUSH32 0x8C379A000000000000000000000000000000000000000000000000000000000 DUP2 MSTORE PUSH1 0x20 PUSH1 0x4 DUP3 ADD MSTORE PUSH1 0x19 PUSH1 0x24 DUP3 ADD MSTORE PUSH32 0x77726170706572206973206E6F7420636F6E6669677572656400000000000000 PUSH1 0x44 DUP3 ADD MSTORE PUSH1 0x64 ADD PUSH2 0x858 JUMP JUMPDEST PUSH1 0x2 SLOAD PUSH22 0x1000000000000000000000000000000000000000000 SWAP1 DIV PUSH1 0xFF AND ISZERO PUSH2 0xFFC JUMPI PUSH1 0x40 MLOAD PUSH32 0x8C379A000000000000000000000000000000000000000000000000000000000 DUP2 MSTORE PUSH1 0x20 PUSH1 0x4 DUP3 ADD MSTORE PUSH1 0x13 PUSH1 0x24 DUP3 ADD MSTORE PUSH32 0x777261707065722069732064697361626C656400000000000000000000000000 PUSH1 0x44 DUP3 ADD MSTORE PUSH1 0x64 ADD PUSH2 0x858 JUMP JUMPDEST PUSH1 0x0 PUSH2 0x1006 PUSH2 0x2266 JUMP JUMPDEST POP SWAP1 POP PUSH2 0x101B DUP5 PUSH4 0xFFFFFFFF AND DUP5 GASPRICE DUP5 PUSH2 0x23BC JUMP JUMPDEST SWAP5 SWAP4 POP POP POP POP JUMP JUMPDEST PUSH2 0x102B PUSH2 0x2523 JUMP JUMPDEST PUSH1 0x2 DUP1 SLOAD PUSH32 0xFFFFFFFFFFFFFFFFFFFF00FFFFFFFFFFFFFFFFFFFFFFFFFFFFFFFFFFFFFFFFFF AND PUSH22 0x1000000000000000000000000000000000000000000 OR SWAP1 SSTORE PUSH1 0x40 MLOAD PUSH32 0x75884CDADC4A89E8B545DB800057F06EC7F5338A08183C7BA515F2BFDD9FE1E1 SWAP1 PUSH1 0x0 SWAP1 LOG1 JUMP JUMPDEST PUSH2 0x109E PUSH2 0x2523 JUMP JUMPDEST PUSH1 0x40 MLOAD SELFBALANCE SWAP1 PUSH1 0x0 SWAP1 PUSH20 0xFFFFFFFFFFFFFFFFFFFFFFFFFFFFFFFFFFFFFFFF DUP5 AND SWAP1 DUP4 SWAP1 DUP4 DUP2 DUP2 DUP2 DUP6 DUP8 GAS CALL SWAP3 POP POP POP RETURNDATASIZE DUP1 PUSH1 0x0 DUP2 EQ PUSH2 0x10F8 JUMPI PUSH1 0x40 MLOAD SWAP2 POP PUSH1 0x1F NOT PUSH1 0x3F RETURNDATASIZE ADD AND DUP3 ADD PUSH1 0x40 MSTORE RETURNDATASIZE DUP3 MSTORE RETURNDATASIZE PUSH1 0x0 PUSH1 0x20 DUP5 ADD RETURNDATACOPY PUSH2 0x10FD JUMP JUMPDEST PUSH1 0x60 SWAP2 POP JUMPDEST POP POP SWAP1 POP DUP1 PUSH2 0x1168 JUMPI PUSH1 0x40 MLOAD PUSH32 0x8C379A000000000000000000000000000000000000000000000000000000000 DUP2 MSTORE PUSH1 0x20 PUSH1 0x4 DUP3 ADD MSTORE PUSH1 0x19 PUSH1 0x24 DUP3 ADD MSTORE PUSH32 0x6661696C656420746F207769746864726177206E617469766500000000000000 PUSH1 0x44 DUP3 ADD MSTORE PUSH1 0x64 ADD PUSH2 0x858 JUMP JUMPDEST DUP3 PUSH20 0xFFFFFFFFFFFFFFFFFFFFFFFFFFFFFFFFFFFFFFFF AND PUSH32 0xC303CA808382409472ACBBF899C316CF439F409F6584AAE22DF86DFA3C9ED504 DUP4 PUSH1 0x40 MLOAD PUSH2 0x11B0 SWAP2 DUP2 MSTORE PUSH1 0x20 ADD SWAP1 JUMP JUMPDEST PUSH1 0x40 MLOAD DUP1 SWAP2 SUB SWAP1 LOG2 POP POP POP JUMP JUMPDEST PUSH2 0x11C5 PUSH2 0x2523 JUMP JUMPDEST PUSH1 0x40 MLOAD PUSH32 0x70A0823100000000000000000000000000000000000000000000000000000000 DUP2 MSTORE ADDRESS PUSH1 0x4 DUP3 ADD MSTORE PUSH1 0x0 SWAP1 PUSH32 0x0 PUSH20 0xFFFFFFFFFFFFFFFFFFFFFFFFFFFFFFFFFFFFFFFF AND SWAP1 PUSH4 0x70A08231 SWAP1 PUSH1 0x24 ADD PUSH1 0x20 PUSH1 0x40 MLOAD DUP1 DUP4 SUB DUP2 DUP7 GAS STATICCALL ISZERO DUP1 ISZERO PUSH2 0x1252 JUMPI RETURNDATASIZE PUSH1 0x0 DUP1 RETURNDATACOPY RETURNDATASIZE PUSH1 0x0 REVERT JUMPDEST POP POP POP POP PUSH1 0x40 MLOAD RETURNDATASIZE PUSH1 0x1F NOT PUSH1 0x1F DUP3 ADD AND DUP3 ADD DUP1 PUSH1 0x40 MSTORE POP DUP2 ADD SWAP1 PUSH2 0x1276 SWAP2 SWAP1 PUSH2 0x34C9 JUMP JUMPDEST PUSH1 0x40 MLOAD PUSH32 0xA9059CBB00000000000000000000000000000000000000000000000000000000 DUP2 MSTORE PUSH20 0xFFFFFFFFFFFFFFFFFFFFFFFFFFFFFFFFFFFFFFFF DUP5 DUP2 AND PUSH1 0x4 DUP4 ADD MSTORE PUSH1 0x24 DUP3 ADD DUP4 SWAP1 MSTORE SWAP2 SWAP3 POP PUSH32 0x0 SWAP1 SWAP2 AND SWAP1 PUSH4 0xA9059CBB SWAP1 PUSH1 0x44 ADD PUSH1 0x20 PUSH1 0x40 MLOAD DUP1 DUP4 SUB DUP2 PUSH1 0x0 DUP8 GAS CALL ISZERO DUP1 ISZERO PUSH2 0x1310 JUMPI RETURNDATASIZE PUSH1 0x0 DUP1 RETURNDATACOPY RETURNDATASIZE PUSH1 0x0 REVERT JUMPDEST POP POP POP POP PUSH1 0x40 MLOAD RETURNDATASIZE PUSH1 0x1F NOT PUSH1 0x1F DUP3 ADD AND DUP3 ADD DUP1 PUSH1 0x40 MSTORE POP DUP2 ADD SWAP1 PUSH2 0x1334 SWAP2 SWAP1 PUSH2 0x34E2 JUMP JUMPDEST PUSH2 0x136A JUMPI PUSH1 0x40 MLOAD PUSH32 0x7C07FC4C00000000000000000000000000000000000000000000000000000000 DUP2 MSTORE PUSH1 0x4 ADD PUSH1 0x40 MLOAD DUP1 SWAP2 SUB SWAP1 REVERT JUMPDEST DUP2 PUSH20 0xFFFFFFFFFFFFFFFFFFFFFFFFFFFFFFFFFFFFFFFF AND PUSH32 0x7084F5476618D8E60B11EF0D7D3F06914655ADB8793E28FF7F018D4C76D505D5 DUP3 PUSH1 0x40 MLOAD PUSH2 0x13B2 SWAP2 DUP2 MSTORE PUSH1 0x20 ADD SWAP1 JUMP JUMPDEST PUSH1 0x40 MLOAD DUP1 SWAP2 SUB SWAP1 LOG2 POP POP JUMP JUMPDEST PUSH1 0x1 SLOAD PUSH20 0xFFFFFFFFFFFFFFFFFFFFFFFFFFFFFFFFFFFFFFFF AND CALLER EQ PUSH2 0x143F JUMPI PUSH1 0x40 MLOAD PUSH32 0x8C379A000000000000000000000000000000000000000000000000000000000 DUP2 MSTORE PUSH1 0x20 PUSH1 0x4 DUP3 ADD MSTORE PUSH1 0x16 PUSH1 0x24 DUP3 ADD MSTORE PUSH32 0x4D7573742062652070726F706F736564206F776E657200000000000000000000 PUSH1 0x44 DUP3 ADD MSTORE PUSH1 0x64 ADD PUSH2 0x858 JUMP JUMPDEST PUSH1 0x0 DUP1 SLOAD CALLER PUSH32 0xFFFFFFFFFFFFFFFFFFFFFFFF0000000000000000000000000000000000000000 DUP1 DUP4 AND DUP3 OR DUP5 SSTORE PUSH1 0x1 DUP1 SLOAD SWAP1 SWAP2 AND SWAP1 SSTORE PUSH1 0x40 MLOAD PUSH20 0xFFFFFFFFFFFFFFFFFFFFFFFFFFFFFFFFFFFFFFFF SWAP1 SWAP3 AND SWAP3 SWAP1 SWAP2 DUP4 SWAP2 PUSH32 0x8BE0079C531659141344CD1FD0A4F28419497F9722A3DAAFE3B4186F6B6457E0 SWAP2 LOG3 POP JUMP JUMPDEST PUSH1 0x0 SLOAD PUSH20 0xFFFFFFFFFFFFFFFFFFFFFFFFFFFFFFFFFFFFFFFF AND CALLER EQ DUP1 ISZERO SWAP1 PUSH2 0x14FB JUMPI POP PUSH1 0x2 SLOAD PUSH20 0xFFFFFFFFFFFFFFFFFFFFFFFFFFFFFFFFFFFFFFFF AND CALLER EQ ISZERO JUMPDEST ISZERO PUSH2 0x157F JUMPI CALLER PUSH2 0x1520 PUSH1 0x0 SLOAD PUSH20 0xFFFFFFFFFFFFFFFFFFFFFFFFFFFFFFFFFFFFFFFF AND SWAP1 JUMP JUMPDEST PUSH1 0x2 SLOAD PUSH1 0x40 MLOAD PUSH32 0x61DB9C100000000000000000000000000000000000000000000000000000000 DUP2 MSTORE PUSH20 0xFFFFFFFFFFFFFFFFFFFFFFFFFFFFFFFFFFFFFFFF SWAP4 DUP5 AND PUSH1 0x4 DUP3 ADD MSTORE SWAP2 DUP4 AND PUSH1 0x24 DUP4 ADD MSTORE SWAP2 SWAP1 SWAP2 AND PUSH1 0x44 DUP3 ADD MSTORE PUSH1 0x64 ADD PUSH2 0x858 JUMP JUMPDEST PUSH20 0xFFFFFFFFFFFFFFFFFFFFFFFFFFFFFFFFFFFFFFFF DUP2 AND PUSH2 0x15CC JUMPI PUSH1 0x40 MLOAD PUSH32 0xD92E233D00000000000000000000000000000000000000000000000000000000 DUP2 MSTORE PUSH1 0x4 ADD PUSH1 0x40 MLOAD DUP1 SWAP2 SUB SWAP1 REVERT JUMPDEST PUSH1 0x2 DUP1 SLOAD PUSH32 0xFFFFFFFFFFFFFFFFFFFFFFFF0000000000000000000000000000000000000000 AND PUSH20 0xFFFFFFFFFFFFFFFFFFFFFFFFFFFFFFFFFFFFFFFF DUP4 AND SWAP1 DUP2 OR SWAP1 SWAP2 SSTORE PUSH1 0x40 MLOAD SWAP1 DUP2 MSTORE PUSH32 0xD1A6A14209A385A964D036E404CB5CFB71F4000CDB03C9366292430787261BE6 SWAP1 PUSH1 0x20 ADD JUMPDEST PUSH1 0x40 MLOAD DUP1 SWAP2 SUB SWAP1 LOG1 POP JUMP JUMPDEST PUSH1 0x2 SLOAD PUSH1 0x0 SWAP1 PUSH21 0x10000000000000000000000000000000000000000 SWAP1 DIV PUSH1 0xFF AND PUSH2 0x16CD JUMPI PUSH1 0x40 MLOAD PUSH32 0x8C379A000000000000000000000000000000000000000000000000000000000 DUP2 MSTORE PUSH1 0x20 PUSH1 0x4 DUP3 ADD MSTORE PUSH1 0x19 PUSH1 0x24 DUP3 ADD MSTORE PUSH32 0x77726170706572206973206E6F7420636F6E6669677572656400000000000000 PUSH1 0x44 DUP3 ADD MSTORE PUSH1 0x64 ADD PUSH2 0x858 JUMP JUMPDEST PUSH1 0x2 SLOAD PUSH22 0x1000000000000000000000000000000000000000000 SWAP1 DIV PUSH1 0xFF AND ISZERO PUSH2 0x1753 JUMPI PUSH1 0x40 MLOAD PUSH32 0x8C379A000000000000000000000000000000000000000000000000000000000 DUP2 MSTORE PUSH1 0x20 PUSH1 0x4 DUP3 ADD MSTORE PUSH1 0x13 PUSH1 0x24 DUP3 ADD MSTORE PUSH32 0x777261707065722069732064697361626C656400000000000000000000000000 PUSH1 0x44 DUP3 ADD MSTORE PUSH1 0x64 ADD PUSH2 0x858 JUMP JUMPDEST PUSH2 0x1792 DUP4 DUP4 DUP1 DUP1 PUSH1 0x1F ADD PUSH1 0x20 DUP1 SWAP2 DIV MUL PUSH1 0x20 ADD PUSH1 0x40 MLOAD SWAP1 DUP2 ADD PUSH1 0x40 MSTORE DUP1 SWAP4 SWAP3 SWAP2 SWAP1 DUP2 DUP2 MSTORE PUSH1 0x20 ADD DUP4 DUP4 DUP1 DUP3 DUP5 CALLDATACOPY PUSH1 0x0 SWAP3 ADD DUP3 SWAP1 MSTORE POP SWAP3 POP PUSH2 0xCF2 SWAP2 POP POP JUMP JUMPDEST PUSH1 0x0 PUSH2 0x179D DUP8 PUSH2 0x28A4 JUMP JUMPDEST SWAP1 POP PUSH1 0x0 PUSH2 0x17B2 DUP9 PUSH4 0xFFFFFFFF AND DUP8 GASPRICE PUSH2 0x25A6 JUMP JUMPDEST SWAP1 POP DUP1 CALLVALUE LT ISZERO PUSH2 0x181E JUMPI PUSH1 0x40 MLOAD PUSH32 0x8C379A000000000000000000000000000000000000000000000000000000000 DUP2 MSTORE PUSH1 0x20 PUSH1 0x4 DUP3 ADD MSTORE PUSH1 0xB PUSH1 0x24 DUP3 ADD MSTORE PUSH32 0x66656520746F6F206C6F77000000000000000000000000000000000000000000 PUSH1 0x44 DUP3 ADD MSTORE PUSH1 0x64 ADD PUSH2 0x858 JUMP JUMPDEST PUSH1 0x2 SLOAD PUSH23 0x100000000000000000000000000000000000000000000 SWAP1 DIV PUSH1 0xFF AND PUSH4 0xFFFFFFFF DUP8 AND GT ISZERO PUSH2 0x18AD JUMPI PUSH1 0x40 MLOAD PUSH32 0x8C379A000000000000000000000000000000000000000000000000000000000 DUP2 MSTORE PUSH1 0x20 PUSH1 0x4 DUP3 ADD MSTORE PUSH1 0x11 PUSH1 0x24 DUP3 ADD MSTORE PUSH32 0x6E756D576F72647320746F6F2068696768000000000000000000000000000000 PUSH1 0x44 DUP3 ADD MSTORE PUSH1 0x64 ADD PUSH2 0x858 JUMP JUMPDEST PUSH1 0x0 PUSH1 0x40 MLOAD DUP1 PUSH1 0xC0 ADD PUSH1 0x40 MSTORE DUP1 PUSH1 0x3 SLOAD DUP2 MSTORE PUSH1 0x20 ADD PUSH32 0x0 DUP2 MSTORE PUSH1 0x20 ADD DUP10 PUSH2 0xFFFF AND DUP2 MSTORE PUSH1 0x20 ADD PUSH1 0x6 PUSH1 0x4 SWAP1 SLOAD SWAP1 PUSH2 0x100 EXP SWAP1 DIV PUSH4 0xFFFFFFFF AND DUP6 DUP13 PUSH2 0x1911 SWAP2 SWAP1 PUSH2 0x352E JUMP JUMPDEST PUSH2 0x191B SWAP2 SWAP1 PUSH2 0x352E JUMP JUMPDEST PUSH4 0xFFFFFFFF AND DUP2 MSTORE PUSH1 0x20 ADD DUP9 PUSH4 0xFFFFFFFF AND DUP2 MSTORE PUSH1 0x20 ADD DUP8 DUP8 DUP1 DUP1 PUSH1 0x1F ADD PUSH1 0x20 DUP1 SWAP2 DIV MUL PUSH1 0x20 ADD PUSH1 0x40 MLOAD SWAP1 DUP2 ADD PUSH1 0x40 MSTORE DUP1 SWAP4 SWAP3 SWAP2 SWAP1 DUP2 DUP2 MSTORE PUSH1 0x20 ADD DUP4 DUP4 DUP1 DUP3 DUP5 CALLDATACOPY PUSH1 0x0 SWAP3 ADD SWAP2 SWAP1 SWAP2 MSTORE POP POP POP SWAP2 MSTORE POP PUSH1 0x2 SLOAD PUSH1 0x40 MLOAD PUSH32 0x9B1C385E00000000000000000000000000000000000000000000000000000000 DUP2 MSTORE SWAP2 SWAP3 POP PUSH20 0xFFFFFFFFFFFFFFFFFFFFFFFFFFFFFFFFFFFFFFFF AND SWAP1 PUSH4 0x9B1C385E SWAP1 PUSH2 0x19C1 SWAP1 DUP5 SWAP1 PUSH1 0x4 ADD PUSH2 0x3552 JUMP JUMPDEST PUSH1 0x20 PUSH1 0x40 MLOAD DUP1 DUP4 SUB DUP2 PUSH1 0x0 DUP8 GAS CALL ISZERO DUP1 ISZERO PUSH2 0x19E0 JUMPI RETURNDATASIZE PUSH1 0x0 DUP1 RETURNDATACOPY RETURNDATASIZE PUSH1 0x0 REVERT JUMPDEST POP POP POP POP PUSH1 0x40 MLOAD RETURNDATASIZE PUSH1 0x1F NOT PUSH1 0x1F DUP3 ADD AND DUP3 ADD DUP1 PUSH1 0x40 MSTORE POP DUP2 ADD SWAP1 PUSH2 0x1A04 SWAP2 SWAP1 PUSH2 0x34C9 JUMP JUMPDEST PUSH1 0x40 DUP1 MLOAD PUSH1 0x60 DUP2 ADD DUP3 MSTORE CALLER DUP2 MSTORE PUSH4 0xFFFFFFFF DUP1 DUP14 AND PUSH1 0x20 DUP1 DUP5 ADD SWAP2 DUP3 MSTORE PUSH8 0xFFFFFFFFFFFFFFFF GASPRICE DUP2 AND DUP6 DUP8 ADD SWAP1 DUP2 MSTORE PUSH1 0x0 DUP9 DUP2 MSTORE PUSH1 0x7 SWAP1 SWAP4 MSTORE SWAP6 SWAP1 SWAP2 KECCAK256 SWAP4 MLOAD DUP5 SLOAD SWAP3 MLOAD SWAP6 MLOAD SWAP1 SWAP2 AND PUSH25 0x1000000000000000000000000000000000000000000000000 MUL PUSH24 0xFFFFFFFFFFFFFFFFFFFFFFFFFFFFFFFFFFFFFFFFFFFFFFFF SWAP6 SWAP1 SWAP4 AND PUSH21 0x10000000000000000000000000000000000000000 MUL PUSH32 0xFFFFFFFFFFFFFFFF000000000000000000000000000000000000000000000000 SWAP1 SWAP3 AND PUSH20 0xFFFFFFFFFFFFFFFFFFFFFFFFFFFFFFFFFFFFFFFF SWAP2 SWAP1 SWAP2 AND OR OR SWAP3 SWAP1 SWAP3 AND SWAP2 SWAP1 SWAP2 OR SWAP1 SSTORE SWAP4 POP POP POP POP SWAP6 SWAP5 POP POP POP POP POP JUMP JUMPDEST PUSH2 0x1AFA PUSH2 0x2523 JUMP JUMPDEST PUSH1 0x2 DUP1 SLOAD PUSH32 0xFFFFFFFFFFFFFFFFFFFF00FFFFFFFFFFFFFFFFFFFFFFFFFFFFFFFFFFFFFFFFFF AND SWAP1 SSTORE PUSH1 0x40 MLOAD PUSH32 0xC0F961051F97B04C496472D11CB6170D844E4B2C9DFD3B602A4FA0139712D484 SWAP1 PUSH1 0x0 SWAP1 LOG1 JUMP JUMPDEST PUSH1 0x2 SLOAD PUSH21 0x10000000000000000000000000000000000000000 SWAP1 DIV PUSH1 0xFF AND PUSH2 0x1BD1 JUMPI PUSH1 0x40 MLOAD PUSH32 0x8C379A000000000000000000000000000000000000000000000000000000000 DUP2 MSTORE PUSH1 0x20 PUSH1 0x4 DUP3 ADD MSTORE PUSH1 0x19 PUSH1 0x24 DUP3 ADD MSTORE PUSH32 0x77726170706572206973206E6F7420636F6E6669677572656400000000000000 PUSH1 0x44 DUP3 ADD MSTORE PUSH1 0x64 ADD PUSH2 0x858 JUMP JUMPDEST PUSH1 0x2 SLOAD PUSH22 0x1000000000000000000000000000000000000000000 SWAP1 DIV PUSH1 0xFF AND ISZERO PUSH2 0x1C57 JUMPI PUSH1 0x40 MLOAD PUSH32 0x8C379A000000000000000000000000000000000000000000000000000000000 DUP2 MSTORE PUSH1 0x20 PUSH1 0x4 DUP3 ADD MSTORE PUSH1 0x13 PUSH1 0x24 DUP3 ADD MSTORE PUSH32 0x777261707065722069732064697361626C656400000000000000000000000000 PUSH1 0x44 DUP3 ADD MSTORE PUSH1 0x64 ADD PUSH2 0x858 JUMP JUMPDEST CALLER PUSH20 0xFFFFFFFFFFFFFFFFFFFFFFFFFFFFFFFFFFFFFFFF PUSH32 0x0 AND EQ PUSH2 0x1CF6 JUMPI PUSH1 0x40 MLOAD PUSH32 0x8C379A000000000000000000000000000000000000000000000000000000000 DUP2 MSTORE PUSH1 0x20 PUSH1 0x4 DUP3 ADD MSTORE PUSH1 0x17 PUSH1 0x24 DUP3 ADD MSTORE PUSH32 0x6F6E6C792063616C6C61626C652066726F6D204C494E4B000000000000000000 PUSH1 0x44 DUP3 ADD MSTORE PUSH1 0x64 ADD PUSH2 0x858 JUMP JUMPDEST PUSH1 0x0 DUP1 DUP1 DUP1 PUSH2 0x1D07 DUP6 DUP8 ADD DUP8 PUSH2 0x35AF JUMP JUMPDEST SWAP4 POP SWAP4 POP SWAP4 POP SWAP4 POP PUSH2 0x1D1A DUP2 PUSH1 0x1 PUSH2 0xCF2 JUMP JUMPDEST PUSH1 0x0 PUSH2 0x1D25 DUP6 PUSH2 0x28A4 JUMP JUMPDEST SWAP1 POP PUSH1 0x0 DUP1 PUSH2 0x1D32 PUSH2 0x2266 JUMP JUMPDEST SWAP2 POP SWAP2 POP PUSH1 0x0 PUSH2 0x1D4A DUP9 PUSH4 0xFFFFFFFF AND DUP8 GASPRICE DUP7 PUSH2 0x23BC JUMP JUMPDEST SWAP1 POP DUP1 DUP12 LT ISZERO PUSH2 0x1DB6 JUMPI PUSH1 0x40 MLOAD PUSH32 0x8C379A000000000000000000000000000000000000000000000000000000000 DUP2 MSTORE PUSH1 0x20 PUSH1 0x4 DUP3 ADD MSTORE PUSH1 0xB PUSH1 0x24 DUP3 ADD MSTORE PUSH32 0x66656520746F6F206C6F77000000000000000000000000000000000000000000 PUSH1 0x44 DUP3 ADD MSTORE PUSH1 0x64 ADD PUSH2 0x858 JUMP JUMPDEST PUSH1 0x2 SLOAD PUSH23 0x100000000000000000000000000000000000000000000 SWAP1 DIV PUSH1 0xFF AND PUSH4 0xFFFFFFFF DUP8 AND GT ISZERO PUSH2 0x1E45 JUMPI PUSH1 0x40 MLOAD PUSH32 0x8C379A000000000000000000000000000000000000000000000000000000000 DUP2 MSTORE PUSH1 0x20 PUSH1 0x4 DUP3 ADD MSTORE PUSH1 0x11 PUSH1 0x24 DUP3 ADD MSTORE PUSH32 0x6E756D576F72647320746F6F2068696768000000000000000000000000000000 PUSH1 0x44 DUP3 ADD MSTORE PUSH1 0x64 ADD PUSH2 0x858 JUMP JUMPDEST PUSH1 0x0 PUSH1 0x40 MLOAD DUP1 PUSH1 0xC0 ADD PUSH1 0x40 MSTORE DUP1 PUSH1 0x3 SLOAD DUP2 MSTORE PUSH1 0x20 ADD PUSH32 0x0 DUP2 MSTORE PUSH1 0x20 ADD DUP10 PUSH2 0xFFFF AND DUP2 MSTORE PUSH1 0x20 ADD PUSH1 0x6 PUSH1 0x4 SWAP1 SLOAD SWAP1 PUSH2 0x100 EXP SWAP1 DIV PUSH4 0xFFFFFFFF AND DUP8 DUP13 PUSH2 0x1EA9 SWAP2 SWAP1 PUSH2 0x352E JUMP JUMPDEST PUSH2 0x1EB3 SWAP2 SWAP1 PUSH2 0x352E JUMP JUMPDEST PUSH4 0xFFFFFFFF SWAP1 DUP2 AND DUP3 MSTORE DUP10 AND PUSH1 0x20 DUP3 ADD MSTORE PUSH1 0x40 SWAP1 DUP2 ADD DUP9 SWAP1 MSTORE PUSH1 0x2 SLOAD SWAP1 MLOAD PUSH32 0x9B1C385E00000000000000000000000000000000000000000000000000000000 DUP2 MSTORE SWAP2 SWAP3 POP PUSH1 0x0 SWAP2 PUSH20 0xFFFFFFFFFFFFFFFFFFFFFFFFFFFFFFFFFFFFFFFF SWAP1 SWAP2 AND SWAP1 PUSH4 0x9B1C385E SWAP1 PUSH2 0x1F27 SWAP1 DUP6 SWAP1 PUSH1 0x4 ADD PUSH2 0x3552 JUMP JUMPDEST PUSH1 0x20 PUSH1 0x40 MLOAD DUP1 DUP4 SUB DUP2 PUSH1 0x0 DUP8 GAS CALL ISZERO DUP1 ISZERO PUSH2 0x1F46 JUMPI RETURNDATASIZE PUSH1 0x0 DUP1 RETURNDATACOPY RETURNDATASIZE PUSH1 0x0 REVERT JUMPDEST POP POP POP POP PUSH1 0x40 MLOAD RETURNDATASIZE PUSH1 0x1F NOT PUSH1 0x1F DUP3 ADD AND DUP3 ADD DUP1 PUSH1 0x40 MSTORE POP DUP2 ADD SWAP1 PUSH2 0x1F6A SWAP2 SWAP1 PUSH2 0x34C9 JUMP JUMPDEST SWAP1 POP PUSH1 0x40 MLOAD DUP1 PUSH1 0x60 ADD PUSH1 0x40 MSTORE DUP1 DUP16 PUSH20 0xFFFFFFFFFFFFFFFFFFFFFFFFFFFFFFFFFFFFFFFF AND DUP2 MSTORE PUSH1 0x20 ADD DUP12 PUSH4 0xFFFFFFFF AND DUP2 MSTORE PUSH1 0x20 ADD GASPRICE PUSH8 0xFFFFFFFFFFFFFFFF AND DUP2 MSTORE POP PUSH1 0x7 PUSH1 0x0 DUP4 DUP2 MSTORE PUSH1 0x20 ADD SWAP1 DUP2 MSTORE PUSH1 0x20 ADD PUSH1 0x0 KECCAK256 PUSH1 0x0 DUP3 ADD MLOAD DUP2 PUSH1 0x0 ADD PUSH1 0x0 PUSH2 0x100 EXP DUP2 SLOAD DUP2 PUSH20 0xFFFFFFFFFFFFFFFFFFFFFFFFFFFFFFFFFFFFFFFF MUL NOT AND SWAP1 DUP4 PUSH20 0xFFFFFFFFFFFFFFFFFFFFFFFFFFFFFFFFFFFFFFFF AND MUL OR SWAP1 SSTORE POP PUSH1 0x20 DUP3 ADD MLOAD DUP2 PUSH1 0x0 ADD PUSH1 0x14 PUSH2 0x100 EXP DUP2 SLOAD DUP2 PUSH4 0xFFFFFFFF MUL NOT AND SWAP1 DUP4 PUSH4 0xFFFFFFFF AND MUL OR SWAP1 SSTORE POP PUSH1 0x40 DUP3 ADD MLOAD DUP2 PUSH1 0x0 ADD PUSH1 0x18 PUSH2 0x100 EXP DUP2 SLOAD DUP2 PUSH8 0xFFFFFFFFFFFFFFFF MUL NOT AND SWAP1 DUP4 PUSH8 0xFFFFFFFFFFFFFFFF AND MUL OR SWAP1 SSTORE POP SWAP1 POP POP DUP1 PUSH1 0x4 DUP2 SWAP1 SSTORE POP DUP4 ISZERO PUSH2 0x20AB JUMPI PUSH1 0x5 SLOAD PUSH1 0x40 DUP1 MLOAD DUP4 DUP2 MSTORE PUSH1 0x20 DUP2 ADD SWAP3 SWAP1 SWAP3 MSTORE PUSH32 0x6CA648A381F22EAD7E37773D934E64885DCF861FBFBB26C40354CBF0C4662D1A SWAP2 ADD PUSH1 0x40 MLOAD DUP1 SWAP2 SUB SWAP1 LOG1 JUMPDEST POP POP POP POP POP POP POP POP POP POP POP POP POP POP JUMP JUMPDEST PUSH2 0x20C3 PUSH2 0x2523 JUMP JUMPDEST PUSH1 0x6 DUP1 SLOAD PUSH32 0xFFFFFFFFFFFFFFFFFFFFFFFFFFFFFFFFFFFFFFFF00000000FFFFFFFFFFFFFFFF AND PUSH9 0x10000000000000000 PUSH4 0xFFFFFFFF DUP5 AND SWAP1 DUP2 MUL SWAP2 SWAP1 SWAP2 OR SWAP1 SWAP2 SSTORE PUSH1 0x40 MLOAD SWAP1 DUP2 MSTORE PUSH32 0x697B48B8B76CEBB09A54EC4FF810E8A181C96F65395D51C744DB09C115D1D5D0 SWAP1 PUSH1 0x20 ADD PUSH2 0x163B JUMP JUMPDEST PUSH1 0x2 SLOAD PUSH1 0x0 SWAP1 PUSH21 0x10000000000000000000000000000000000000000 SWAP1 DIV PUSH1 0xFF AND PUSH2 0x21BB JUMPI PUSH1 0x40 MLOAD PUSH32 0x8C379A000000000000000000000000000000000000000000000000000000000 DUP2 MSTORE PUSH1 0x20 PUSH1 0x4 DUP3 ADD MSTORE PUSH1 0x19 PUSH1 0x24 DUP3 ADD MSTORE PUSH32 0x77726170706572206973206E6F7420636F6E6669677572656400000000000000 PUSH1 0x44 DUP3 ADD MSTORE PUSH1 0x64 ADD PUSH2 0x858 JUMP JUMPDEST PUSH1 0x2 SLOAD PUSH22 0x1000000000000000000000000000000000000000000 SWAP1 DIV PUSH1 0xFF AND ISZERO PUSH2 0x2241 JUMPI PUSH1 0x40 MLOAD PUSH32 0x8C379A000000000000000000000000000000000000000000000000000000000 DUP2 MSTORE PUSH1 0x20 PUSH1 0x4 DUP3 ADD MSTORE PUSH1 0x13 PUSH1 0x24 DUP3 ADD MSTORE PUSH32 0x777261707065722069732064697361626C656400000000000000000000000000 PUSH1 0x44 DUP3 ADD MSTORE PUSH1 0x64 ADD PUSH2 0x858 JUMP JUMPDEST PUSH2 0x101B DUP5 PUSH4 0xFFFFFFFF AND DUP5 DUP5 PUSH2 0x25A6 JUMP JUMPDEST PUSH2 0x225A PUSH2 0x2523 JUMP JUMPDEST PUSH2 0x2263 DUP2 PUSH2 0x28BC JUMP JUMPDEST POP JUMP JUMPDEST PUSH1 0x0 DUP1 PUSH1 0x0 PUSH1 0x6 PUSH1 0x0 SWAP1 SLOAD SWAP1 PUSH2 0x100 EXP SWAP1 DIV PUSH4 0xFFFFFFFF AND SWAP1 POP PUSH1 0x0 PUSH32 0x0 PUSH20 0xFFFFFFFFFFFFFFFFFFFFFFFFFFFFFFFFFFFFFFFF AND PUSH4 0xFEAF968C PUSH1 0x40 MLOAD DUP2 PUSH4 0xFFFFFFFF AND PUSH1 0xE0 SHL DUP2 MSTORE PUSH1 0x4 ADD PUSH1 0xA0 PUSH1 0x40 MLOAD DUP1 DUP4 SUB DUP2 DUP7 GAS STATICCALL ISZERO DUP1 ISZERO PUSH2 0x22ED JUMPI RETURNDATASIZE PUSH1 0x0 DUP1 RETURNDATACOPY RETURNDATASIZE PUSH1 0x0 REVERT JUMPDEST POP POP POP POP PUSH1 0x40 MLOAD RETURNDATASIZE PUSH1 0x1F NOT PUSH1 0x1F DUP3 ADD AND DUP3 ADD DUP1 PUSH1 0x40 MSTORE POP DUP2 ADD SWAP1 PUSH2 0x2311 SWAP2 SWAP1 PUSH2 0x3638 JUMP JUMPDEST POP SWAP2 SWAP7 POP SWAP1 SWAP3 POP POP POP PUSH4 0xFFFFFFFF DUP3 AND ISZERO DUP1 ISZERO SWAP1 PUSH2 0x233D JUMPI POP PUSH2 0x2334 DUP2 TIMESTAMP PUSH2 0x3688 JUMP JUMPDEST DUP3 PUSH4 0xFFFFFFFF AND LT JUMPDEST SWAP3 POP DUP3 ISZERO PUSH2 0x234B JUMPI PUSH1 0x5 SLOAD SWAP4 POP JUMPDEST PUSH1 0x0 DUP5 SLT ISZERO PUSH2 0x23B6 JUMPI PUSH1 0x40 MLOAD PUSH32 0x8C379A000000000000000000000000000000000000000000000000000000000 DUP2 MSTORE PUSH1 0x20 PUSH1 0x4 DUP3 ADD MSTORE PUSH1 0x16 PUSH1 0x24 DUP3 ADD MSTORE PUSH32 0x496E76616C6964204C494E4B2077656920707269636500000000000000000000 PUSH1 0x44 DUP3 ADD MSTORE PUSH1 0x64 ADD PUSH2 0x858 JUMP JUMPDEST POP POP SWAP1 SWAP2 JUMP JUMPDEST PUSH1 0x6 SLOAD PUSH1 0x0 SWAP1 DUP2 SWAP1 PUSH2 0x23DC SWAP1 PUSH5 0x100000000 SWAP1 DIV PUSH4 0xFFFFFFFF AND DUP6 PUSH2 0x369B JUMP JUMPDEST PUSH1 0x6 SLOAD SWAP1 SWAP2 POP PUSH1 0x0 SWAP1 PUSH2 0x2400 SWAP1 PUSH9 0x10000000000000000 SWAP1 DIV PUSH4 0xFFFFFFFF AND PUSH2 0x29B1 JUMP JUMPDEST PUSH2 0x240B DUP8 PUSH1 0x0 PUSH2 0x2A79 JUMP JUMPDEST PUSH2 0x241B SWAP1 PUSH4 0xFFFFFFFF AND DUP10 PUSH2 0x36B2 JUMP JUMPDEST PUSH2 0x2425 SWAP1 DUP8 PUSH2 0x369B JUMP JUMPDEST PUSH2 0x242F SWAP2 SWAP1 PUSH2 0x36B2 JUMP JUMPDEST PUSH1 0x6 SLOAD SWAP1 SWAP2 POP PUSH1 0x0 SWAP1 PUSH2 0x2482 SWAP1 PUSH4 0xFFFFFFFF PUSH27 0x10000000000000000000000000000000000000000000000000000 DUP3 DIV DUP2 AND SWAP2 PUSH23 0x100000000000000000000000000000000000000000000 SWAP1 DIV AND PUSH2 0x36C5 JUMP JUMPDEST PUSH2 0x2497 SWAP1 PUSH4 0xFFFFFFFF AND PUSH5 0xE8D4A51000 PUSH2 0x369B JUMP JUMPDEST PUSH1 0x6 SLOAD PUSH1 0x64 SWAP1 PUSH2 0x24CD SWAP1 PUSH32 0x100000000000000000000000000000000000000000000000000000000000000 SWAP1 DIV PUSH1 0xFF AND DUP3 PUSH2 0x36E2 JUMP JUMPDEST PUSH2 0x24DA SWAP1 PUSH1 0xFF AND DUP6 PUSH2 0x369B JUMP JUMPDEST PUSH2 0x24E4 SWAP2 SWAP1 PUSH2 0x372A JUMP JUMPDEST PUSH2 0x24EE SWAP2 SWAP1 PUSH2 0x36B2 JUMP JUMPDEST SWAP1 POP DUP5 PUSH2 0x24FB DUP3 DUP6 PUSH2 0x36B2 JUMP JUMPDEST PUSH2 0x250D SWAP1 PUSH8 0xDE0B6B3A7640000 PUSH2 0x369B JUMP JUMPDEST PUSH2 0x2517 SWAP2 SWAP1 PUSH2 0x372A JUMP JUMPDEST SWAP9 SWAP8 POP POP POP POP POP POP POP POP JUMP JUMPDEST PUSH1 0x0 SLOAD PUSH20 0xFFFFFFFFFFFFFFFFFFFFFFFFFFFFFFFFFFFFFFFF AND CALLER EQ PUSH2 0x25A4 JUMPI PUSH1 0x40 MLOAD PUSH32 0x8C379A000000000000000000000000000000000000000000000000000000000 DUP2 MSTORE PUSH1 0x20 PUSH1 0x4 DUP3 ADD MSTORE PUSH1 0x16 PUSH1 0x24 DUP3 ADD MSTORE PUSH32 0x4F6E6C792063616C6C61626C65206279206F776E657200000000000000000000 PUSH1 0x44 DUP3 ADD MSTORE PUSH1 0x64 ADD PUSH2 0x858 JUMP JUMPDEST JUMP JUMPDEST PUSH1 0x6 SLOAD PUSH1 0x0 SWAP1 DUP2 SWAP1 PUSH2 0x25C6 SWAP1 PUSH5 0x100000000 SWAP1 DIV PUSH4 0xFFFFFFFF AND DUP5 PUSH2 0x369B JUMP JUMPDEST PUSH1 0x6 SLOAD SWAP1 SWAP2 POP PUSH1 0x0 SWAP1 PUSH2 0x25EA SWAP1 PUSH9 0x10000000000000000 SWAP1 DIV PUSH4 0xFFFFFFFF AND PUSH2 0x29B1 JUMP JUMPDEST PUSH2 0x25F5 DUP7 PUSH1 0x1 PUSH2 0x2A79 JUMP JUMPDEST PUSH2 0x2605 SWAP1 PUSH4 0xFFFFFFFF AND DUP9 PUSH2 0x36B2 JUMP JUMPDEST PUSH2 0x260F SWAP1 DUP7 PUSH2 0x369B JUMP JUMPDEST PUSH2 0x2619 SWAP2 SWAP1 PUSH2 0x36B2 JUMP JUMPDEST PUSH1 0x6 SLOAD SWAP1 SWAP2 POP PUSH1 0x0 SWAP1 PUSH2 0x2651 SWAP1 PUSH23 0x100000000000000000000000000000000000000000000 SWAP1 DIV PUSH4 0xFFFFFFFF AND PUSH5 0xE8D4A51000 PUSH2 0x369B JUMP JUMPDEST PUSH1 0x6 SLOAD PUSH1 0x64 SWAP1 PUSH2 0x2686 SWAP1 PUSH31 0x1000000000000000000000000000000000000000000000000000000000000 SWAP1 DIV PUSH1 0xFF AND DUP3 PUSH2 0x36E2 JUMP JUMPDEST PUSH2 0x2693 SWAP1 PUSH1 0xFF AND DUP6 PUSH2 0x369B JUMP JUMPDEST PUSH2 0x269D SWAP2 SWAP1 PUSH2 0x372A JUMP JUMPDEST PUSH2 0x26A7 SWAP2 SWAP1 PUSH2 0x36B2 JUMP JUMPDEST SWAP1 POP PUSH2 0x26B3 DUP2 DUP5 PUSH2 0x36B2 JUMP JUMPDEST SWAP8 SWAP7 POP POP POP POP POP POP POP JUMP JUMPDEST PUSH1 0x0 DUP4 DUP2 MSTORE PUSH1 0x7 PUSH1 0x20 DUP2 DUP2 MSTORE PUSH1 0x40 DUP1 DUP5 KECCAK256 DUP2 MLOAD PUSH1 0x60 DUP2 ADD DUP4 MSTORE DUP2 SLOAD PUSH20 0xFFFFFFFFFFFFFFFFFFFFFFFFFFFFFFFFFFFFFFFF DUP1 DUP3 AND DUP4 MSTORE PUSH21 0x10000000000000000000000000000000000000000 DUP3 DIV PUSH4 0xFFFFFFFF AND DUP4 DUP8 ADD MSTORE PUSH25 0x1000000000000000000000000000000000000000000000000 SWAP1 SWAP2 DIV PUSH8 0xFFFFFFFFFFFFFFFF AND SWAP4 DUP3 ADD SWAP4 SWAP1 SWAP4 MSTORE DUP9 DUP7 MSTORE SWAP4 SWAP1 SWAP3 MSTORE SWAP3 SWAP1 SSTORE DUP1 MLOAD SWAP1 SWAP2 DUP2 AND PUSH2 0x27B9 JUMPI PUSH1 0x40 MLOAD PUSH32 0x8C379A000000000000000000000000000000000000000000000000000000000 DUP2 MSTORE PUSH1 0x20 PUSH1 0x4 DUP3 ADD MSTORE PUSH1 0x11 PUSH1 0x24 DUP3 ADD MSTORE PUSH32 0x72657175657374206E6F7420666F756E64000000000000000000000000000000 PUSH1 0x44 DUP3 ADD MSTORE PUSH1 0x64 ADD PUSH2 0x858 JUMP JUMPDEST PUSH1 0x0 DUP1 PUSH4 0x1FE543E3 PUSH1 0xE0 SHL DUP8 DUP8 DUP8 PUSH1 0x40 MLOAD PUSH1 0x24 ADD PUSH2 0x27D9 SWAP4 SWAP3 SWAP2 SWAP1 PUSH2 0x373E JUMP JUMPDEST PUSH1 0x40 MLOAD PUSH1 0x20 DUP2 DUP4 SUB SUB DUP2 MSTORE SWAP1 PUSH1 0x40 MSTORE SWAP1 PUSH28 0xFFFFFFFFFFFFFFFFFFFFFFFFFFFFFFFFFFFFFFFFFFFFFFFFFFFFFFFF NOT AND PUSH1 0x20 DUP3 ADD DUP1 MLOAD PUSH28 0xFFFFFFFFFFFFFFFFFFFFFFFFFFFFFFFFFFFFFFFFFFFFFFFFFFFFFFFF DUP4 DUP2 DUP4 AND OR DUP4 MSTORE POP POP POP POP SWAP1 POP PUSH1 0x0 PUSH2 0x284F DUP6 PUSH1 0x20 ADD MLOAD PUSH4 0xFFFFFFFF AND DUP6 DUP5 PUSH2 0x2B24 JUMP JUMPDEST SWAP1 POP DUP1 PUSH2 0x289A JUMPI PUSH1 0x40 MLOAD PUSH20 0xFFFFFFFFFFFFFFFFFFFFFFFFFFFFFFFFFFFFFFFF DUP6 AND SWAP1 DUP10 SWAP1 PUSH32 0xC551B83C151F2D1C7EEB938AC59008E0409F1C1DC1E2F112449D4D79B4589022 SWAP1 PUSH1 0x0 SWAP1 LOG3 JUMPDEST POP POP POP POP POP POP POP POP JUMP JUMPDEST PUSH1 0x0 PUSH2 0x28B1 PUSH1 0x3F DUP4 PUSH2 0x3797 JUMP JUMPDEST PUSH2 0xCEC SWAP1 PUSH1 0x1 PUSH2 0x352E JUMP JUMPDEST CALLER PUSH20 0xFFFFFFFFFFFFFFFFFFFFFFFFFFFFFFFFFFFFFFFF DUP3 AND SUB PUSH2 0x293B JUMPI PUSH1 0x40 MLOAD PUSH32 0x8C379A000000000000000000000000000000000000000000000000000000000 DUP2 MSTORE PUSH1 0x20 PUSH1 0x4 DUP3 ADD MSTORE PUSH1 0x17 PUSH1 0x24 DUP3 ADD MSTORE PUSH32 0x43616E6E6F74207472616E7366657220746F2073656C66000000000000000000 PUSH1 0x44 DUP3 ADD MSTORE PUSH1 0x64 ADD PUSH2 0x858 JUMP JUMPDEST PUSH1 0x1 DUP1 SLOAD PUSH32 0xFFFFFFFFFFFFFFFFFFFFFFFF0000000000000000000000000000000000000000 AND PUSH20 0xFFFFFFFFFFFFFFFFFFFFFFFFFFFFFFFFFFFFFFFF DUP4 DUP2 AND SWAP2 DUP3 OR SWAP1 SWAP3 SSTORE PUSH1 0x0 DUP1 SLOAD PUSH1 0x40 MLOAD SWAP3 SWAP4 AND SWAP2 PUSH32 0xED8889F560326EB138920D842192F0EB3DD22B4F139C87A2C57538E05BAE1278 SWAP2 SWAP1 LOG3 POP JUMP JUMPDEST PUSH1 0x0 CHAINID PUSH2 0x29BD DUP2 PUSH2 0x2B70 JUMP JUMPDEST ISZERO PUSH2 0x2A52 JUMPI PUSH1 0x0 PUSH1 0x6C PUSH20 0xFFFFFFFFFFFFFFFFFFFFFFFFFFFFFFFFFFFFFFFF AND PUSH4 0x41B247A8 PUSH1 0x40 MLOAD DUP2 PUSH4 0xFFFFFFFF AND PUSH1 0xE0 SHL DUP2 MSTORE PUSH1 0x4 ADD PUSH1 0xC0 PUSH1 0x40 MLOAD DUP1 DUP4 SUB DUP2 DUP7 GAS STATICCALL ISZERO DUP1 ISZERO PUSH2 0x2A10 JUMPI RETURNDATASIZE PUSH1 0x0 DUP1 RETURNDATACOPY RETURNDATASIZE PUSH1 0x0 REVERT JUMPDEST POP POP POP POP PUSH1 0x40 MLOAD RETURNDATASIZE PUSH1 0x1F NOT PUSH1 0x1F DUP3 ADD AND DUP3 ADD DUP1 PUSH1 0x40 MSTORE POP DUP2 ADD SWAP1 PUSH2 0x2A34 SWAP2 SWAP1 PUSH2 0x37BA JUMP JUMPDEST POP POP POP POP SWAP2 POP POP DUP4 PUSH1 0x8C PUSH2 0x2A48 SWAP2 SWAP1 PUSH2 0x36B2 JUMP JUMPDEST PUSH2 0x101B SWAP1 DUP3 PUSH2 0x369B JUMP JUMPDEST PUSH2 0x2A5B DUP2 PUSH2 0x2B93 JUMP JUMPDEST ISZERO PUSH2 0x2A70 JUMPI PUSH2 0x2A69 DUP4 PUSH2 0x2BCD JUMP JUMPDEST SWAP4 SWAP3 POP POP POP JUMP JUMPDEST POP PUSH1 0x0 SWAP3 SWAP2 POP POP JUMP JUMPDEST PUSH1 0x0 DUP2 ISZERO PUSH2 0x2AD4 JUMPI PUSH1 0x6 SLOAD PUSH2 0x2AAA SWAP1 PUSH21 0x10000000000000000000000000000000000000000 SWAP1 DIV PUSH2 0xFFFF AND DUP5 PUSH2 0x3804 JUMP JUMPDEST PUSH1 0x6 SLOAD PUSH2 0x2ACD SWAP2 SWAP1 PUSH13 0x1000000000000000000000000 SWAP1 DIV PUSH4 0xFFFFFFFF AND PUSH2 0x352E JUMP JUMPDEST SWAP1 POP PUSH2 0xCEC JUMP JUMPDEST PUSH1 0x6 SLOAD PUSH2 0x2AFD SWAP1 PUSH21 0x10000000000000000000000000000000000000000 SWAP1 DIV PUSH2 0xFFFF AND DUP5 PUSH2 0x3804 JUMP JUMPDEST PUSH1 0x6 SLOAD PUSH2 0x2ACD SWAP2 SWAP1 PUSH17 0x100000000000000000000000000000000 SWAP1 DIV PUSH4 0xFFFFFFFF AND PUSH2 0x352E JUMP JUMPDEST PUSH1 0x0 GAS PUSH2 0x1388 DUP2 LT ISZERO PUSH2 0x2B36 JUMPI PUSH1 0x0 DUP1 REVERT JUMPDEST PUSH2 0x1388 DUP2 SUB SWAP1 POP DUP5 PUSH1 0x40 DUP3 DIV DUP3 SUB GT PUSH2 0x2B4E JUMPI PUSH1 0x0 DUP1 REVERT JUMPDEST POP DUP3 EXTCODESIZE PUSH2 0x2B5A JUMPI PUSH1 0x0 DUP1 REVERT JUMPDEST PUSH1 0x0 DUP1 DUP4 MLOAD PUSH1 0x20 DUP6 ADD PUSH1 0x0 DUP8 DUP10 CALL SWAP5 SWAP4 POP POP POP POP JUMP JUMPDEST PUSH1 0x0 PUSH2 0xA4B1 DUP3 EQ DUP1 PUSH2 0x2B84 JUMPI POP PUSH3 0x66EED DUP3 EQ JUMPDEST DUP1 PUSH2 0xCEC JUMPI POP POP PUSH3 0x66EEE EQ SWAP1 JUMP JUMPDEST PUSH1 0x0 PUSH1 0xA DUP3 EQ DUP1 PUSH2 0x2BA5 JUMPI POP PUSH2 0x1A4 DUP3 EQ JUMPDEST DUP1 PUSH2 0x2BB2 JUMPI POP PUSH3 0xAA37DC DUP3 EQ JUMPDEST DUP1 PUSH2 0x2BBE JUMPI POP PUSH2 0x2105 DUP3 EQ JUMPDEST DUP1 PUSH2 0xCEC JUMPI POP POP PUSH3 0x14A33 EQ SWAP1 JUMP JUMPDEST PUSH1 0x0 DUP1 PUSH20 0x420000000000000000000000000000000000000F PUSH20 0xFFFFFFFFFFFFFFFFFFFFFFFFFFFFFFFFFFFFFFFF AND PUSH4 0x519B4BD3 PUSH1 0x40 MLOAD DUP2 PUSH4 0xFFFFFFFF AND PUSH1 0xE0 SHL DUP2 MSTORE PUSH1 0x4 ADD PUSH1 0x20 PUSH1 0x40 MLOAD DUP1 DUP4 SUB DUP2 DUP7 GAS STATICCALL ISZERO DUP1 ISZERO PUSH2 0x2C2F JUMPI RETURNDATASIZE PUSH1 0x0 DUP1 RETURNDATACOPY RETURNDATASIZE PUSH1 0x0 REVERT JUMPDEST POP POP POP POP PUSH1 0x40 MLOAD RETURNDATASIZE PUSH1 0x1F NOT PUSH1 0x1F DUP3 ADD AND DUP3 ADD DUP1 PUSH1 0x40 MSTORE POP DUP2 ADD SWAP1 PUSH2 0x2C53 SWAP2 SWAP1 PUSH2 0x34C9 JUMP JUMPDEST SWAP1 POP PUSH1 0x0 DUP1 PUSH2 0x2C62 DUP2 DUP7 PUSH2 0x3688 JUMP JUMPDEST SWAP1 POP PUSH1 0x0 PUSH2 0x2C71 DUP3 PUSH1 0x10 PUSH2 0x369B JUMP JUMPDEST PUSH2 0x2C7C DUP5 PUSH1 0x4 PUSH2 0x369B JUMP JUMPDEST PUSH2 0x2C86 SWAP2 SWAP1 PUSH2 0x36B2 JUMP JUMPDEST SWAP1 POP PUSH1 0x0 PUSH20 0x420000000000000000000000000000000000000F PUSH20 0xFFFFFFFFFFFFFFFFFFFFFFFFFFFFFFFFFFFFFFFF AND PUSH4 0xC18C162 PUSH1 0x40 MLOAD DUP2 PUSH4 0xFFFFFFFF AND PUSH1 0xE0 SHL DUP2 MSTORE PUSH1 0x4 ADD PUSH1 0x20 PUSH1 0x40 MLOAD DUP1 DUP4 SUB DUP2 DUP7 GAS STATICCALL ISZERO DUP1 ISZERO PUSH2 0x2CE9 JUMPI RETURNDATASIZE PUSH1 0x0 DUP1 RETURNDATACOPY RETURNDATASIZE PUSH1 0x0 REVERT JUMPDEST POP POP POP POP PUSH1 0x40 MLOAD RETURNDATASIZE PUSH1 0x1F NOT PUSH1 0x1F DUP3 ADD AND DUP3 ADD DUP1 PUSH1 0x40 MSTORE POP DUP2 ADD SWAP1 PUSH2 0x2D0D SWAP2 SWAP1 PUSH2 0x34C9 JUMP JUMPDEST SWAP1 POP PUSH1 0x0 PUSH20 0x420000000000000000000000000000000000000F PUSH20 0xFFFFFFFFFFFFFFFFFFFFFFFFFFFFFFFFFFFFFFFF AND PUSH4 0xF45E65D8 PUSH1 0x40 MLOAD DUP2 PUSH4 0xFFFFFFFF AND PUSH1 0xE0 SHL DUP2 MSTORE PUSH1 0x4 ADD PUSH1 0x20 PUSH1 0x40 MLOAD DUP1 DUP4 SUB DUP2 DUP7 GAS STATICCALL ISZERO DUP1 ISZERO PUSH2 0x2D70 JUMPI RETURNDATASIZE PUSH1 0x0 DUP1 RETURNDATACOPY RETURNDATASIZE PUSH1 0x0 REVERT JUMPDEST POP POP POP POP PUSH1 0x40 MLOAD RETURNDATASIZE PUSH1 0x1F NOT PUSH1 0x1F DUP3 ADD AND DUP3 ADD DUP1 PUSH1 0x40 MSTORE POP DUP2 ADD SWAP1 PUSH2 0x2D94 SWAP2 SWAP1 PUSH2 0x34C9 JUMP JUMPDEST SWAP1 POP PUSH1 0x0 PUSH20 0x420000000000000000000000000000000000000F PUSH20 0xFFFFFFFFFFFFFFFFFFFFFFFFFFFFFFFFFFFFFFFF AND PUSH4 0x313CE567 PUSH1 0x40 MLOAD DUP2 PUSH4 0xFFFFFFFF AND PUSH1 0xE0 SHL DUP2 MSTORE PUSH1 0x4 ADD PUSH1 0x20 PUSH1 0x40 MLOAD DUP1 DUP4 SUB DUP2 DUP7 GAS STATICCALL ISZERO DUP1 ISZERO PUSH2 0x2DF7 JUMPI RETURNDATASIZE PUSH1 0x0 DUP1 RETURNDATACOPY RETURNDATASIZE PUSH1 0x0 REVERT JUMPDEST POP POP POP POP PUSH1 0x40 MLOAD RETURNDATASIZE PUSH1 0x1F NOT PUSH1 0x1F DUP3 ADD AND DUP3 ADD DUP1 PUSH1 0x40 MSTORE POP DUP2 ADD SWAP1 PUSH2 0x2E1B SWAP2 SWAP1 PUSH2 0x34C9 JUMP JUMPDEST SWAP1 POP PUSH1 0x0 PUSH2 0x2E2A DUP3 PUSH1 0xA PUSH2 0x394C JUMP JUMPDEST SWAP1 POP PUSH1 0x0 DUP2 DUP5 PUSH2 0x2E3A DUP8 DUP10 PUSH2 0x36B2 JUMP JUMPDEST PUSH2 0x2E44 SWAP1 DUP13 PUSH2 0x369B JUMP JUMPDEST PUSH2 0x2E4E SWAP2 SWAP1 PUSH2 0x369B JUMP JUMPDEST PUSH2 0x2E58 SWAP2 SWAP1 PUSH2 0x372A JUMP JUMPDEST SWAP12 SWAP11 POP POP POP POP POP POP POP POP POP POP POP JUMP JUMPDEST DUP1 CALLDATALOAD PUSH4 0xFFFFFFFF DUP2 AND DUP2 EQ PUSH2 0x2E7B JUMPI PUSH1 0x0 DUP1 REVERT JUMPDEST SWAP2 SWAP1 POP JUMP JUMPDEST PUSH1 0x0 DUP1 PUSH1 0x0 PUSH1 0x60 DUP5 DUP7 SUB SLT ISZERO PUSH2 0x2E95 JUMPI PUSH1 0x0 DUP1 REVERT JUMPDEST PUSH2 0x2E9E DUP5 PUSH2 0x2E67 JUMP JUMPDEST SWAP3 POP PUSH2 0x2EAC PUSH1 0x20 DUP6 ADD PUSH2 0x2E67 JUMP JUMPDEST SWAP2 POP PUSH1 0x40 DUP5 ADD CALLDATALOAD SWAP1 POP SWAP3 POP SWAP3 POP SWAP3 JUMP JUMPDEST DUP1 CALLDATALOAD PUSH2 0xFFFF DUP2 AND DUP2 EQ PUSH2 0x2E7B JUMPI PUSH1 0x0 DUP1 REVERT JUMPDEST DUP1 CALLDATALOAD PUSH1 0xFF DUP2 AND DUP2 EQ PUSH2 0x2E7B JUMPI PUSH1 0x0 DUP1 REVERT JUMPDEST PUSH1 0x0 DUP1 PUSH1 0x0 DUP1 PUSH1 0x0 DUP1 PUSH1 0x0 DUP1 PUSH1 0x0 DUP1 PUSH1 0x0 DUP1 PUSH2 0x180 DUP14 DUP16 SUB SLT ISZERO PUSH2 0x2F02 JUMPI PUSH1 0x0 DUP1 REVERT JUMPDEST PUSH2 0x2F0B DUP14 PUSH2 0x2E67 JUMP JUMPDEST SWAP12 POP PUSH2 0x2F19 PUSH1 0x20 DUP15 ADD PUSH2 0x2E67 JUMP JUMPDEST SWAP11 POP PUSH2 0x2F27 PUSH1 0x40 DUP15 ADD PUSH2 0x2E67 JUMP JUMPDEST SWAP10 POP PUSH2 0x2F35 PUSH1 0x60 DUP15 ADD PUSH2 0x2EBC JUMP JUMPDEST SWAP9 POP PUSH2 0x2F43 PUSH1 0x80 DUP15 ADD PUSH2 0x2ECE JUMP JUMPDEST SWAP8 POP PUSH2 0x2F51 PUSH1 0xA0 DUP15 ADD PUSH2 0x2ECE JUMP JUMPDEST SWAP7 POP PUSH1 0xC0 DUP14 ADD CALLDATALOAD SWAP6 POP PUSH2 0x2F66 PUSH1 0xE0 DUP15 ADD PUSH2 0x2ECE JUMP JUMPDEST SWAP5 POP PUSH2 0x2F75 PUSH2 0x100 DUP15 ADD PUSH2 0x2E67 JUMP JUMPDEST SWAP4 POP PUSH2 0x120 DUP14 ADD CALLDATALOAD SWAP3 POP PUSH2 0x2F8C PUSH2 0x140 DUP15 ADD PUSH2 0x2E67 JUMP JUMPDEST SWAP2 POP PUSH2 0x2F9B PUSH2 0x160 DUP15 ADD PUSH2 0x2E67 JUMP JUMPDEST SWAP1 POP SWAP3 SWAP6 SWAP9 SWAP12 POP SWAP3 SWAP6 SWAP9 SWAP12 POP SWAP3 SWAP6 SWAP9 SWAP12 JUMP JUMPDEST PUSH1 0x0 DUP1 PUSH1 0x40 DUP4 DUP6 SUB SLT ISZERO PUSH2 0x2FC0 JUMPI PUSH1 0x0 DUP1 REVERT JUMPDEST PUSH2 0x2FC9 DUP4 PUSH2 0x2E67 JUMP JUMPDEST SWAP2 POP PUSH2 0x2FD7 PUSH1 0x20 DUP5 ADD PUSH2 0x2E67 JUMP JUMPDEST SWAP1 POP SWAP3 POP SWAP3 SWAP1 POP JUMP JUMPDEST PUSH1 0x0 DUP2 MLOAD DUP1 DUP5 MSTORE PUSH1 0x0 JUMPDEST DUP2 DUP2 LT ISZERO PUSH2 0x3006 JUMPI PUSH1 0x20 DUP2 DUP6 ADD DUP2 ADD MLOAD DUP7 DUP4 ADD DUP3 ADD MSTORE ADD PUSH2 0x2FEA JUMP JUMPDEST POP PUSH1 0x0 PUSH1 0x20 DUP3 DUP7 ADD ADD MSTORE PUSH1 0x20 PUSH32 0xFFFFFFFFFFFFFFFFFFFFFFFFFFFFFFFFFFFFFFFFFFFFFFFFFFFFFFFFFFFFFFE0 PUSH1 0x1F DUP4 ADD AND DUP6 ADD ADD SWAP2 POP POP SWAP3 SWAP2 POP POP JUMP JUMPDEST PUSH1 0x20 DUP2 MSTORE PUSH1 0x0 PUSH2 0xCE9 PUSH1 0x20 DUP4 ADD DUP5 PUSH2 0x2FE0 JUMP JUMPDEST PUSH32 0x4E487B7100000000000000000000000000000000000000000000000000000000 PUSH1 0x0 MSTORE PUSH1 0x41 PUSH1 0x4 MSTORE PUSH1 0x24 PUSH1 0x0 REVERT JUMPDEST PUSH1 0x0 DUP3 PUSH1 0x1F DUP4 ADD SLT PUSH2 0x3097 JUMPI PUSH1 0x0 DUP1 REVERT JUMPDEST DUP2 CALLDATALOAD PUSH8 0xFFFFFFFFFFFFFFFF DUP1 DUP3 GT ISZERO PUSH2 0x30B2 JUMPI PUSH2 0x30B2 PUSH2 0x3057 JUMP JUMPDEST PUSH1 0x40 MLOAD PUSH1 0x1F DUP4 ADD PUSH32 0xFFFFFFFFFFFFFFFFFFFFFFFFFFFFFFFFFFFFFFFFFFFFFFFFFFFFFFFFFFFFFFE0 SWAP1 DUP2 AND PUSH1 0x3F ADD AND DUP2 ADD SWAP1 DUP3 DUP3 GT DUP2 DUP4 LT OR ISZERO PUSH2 0x30F8 JUMPI PUSH2 0x30F8 PUSH2 0x3057 JUMP JUMPDEST DUP2 PUSH1 0x40 MSTORE DUP4 DUP2 MSTORE DUP7 PUSH1 0x20 DUP6 DUP9 ADD ADD GT ISZERO PUSH2 0x3111 JUMPI PUSH1 0x0 DUP1 REVERT JUMPDEST DUP4 PUSH1 0x20 DUP8 ADD PUSH1 0x20 DUP4 ADD CALLDATACOPY PUSH1 0x0 PUSH1 0x20 DUP6 DUP4 ADD ADD MSTORE DUP1 SWAP5 POP POP POP POP POP SWAP3 SWAP2 POP POP JUMP JUMPDEST DUP1 ISZERO ISZERO DUP2 EQ PUSH2 0x2263 JUMPI PUSH1 0x0 DUP1 REVERT JUMPDEST PUSH1 0x0 DUP1 PUSH1 0x40 DUP4 DUP6 SUB SLT ISZERO PUSH2 0x3152 JUMPI PUSH1 0x0 DUP1 REVERT JUMPDEST DUP3 CALLDATALOAD PUSH8 0xFFFFFFFFFFFFFFFF DUP2 GT ISZERO PUSH2 0x3169 JUMPI PUSH1 0x0 DUP1 REVERT JUMPDEST PUSH2 0x3175 DUP6 DUP3 DUP7 ADD PUSH2 0x3086 JUMP JUMPDEST SWAP3 POP POP PUSH1 0x20 DUP4 ADD CALLDATALOAD PUSH2 0x3186 DUP2 PUSH2 0x3131 JUMP JUMPDEST DUP1 SWAP2 POP POP SWAP3 POP SWAP3 SWAP1 POP JUMP JUMPDEST PUSH1 0x0 DUP1 PUSH1 0x0 PUSH1 0x40 DUP5 DUP7 SUB SLT ISZERO PUSH2 0x31A6 JUMPI PUSH1 0x0 DUP1 REVERT JUMPDEST DUP4 CALLDATALOAD SWAP3 POP PUSH1 0x20 DUP5 ADD CALLDATALOAD PUSH8 0xFFFFFFFFFFFFFFFF DUP1 DUP3 GT ISZERO PUSH2 0x31C5 JUMPI PUSH1 0x0 DUP1 REVERT JUMPDEST DUP2 DUP7 ADD SWAP2 POP DUP7 PUSH1 0x1F DUP4 ADD SLT PUSH2 0x31D9 JUMPI PUSH1 0x0 DUP1 REVERT JUMPDEST DUP2 CALLDATALOAD DUP2 DUP2 GT ISZERO PUSH2 0x31E8 JUMPI PUSH1 0x0 DUP1 REVERT JUMPDEST DUP8 PUSH1 0x20 DUP3 PUSH1 0x5 SHL DUP6 ADD ADD GT ISZERO PUSH2 0x31FD JUMPI PUSH1 0x0 DUP1 REVERT JUMPDEST PUSH1 0x20 DUP4 ADD SWAP5 POP DUP1 SWAP4 POP POP POP POP SWAP3 POP SWAP3 POP SWAP3 JUMP JUMPDEST DUP1 CALLDATALOAD PUSH20 0xFFFFFFFFFFFFFFFFFFFFFFFFFFFFFFFFFFFFFFFF DUP2 AND DUP2 EQ PUSH2 0x2E7B JUMPI PUSH1 0x0 DUP1 REVERT JUMPDEST PUSH1 0x0 PUSH1 0x20 DUP3 DUP5 SUB SLT ISZERO PUSH2 0x3246 JUMPI PUSH1 0x0 DUP1 REVERT JUMPDEST PUSH2 0xCE9 DUP3 PUSH2 0x3210 JUMP JUMPDEST PUSH1 0x0 PUSH1 0x20 DUP3 DUP5 SUB SLT ISZERO PUSH2 0x3261 JUMPI PUSH1 0x0 DUP1 REVERT JUMPDEST POP CALLDATALOAD SWAP2 SWAP1 POP JUMP JUMPDEST PUSH1 0x0 DUP1 DUP4 PUSH1 0x1F DUP5 ADD SLT PUSH2 0x327A JUMPI PUSH1 0x0 DUP1 REVERT JUMPDEST POP DUP2 CALLDATALOAD PUSH8 0xFFFFFFFFFFFFFFFF DUP2 GT ISZERO PUSH2 0x3292 JUMPI PUSH1 0x0 DUP1 REVERT JUMPDEST PUSH1 0x20 DUP4 ADD SWAP2 POP DUP4 PUSH1 0x20 DUP3 DUP6 ADD ADD GT ISZERO PUSH2 0x32AA JUMPI PUSH1 0x0 DUP1 REVERT JUMPDEST SWAP3 POP SWAP3 SWAP1 POP JUMP JUMPDEST PUSH1 0x0 DUP1 PUSH1 0x0 DUP1 PUSH1 0x0 PUSH1 0x80 DUP7 DUP9 SUB SLT ISZERO PUSH2 0x32C9 JUMPI PUSH1 0x0 DUP1 REVERT JUMPDEST PUSH2 0x32D2 DUP7 PUSH2 0x2E67 JUMP JUMPDEST SWAP5 POP PUSH2 0x32E0 PUSH1 0x20 DUP8 ADD PUSH2 0x2EBC JUMP JUMPDEST SWAP4 POP PUSH2 0x32EE PUSH1 0x40 DUP8 ADD PUSH2 0x2E67 JUMP JUMPDEST SWAP3 POP PUSH1 0x60 DUP7 ADD CALLDATALOAD PUSH8 0xFFFFFFFFFFFFFFFF DUP2 GT ISZERO PUSH2 0x330A JUMPI PUSH1 0x0 DUP1 REVERT JUMPDEST PUSH2 0x3316 DUP9 DUP3 DUP10 ADD PUSH2 0x3268 JUMP JUMPDEST SWAP7 SWAP10 SWAP6 SWAP9 POP SWAP4 SWAP7 POP SWAP3 SWAP5 SWAP4 SWAP3 POP POP POP JUMP JUMPDEST PUSH1 0x0 DUP1 PUSH1 0x0 DUP1 PUSH1 0x60 DUP6 DUP8 SUB SLT ISZERO PUSH2 0x333D JUMPI PUSH1 0x0 DUP1 REVERT JUMPDEST PUSH2 0x3346 DUP6 PUSH2 0x3210 JUMP JUMPDEST SWAP4 POP PUSH1 0x20 DUP6 ADD CALLDATALOAD SWAP3 POP PUSH1 0x40 DUP6 ADD CALLDATALOAD PUSH8 0xFFFFFFFFFFFFFFFF DUP2 GT ISZERO PUSH2 0x3369 JUMPI PUSH1 0x0 DUP1 REVERT JUMPDEST PUSH2 0x3375 DUP8 DUP3 DUP9 ADD PUSH2 0x3268 JUMP JUMPDEST SWAP6 SWAP9 SWAP5 SWAP8 POP SWAP6 POP POP POP POP JUMP JUMPDEST PUSH1 0x0 PUSH1 0x20 DUP3 DUP5 SUB SLT ISZERO PUSH2 0x3393 JUMPI PUSH1 0x0 DUP1 REVERT JUMPDEST PUSH2 0xCE9 DUP3 PUSH2 0x2E67 JUMP JUMPDEST DUP13 DUP2 MSTORE PUSH4 0xFFFFFFFF DUP13 DUP2 AND PUSH1 0x20 DUP4 ADD MSTORE DUP12 DUP2 AND PUSH1 0x40 DUP4 ADD MSTORE DUP11 DUP2 AND PUSH1 0x60 DUP4 ADD MSTORE DUP10 DUP2 AND PUSH1 0x80 DUP4 ADD MSTORE DUP9 DUP2 AND PUSH1 0xA0 DUP4 ADD MSTORE DUP8 AND PUSH1 0xC0 DUP3 ADD MSTORE PUSH2 0xFFFF DUP7 AND PUSH1 0xE0 DUP3 ADD MSTORE PUSH1 0xFF DUP6 DUP2 AND PUSH2 0x100 DUP4 ADD MSTORE DUP5 AND PUSH2 0x120 DUP3 ADD MSTORE PUSH2 0x180 DUP2 ADD DUP4 PUSH2 0x140 DUP4 ADD MSTORE PUSH2 0x340C PUSH2 0x160 DUP4 ADD DUP5 PUSH1 0xFF AND SWAP1 MSTORE JUMP JUMPDEST SWAP14 SWAP13 POP POP POP POP POP POP POP POP POP POP POP POP POP JUMP JUMPDEST PUSH4 0xFFFFFFFF DUP14 DUP2 AND DUP3 MSTORE DUP13 DUP2 AND PUSH1 0x20 DUP4 ADD MSTORE DUP12 DUP2 AND PUSH1 0x40 DUP4 ADD MSTORE PUSH2 0xFFFF DUP12 AND PUSH1 0x60 DUP4 ADD MSTORE PUSH1 0xFF DUP11 DUP2 AND PUSH1 0x80 DUP5 ADD MSTORE DUP10 DUP2 AND PUSH1 0xA0 DUP5 ADD MSTORE PUSH1 0xC0 DUP4 ADD DUP10 SWAP1 MSTORE DUP8 AND PUSH1 0xE0 DUP4 ADD MSTORE DUP6 AND PUSH2 0x100 DUP3 ADD MSTORE PUSH2 0x180 DUP2 ADD DUP5 PUSH2 0x120 DUP4 ADD MSTORE PUSH2 0x3488 PUSH2 0x140 DUP4 ADD DUP6 PUSH4 0xFFFFFFFF AND SWAP1 MSTORE JUMP JUMPDEST PUSH4 0xFFFFFFFF DUP4 AND PUSH2 0x160 DUP4 ADD MSTORE PUSH2 0x340C JUMP JUMPDEST PUSH32 0x4E487B7100000000000000000000000000000000000000000000000000000000 PUSH1 0x0 MSTORE PUSH1 0x32 PUSH1 0x4 MSTORE PUSH1 0x24 PUSH1 0x0 REVERT JUMPDEST PUSH1 0x0 PUSH1 0x20 DUP3 DUP5 SUB SLT ISZERO PUSH2 0x34DB JUMPI PUSH1 0x0 DUP1 REVERT JUMPDEST POP MLOAD SWAP2 SWAP1 POP JUMP JUMPDEST PUSH1 0x0 PUSH1 0x20 DUP3 DUP5 SUB SLT ISZERO PUSH2 0x34F4 JUMPI PUSH1 0x0 DUP1 REVERT JUMPDEST DUP2 MLOAD PUSH2 0x2A69 DUP2 PUSH2 0x3131 JUMP JUMPDEST PUSH32 0x4E487B7100000000000000000000000000000000000000000000000000000000 PUSH1 0x0 MSTORE PUSH1 0x11 PUSH1 0x4 MSTORE PUSH1 0x24 PUSH1 0x0 REVERT JUMPDEST PUSH4 0xFFFFFFFF DUP2 DUP2 AND DUP4 DUP3 AND ADD SWAP1 DUP1 DUP3 GT ISZERO PUSH2 0x354B JUMPI PUSH2 0x354B PUSH2 0x34FF JUMP JUMPDEST POP SWAP3 SWAP2 POP POP JUMP JUMPDEST PUSH1 0x20 DUP2 MSTORE DUP2 MLOAD PUSH1 0x20 DUP3 ADD MSTORE PUSH1 0x20 DUP3 ADD MLOAD PUSH1 0x40 DUP3 ADD MSTORE PUSH2 0xFFFF PUSH1 0x40 DUP4 ADD MLOAD AND PUSH1 0x60 DUP3 ADD MSTORE PUSH1 0x0 PUSH1 0x60 DUP4 ADD MLOAD PUSH4 0xFFFFFFFF DUP1 DUP3 AND PUSH1 0x80 DUP6 ADD MSTORE DUP1 PUSH1 0x80 DUP7 ADD MLOAD AND PUSH1 0xA0 DUP6 ADD MSTORE POP POP PUSH1 0xA0 DUP4 ADD MLOAD PUSH1 0xC0 DUP1 DUP5 ADD MSTORE PUSH2 0x101B PUSH1 0xE0 DUP5 ADD DUP3 PUSH2 0x2FE0 JUMP JUMPDEST PUSH1 0x0 DUP1 PUSH1 0x0 DUP1 PUSH1 0x80 DUP6 DUP8 SUB SLT ISZERO PUSH2 0x35C5 JUMPI PUSH1 0x0 DUP1 REVERT JUMPDEST PUSH2 0x35CE DUP6 PUSH2 0x2E67 JUMP JUMPDEST SWAP4 POP PUSH2 0x35DC PUSH1 0x20 DUP7 ADD PUSH2 0x2EBC JUMP JUMPDEST SWAP3 POP PUSH2 0x35EA PUSH1 0x40 DUP7 ADD PUSH2 0x2E67 JUMP JUMPDEST SWAP2 POP PUSH1 0x60 DUP6 ADD CALLDATALOAD PUSH8 0xFFFFFFFFFFFFFFFF DUP2 GT ISZERO PUSH2 0x3606 JUMPI PUSH1 0x0 DUP1 REVERT JUMPDEST PUSH2 0x3612 DUP8 DUP3 DUP9 ADD PUSH2 0x3086 JUMP JUMPDEST SWAP2 POP POP SWAP3 SWAP6 SWAP2 SWAP5 POP SWAP3 POP JUMP JUMPDEST DUP1 MLOAD PUSH10 0xFFFFFFFFFFFFFFFFFFFF DUP2 AND DUP2 EQ PUSH2 0x2E7B JUMPI PUSH1 0x0 DUP1 REVERT JUMPDEST PUSH1 0x0 DUP1 PUSH1 0x0 DUP1 PUSH1 0x0 PUSH1 0xA0 DUP7 DUP9 SUB SLT ISZERO PUSH2 0x3650 JUMPI PUSH1 0x0 DUP1 REVERT JUMPDEST PUSH2 0x3659 DUP7 PUSH2 0x361E JUMP JUMPDEST SWAP5 POP PUSH1 0x20 DUP7 ADD MLOAD SWAP4 POP PUSH1 0x40 DUP7 ADD MLOAD SWAP3 POP PUSH1 0x60 DUP7 ADD MLOAD SWAP2 POP PUSH2 0x367C PUSH1 0x80 DUP8 ADD PUSH2 0x361E JUMP JUMPDEST SWAP1 POP SWAP3 SWAP6 POP SWAP3 SWAP6 SWAP1 SWAP4 POP JUMP JUMPDEST DUP2 DUP2 SUB DUP2 DUP2 GT ISZERO PUSH2 0xCEC JUMPI PUSH2 0xCEC PUSH2 0x34FF JUMP JUMPDEST DUP1 DUP3 MUL DUP2 ISZERO DUP3 DUP3 DIV DUP5 EQ OR PUSH2 0xCEC JUMPI PUSH2 0xCEC PUSH2 0x34FF JUMP JUMPDEST DUP1 DUP3 ADD DUP1 DUP3 GT ISZERO PUSH2 0xCEC JUMPI PUSH2 0xCEC PUSH2 0x34FF JUMP JUMPDEST PUSH4 0xFFFFFFFF DUP3 DUP2 AND DUP3 DUP3 AND SUB SWAP1 DUP1 DUP3 GT ISZERO PUSH2 0x354B JUMPI PUSH2 0x354B PUSH2 0x34FF JUMP JUMPDEST PUSH1 0xFF DUP2 DUP2 AND DUP4 DUP3 AND ADD SWAP1 DUP2 GT ISZERO PUSH2 0xCEC JUMPI PUSH2 0xCEC PUSH2 0x34FF JUMP JUMPDEST PUSH32 0x4E487B7100000000000000000000000000000000000000000000000000000000 PUSH1 0x0 MSTORE PUSH1 0x12 PUSH1 0x4 MSTORE PUSH1 0x24 PUSH1 0x0 REVERT JUMPDEST PUSH1 0x0 DUP3 PUSH2 0x3739 JUMPI PUSH2 0x3739 PUSH2 0x36FB JUMP JUMPDEST POP DIV SWAP1 JUMP JUMPDEST DUP4 DUP2 MSTORE PUSH1 0x40 PUSH1 0x20 DUP3 ADD MSTORE DUP2 PUSH1 0x40 DUP3 ADD MSTORE PUSH1 0x0 PUSH32 0x7FFFFFFFFFFFFFFFFFFFFFFFFFFFFFFFFFFFFFFFFFFFFFFFFFFFFFFFFFFFFFF DUP4 GT ISZERO PUSH2 0x377D JUMPI PUSH1 0x0 DUP1 REVERT JUMPDEST DUP3 PUSH1 0x5 SHL DUP1 DUP6 PUSH1 0x60 DUP6 ADD CALLDATACOPY SWAP2 SWAP1 SWAP2 ADD PUSH1 0x60 ADD SWAP5 SWAP4 POP POP POP POP JUMP JUMPDEST PUSH1 0x0 PUSH4 0xFFFFFFFF DUP1 DUP5 AND DUP1 PUSH2 0x37AE JUMPI PUSH2 0x37AE PUSH2 0x36FB JUMP JUMPDEST SWAP3 AND SWAP2 SWAP1 SWAP2 DIV SWAP3 SWAP2 POP POP JUMP JUMPDEST PUSH1 0x0 DUP1 PUSH1 0x0 DUP1 PUSH1 0x0 DUP1 PUSH1 0xC0 DUP8 DUP10 SUB SLT ISZERO PUSH2 0x37D3 JUMPI PUSH1 0x0 DUP1 REVERT JUMPDEST DUP7 MLOAD SWAP6 POP PUSH1 0x20 DUP8 ADD MLOAD SWAP5 POP PUSH1 0x40 DUP8 ADD MLOAD SWAP4 POP PUSH1 0x60 DUP8 ADD MLOAD SWAP3 POP PUSH1 0x80 DUP8 ADD MLOAD SWAP2 POP PUSH1 0xA0 DUP8 ADD MLOAD SWAP1 POP SWAP3 SWAP6 POP SWAP3 SWAP6 POP SWAP3 SWAP6 JUMP JUMPDEST PUSH4 0xFFFFFFFF DUP2 DUP2 AND DUP4 DUP3 AND MUL DUP1 DUP3 AND SWAP2 SWAP1 DUP3 DUP2 EQ PUSH2 0x3824 JUMPI PUSH2 0x3824 PUSH2 0x34FF JUMP JUMPDEST POP POP SWAP3 SWAP2 POP POP JUMP JUMPDEST PUSH1 0x1 DUP2 DUP2 JUMPDEST DUP1 DUP6 GT ISZERO PUSH2 0x3885 JUMPI DUP2 PUSH32 0xFFFFFFFFFFFFFFFFFFFFFFFFFFFFFFFFFFFFFFFFFFFFFFFFFFFFFFFFFFFFFFFF DIV DUP3 GT ISZERO PUSH2 0x386B JUMPI PUSH2 0x386B PUSH2 0x34FF JUMP JUMPDEST DUP1 DUP6 AND ISZERO PUSH2 0x3878 JUMPI SWAP2 DUP2 MUL SWAP2 JUMPDEST SWAP4 DUP5 SHR SWAP4 SWAP1 DUP1 MUL SWAP1 PUSH2 0x3831 JUMP JUMPDEST POP SWAP3 POP SWAP3 SWAP1 POP JUMP JUMPDEST PUSH1 0x0 DUP3 PUSH2 0x389C JUMPI POP PUSH1 0x1 PUSH2 0xCEC JUMP JUMPDEST DUP2 PUSH2 0x38A9 JUMPI POP PUSH1 0x0 PUSH2 0xCEC JUMP JUMPDEST DUP2 PUSH1 0x1 DUP2 EQ PUSH2 0x38BF JUMPI PUSH1 0x2 DUP2 EQ PUSH2 0x38C9 JUMPI PUSH2 0x38E5 JUMP JUMPDEST PUSH1 0x1 SWAP2 POP POP PUSH2 0xCEC JUMP JUMPDEST PUSH1 0xFF DUP5 GT ISZERO PUSH2 0x38DA JUMPI PUSH2 0x38DA PUSH2 0x34FF JUMP JUMPDEST POP POP PUSH1 0x1 DUP3 SHL PUSH2 0xCEC JUMP JUMPDEST POP PUSH1 0x20 DUP4 LT PUSH2 0x133 DUP4 LT AND PUSH1 0x4E DUP5 LT PUSH1 0xB DUP5 LT AND OR ISZERO PUSH2 0x3908 JUMPI POP DUP2 DUP2 EXP PUSH2 0xCEC JUMP JUMPDEST PUSH2 0x3912 DUP4 DUP4 PUSH2 0x382C JUMP JUMPDEST DUP1 PUSH32 0xFFFFFFFFFFFFFFFFFFFFFFFFFFFFFFFFFFFFFFFFFFFFFFFFFFFFFFFFFFFFFFFF DIV DUP3 GT ISZERO PUSH2 0x3944 JUMPI PUSH2 0x3944 PUSH2 0x34FF JUMP JUMPDEST MUL SWAP4 SWAP3 POP POP POP JUMP JUMPDEST PUSH1 0x0 PUSH2 0xCE9 DUP4 DUP4 PUSH2 0x388D JUMP INVALID LOG1 PUSH5 0x736F6C6343 STOP ADDMOD SGT STOP EXP "},"methodIdentifiers":{"SUBSCRIPTION_ID()":"030932bb","acceptOwnership()":"79ba5097","calculateRequestPrice(uint32,uint32)":"27e5c50a","calculateRequestPriceNative(uint32,uint32)":"13c34b7f","checkPaymentMode(bytes,bool)":"18b6f4c8","disable()":"2f2770db","enable()":"a3907d71","estimateRequestPrice(uint32,uint32,uint256)":"0026501b","estimateRequestPriceNative(uint32,uint32,uint256)":"e1cab745","getConfig()":"c3f909d4","lastRequestId()":"fc2a88c3","link()":"1c4695f4","linkNativeFeed()":"2808e6c8","onTokenTransfer(address,uint256,bytes)":"a4c0ed36","owner()":"8da5cb5b","rawFulfillRandomWords(uint256,uint256[])":"1fe543e3","requestRandomWordsInNative(uint32,uint16,uint32,bytes)":"9cfc058e","s_callbacks(uint256)":"48baa1c5","s_configured()":"57a8070a","s_disabled()":"a608a1e1","s_fulfillmentTxSizeBytes()":"cdd8d885","s_vrfCoordinator()":"9eccacf6","setConfig(uint32,uint32,uint32,uint16,uint8,uint8,bytes32,uint8,uint32,int256,uint32,uint32)":"045343aa","setCoordinator(address)":"8ea98117","setFulfillmentTxSize(uint32)":"bf17e559","transferOwnership(address)":"f2fde38b","typeAndVersion()":"181f5a77","withdraw(address)":"51cff8d9","withdrawNative(address)":"2f622e6b"}}}}}