{"@chainlink/contracts/src/v0.8/vendor/@eth-optimism/contracts/v0.8.9/contracts/L2/predeploys/OVM_GasPriceOracle.sol":{"OVM_GasPriceOracle":{"abi":[{"inputs":[{"internalType":"address","name":"_owner","type":"address"}],"stateMutability":"nonpayable","type":"constructor"},{"anonymous":false,"inputs":[{"indexed":false,"internalType":"uint256","name":"","type":"uint256"}],"name":"DecimalsUpdated","type":"event"},{"anonymous":false,"inputs":[{"indexed":false,"internalType":"uint256","name":"","type":"uint256"}],"name":"GasPriceUpdated","type":"event"},{"anonymous":false,"inputs":[{"indexed":false,"internalType":"uint256","name":"","type":"uint256"}],"name":"L1BaseFeeUpdated","type":"event"},{"anonymous":false,"inputs":[{"indexed":false,"internalType":"uint256","name":"","type":"uint256"}],"name":"OverheadUpdated","type":"event"},{"anonymous":false,"inputs":[{"indexed":true,"internalType":"address","name":"previousOwner","type":"address"},{"indexed":true,"internalType":"address","name":"newOwner","type":"address"}],"name":"OwnershipTransferred","type":"event"},{"anonymous":false,"inputs":[{"indexed":false,"internalType":"uint256","name":"","type":"uint256"}],"name":"ScalarUpdated","type":"event"},{"inputs":[],"name":"decimals","outputs":[{"internalType":"uint256","name":"","type":"uint256"}],"stateMutability":"view","type":"function"},{"inputs":[],"name":"gasPrice","outputs":[{"internalType":"uint256","name":"","type":"uint256"}],"stateMutability":"view","type":"function"},{"inputs":[{"internalType":"bytes","name":"_data","type":"bytes"}],"name":"getL1Fee","outputs":[{"internalType":"uint256","name":"","type":"uint256"}],"stateMutability":"view","type":"function"},{"inputs":[{"internalType":"bytes","name":"_data","type":"bytes"}],"name":"getL1GasUsed","outputs":[{"internalType":"uint256","name":"","type":"uint256"}],"stateMutability":"view","type":"function"},{"inputs":[],"name":"l1BaseFee","outputs":[{"internalType":"uint256","name":"","type":"uint256"}],"stateMutability":"view","type":"function"},{"inputs":[],"name":"overhead","outputs":[{"internalType":"uint256","name":"","type":"uint256"}],"stateMutability":"view","type":"function"},{"inputs":[],"name":"owner","outputs":[{"internalType":"address","name":"","type":"address"}],"stateMutability":"view","type":"function"},{"inputs":[],"name":"renounceOwnership","outputs":[],"stateMutability":"nonpayable","type":"function"},{"inputs":[],"name":"scalar","outputs":[{"internalType":"uint256","name":"","type":"uint256"}],"stateMutability":"view","type":"function"},{"inputs":[{"internalType":"uint256","name":"_decimals","type":"uint256"}],"name":"setDecimals","outputs":[],"stateMutability":"nonpayable","type":"function"},{"inputs":[{"internalType":"uint256","name":"_gasPrice","type":"uint256"}],"name":"setGasPrice","outputs":[],"stateMutability":"nonpayable","type":"function"},{"inputs":[{"internalType":"uint256","name":"_baseFee","type":"uint256"}],"name":"setL1BaseFee","outputs":[],"stateMutability":"nonpayable","type":"function"},{"inputs":[{"internalType":"uint256","name":"_overhead","type":"uint256"}],"name":"setOverhead","outputs":[],"stateMutability":"nonpayable","type":"function"},{"inputs":[{"internalType":"uint256","name":"_scalar","type":"uint256"}],"name":"setScalar","outputs":[],"stateMutability":"nonpayable","type":"function"},{"inputs":[{"internalType":"address","name":"newOwner","type":"address"}],"name":"transferOwnership","outputs":[],"stateMutability":"nonpayable","type":"function"}],"evm":{"bytecode":{"linkReferences":{},"object":"608060405234801561001057600080fd5b50604051610b43380380610b4383398101604081905261002f91610171565b61003833610047565b61004181610097565b506101a1565b600080546001600160a01b038381166001600160a01b0319831681178455604051919092169283917f8be0079c531659141344cd1fd0a4f28419497f9722a3daafe3b4186f6b6457e09190a35050565b61009f610115565b6001600160a01b0381166101095760405162461bcd60e51b815260206004820152602660248201527f4f776e61626c653a206e6577206f776e657220697320746865207a65726f206160448201526564647265737360d01b60648201526084015b60405180910390fd5b61011281610047565b50565b6000546001600160a01b0316331461016f5760405162461bcd60e51b815260206004820181905260248201527f4f776e61626c653a2063616c6c6572206973206e6f7420746865206f776e65726044820152606401610100565b565b60006020828403121561018357600080fd5b81516001600160a01b038116811461019a57600080fd5b9392505050565b610993806101b06000396000f3fe608060405234801561001057600080fd5b50600436106100f55760003560e01c80638c8885c811610097578063de26c4a111610066578063de26c4a1146101cc578063f2fde38b146101df578063f45e65d8146101f2578063fe173b97146101fb57600080fd5b80638c8885c81461016b5780638da5cb5b1461017e578063bede39b5146101a6578063bf1fe420146101b957600080fd5b806349948e0e116100d357806349948e0e14610134578063519b4bd3146101475780637046559714610150578063715018a61461016357600080fd5b80630c18c162146100fa578063313ce567146101165780633577afc51461011f575b600080fd5b61010360035481565b6040519081526020015b60405180910390f35b61010360055481565b61013261012d366004610605565b610204565b005b61010361014236600461064d565b610248565b61010360025481565b61013261015e366004610605565b6102a4565b6101326102e1565b610132610179366004610605565b6102f5565b60005460405173ffffffffffffffffffffffffffffffffffffffff909116815260200161010d565b6101326101b4366004610605565b610332565b6101326101c7366004610605565b61036f565b6101036101da36600461064d565b6103ac565b6101326101ed36600461071c565b610453565b61010360045481565b61010360015481565b61020c61050f565b60038190556040518181527f32740b35c0ea213650f60d44366b4fb211c9033b50714e4a1d34e65d5beb9bb4906020015b60405180910390a150565b600080610254836103ac565b90506000600254826102669190610788565b90506000600554600a61027991906108c5565b905060006004548361028b9190610788565b9050600061029983836108d1565b979650505050505050565b6102ac61050f565b60048190556040518181527f3336cd9708eaf2769a0f0dc0679f30e80f15dcd88d1921b5a16858e8b85c591a9060200161023d565b6102e961050f565b6102f36000610590565b565b6102fd61050f565b60058190556040518181527fd68112a8707e326d08be3656b528c1bcc5bbbfc47f4177e2179b14d8640838c19060200161023d565b61033a61050f565b60028190556040518181527f351fb23757bb5ea0546c85b7996ddd7155f96b939ebaa5ff7bc49c75f27f2c449060200161023d565b61037761050f565b60018190556040518181527ffcdccc6074c6c42e4bd578aa9870c697dc976a270968452d2b8c8dc369fae3969060200161023d565b600080805b835181101561042c578381815181106103cc576103cc61090c565b01602001517fff000000000000000000000000000000000000000000000000000000000000001660000361040c5761040560048361093b565b915061041a565b61041760108361093b565b91505b806104248161094e565b9150506103b1565b5060006003548261043d919061093b565b905061044b8161044061093b565b949350505050565b61045b61050f565b73ffffffffffffffffffffffffffffffffffffffff8116610503576040517f08c379a000000000000000000000000000000000000000000000000000000000815260206004820152602660248201527f4f776e61626c653a206e6577206f776e657220697320746865207a65726f206160448201527f646472657373000000000000000000000000000000000000000000000000000060648201526084015b60405180910390fd5b61050c81610590565b50565b60005473ffffffffffffffffffffffffffffffffffffffff1633146102f3576040517f08c379a000000000000000000000000000000000000000000000000000000000815260206004820181905260248201527f4f776e61626c653a2063616c6c6572206973206e6f7420746865206f776e657260448201526064016104fa565b6000805473ffffffffffffffffffffffffffffffffffffffff8381167fffffffffffffffffffffffff0000000000000000000000000000000000000000831681178455604051919092169283917f8be0079c531659141344cd1fd0a4f28419497f9722a3daafe3b4186f6b6457e09190a35050565b60006020828403121561061757600080fd5b5035919050565b7f4e487b7100000000000000000000000000000000000000000000000000000000600052604160045260246000fd5b60006020828403121561065f57600080fd5b813567ffffffffffffffff8082111561067757600080fd5b818401915084601f83011261068b57600080fd5b81358181111561069d5761069d61061e565b604051601f82017fffffffffffffffffffffffffffffffffffffffffffffffffffffffffffffffe0908116603f011681019083821181831017156106e3576106e361061e565b816040528281528760208487010111156106fc57600080fd5b826020860160208301376000928101602001929092525095945050505050565b60006020828403121561072e57600080fd5b813573ffffffffffffffffffffffffffffffffffffffff8116811461075257600080fd5b9392505050565b7f4e487b7100000000000000000000000000000000000000000000000000000000600052601160045260246000fd5b808202811582820484141761079f5761079f610759565b92915050565b600181815b808511156107fe57817fffffffffffffffffffffffffffffffffffffffffffffffffffffffffffffffff048211156107e4576107e4610759565b808516156107f157918102915b93841c93908002906107aa565b509250929050565b6000826108155750600161079f565b816108225750600061079f565b816001811461083857600281146108425761085e565b600191505061079f565b60ff84111561085357610853610759565b50506001821b61079f565b5060208310610133831016604e8410600b8410161715610881575081810a61079f565b61088b83836107a5565b807fffffffffffffffffffffffffffffffffffffffffffffffffffffffffffffffff048211156108bd576108bd610759565b029392505050565b60006107528383610806565b600082610907577f4e487b7100000000000000000000000000000000000000000000000000000000600052601260045260246000fd5b500490565b7f4e487b7100000000000000000000000000000000000000000000000000000000600052603260045260246000fd5b8082018082111561079f5761079f610759565b60007fffffffffffffffffffffffffffffffffffffffffffffffffffffffffffffffff820361097f5761097f610759565b506001019056fea164736f6c6343000813000a","opcodes":"PUSH1 0x80 PUSH1 0x40 MSTORE CALLVALUE DUP1 ISZERO PUSH2 0x10 JUMPI PUSH1 0x0 DUP1 REVERT JUMPDEST POP PUSH1 0x40 MLOAD PUSH2 0xB43 CODESIZE SUB DUP1 PUSH2 0xB43 DUP4 CODECOPY DUP2 ADD PUSH1 0x40 DUP2 SWAP1 MSTORE PUSH2 0x2F SWAP2 PUSH2 0x171 JUMP JUMPDEST PUSH2 0x38 CALLER PUSH2 0x47 JUMP JUMPDEST PUSH2 0x41 DUP2 PUSH2 0x97 JUMP JUMPDEST POP PUSH2 0x1A1 JUMP JUMPDEST PUSH1 0x0 DUP1 SLOAD PUSH1 0x1 PUSH1 0x1 PUSH1 0xA0 SHL SUB DUP4 DUP2 AND PUSH1 0x1 PUSH1 0x1 PUSH1 0xA0 SHL SUB NOT DUP4 AND DUP2 OR DUP5 SSTORE PUSH1 0x40 MLOAD SWAP2 SWAP1 SWAP3 AND SWAP3 DUP4 SWAP2 PUSH32 0x8BE0079C531659141344CD1FD0A4F28419497F9722A3DAAFE3B4186F6B6457E0 SWAP2 SWAP1 LOG3 POP POP JUMP JUMPDEST PUSH2 0x9F PUSH2 0x115 JUMP JUMPDEST PUSH1 0x1 PUSH1 0x1 PUSH1 0xA0 SHL SUB DUP2 AND PUSH2 0x109 JUMPI PUSH1 0x40 MLOAD PUSH3 0x461BCD PUSH1 0xE5 SHL DUP2 MSTORE PUSH1 0x20 PUSH1 0x4 DUP3 ADD MSTORE PUSH1 0x26 PUSH1 0x24 DUP3 ADD MSTORE PUSH32 0x4F776E61626C653A206E6577206F776E657220697320746865207A65726F2061 PUSH1 0x44 DUP3 ADD MSTORE PUSH6 0x646472657373 PUSH1 0xD0 SHL PUSH1 0x64 DUP3 ADD MSTORE PUSH1 0x84 ADD JUMPDEST PUSH1 0x40 MLOAD DUP1 SWAP2 SUB SWAP1 REVERT JUMPDEST PUSH2 0x112 DUP2 PUSH2 0x47 JUMP JUMPDEST POP JUMP JUMPDEST PUSH1 0x0 SLOAD PUSH1 0x1 PUSH1 0x1 PUSH1 0xA0 SHL SUB AND CALLER EQ PUSH2 0x16F JUMPI PUSH1 0x40 MLOAD PUSH3 0x461BCD PUSH1 0xE5 SHL DUP2 MSTORE PUSH1 0x20 PUSH1 0x4 DUP3 ADD DUP2 SWAP1 MSTORE PUSH1 0x24 DUP3 ADD MSTORE PUSH32 0x4F776E61626C653A2063616C6C6572206973206E6F7420746865206F776E6572 PUSH1 0x44 DUP3 ADD MSTORE PUSH1 0x64 ADD PUSH2 0x100 JUMP JUMPDEST JUMP JUMPDEST PUSH1 0x0 PUSH1 0x20 DUP3 DUP5 SUB SLT ISZERO PUSH2 0x183 JUMPI PUSH1 0x0 DUP1 REVERT JUMPDEST DUP2 MLOAD PUSH1 0x1 PUSH1 0x1 PUSH1 0xA0 SHL SUB DUP2 AND DUP2 EQ PUSH2 0x19A JUMPI PUSH1 0x0 DUP1 REVERT JUMPDEST SWAP4 SWAP3 POP POP POP JUMP JUMPDEST PUSH2 0x993 DUP1 PUSH2 0x1B0 PUSH1 0x0 CODECOPY PUSH1 0x0 RETURN INVALID PUSH1 0x80 PUSH1 0x40 MSTORE CALLVALUE DUP1 ISZERO PUSH2 0x10 JUMPI PUSH1 0x0 DUP1 REVERT JUMPDEST POP PUSH1 0x4 CALLDATASIZE LT PUSH2 0xF5 JUMPI PUSH1 0x0 CALLDATALOAD PUSH1 0xE0 SHR DUP1 PUSH4 0x8C8885C8 GT PUSH2 0x97 JUMPI DUP1 PUSH4 0xDE26C4A1 GT PUSH2 0x66 JUMPI DUP1 PUSH4 0xDE26C4A1 EQ PUSH2 0x1CC JUMPI DUP1 PUSH4 0xF2FDE38B EQ PUSH2 0x1DF JUMPI DUP1 PUSH4 0xF45E65D8 EQ PUSH2 0x1F2 JUMPI DUP1 PUSH4 0xFE173B97 EQ PUSH2 0x1FB JUMPI PUSH1 0x0 DUP1 REVERT JUMPDEST DUP1 PUSH4 0x8C8885C8 EQ PUSH2 0x16B JUMPI DUP1 PUSH4 0x8DA5CB5B EQ PUSH2 0x17E JUMPI DUP1 PUSH4 0xBEDE39B5 EQ PUSH2 0x1A6 JUMPI DUP1 PUSH4 0xBF1FE420 EQ PUSH2 0x1B9 JUMPI PUSH1 0x0 DUP1 REVERT JUMPDEST DUP1 PUSH4 0x49948E0E GT PUSH2 0xD3 JUMPI DUP1 PUSH4 0x49948E0E EQ PUSH2 0x134 JUMPI DUP1 PUSH4 0x519B4BD3 EQ PUSH2 0x147 JUMPI DUP1 PUSH4 0x70465597 EQ PUSH2 0x150 JUMPI DUP1 PUSH4 0x715018A6 EQ PUSH2 0x163 JUMPI PUSH1 0x0 DUP1 REVERT JUMPDEST DUP1 PUSH4 0xC18C162 EQ PUSH2 0xFA JUMPI DUP1 PUSH4 0x313CE567 EQ PUSH2 0x116 JUMPI DUP1 PUSH4 0x3577AFC5 EQ PUSH2 0x11F JUMPI JUMPDEST PUSH1 0x0 DUP1 REVERT JUMPDEST PUSH2 0x103 PUSH1 0x3 SLOAD DUP2 JUMP JUMPDEST PUSH1 0x40 MLOAD SWAP1 DUP2 MSTORE PUSH1 0x20 ADD JUMPDEST PUSH1 0x40 MLOAD DUP1 SWAP2 SUB SWAP1 RETURN JUMPDEST PUSH2 0x103 PUSH1 0x5 SLOAD DUP2 JUMP JUMPDEST PUSH2 0x132 PUSH2 0x12D CALLDATASIZE PUSH1 0x4 PUSH2 0x605 JUMP JUMPDEST PUSH2 0x204 JUMP JUMPDEST STOP JUMPDEST PUSH2 0x103 PUSH2 0x142 CALLDATASIZE PUSH1 0x4 PUSH2 0x64D JUMP JUMPDEST PUSH2 0x248 JUMP JUMPDEST PUSH2 0x103 PUSH1 0x2 SLOAD DUP2 JUMP JUMPDEST PUSH2 0x132 PUSH2 0x15E CALLDATASIZE PUSH1 0x4 PUSH2 0x605 JUMP JUMPDEST PUSH2 0x2A4 JUMP JUMPDEST PUSH2 0x132 PUSH2 0x2E1 JUMP JUMPDEST PUSH2 0x132 PUSH2 0x179 CALLDATASIZE PUSH1 0x4 PUSH2 0x605 JUMP JUMPDEST PUSH2 0x2F5 JUMP JUMPDEST PUSH1 0x0 SLOAD PUSH1 0x40 MLOAD PUSH20 0xFFFFFFFFFFFFFFFFFFFFFFFFFFFFFFFFFFFFFFFF SWAP1 SWAP2 AND DUP2 MSTORE PUSH1 0x20 ADD PUSH2 0x10D JUMP JUMPDEST PUSH2 0x132 PUSH2 0x1B4 CALLDATASIZE PUSH1 0x4 PUSH2 0x605 JUMP JUMPDEST PUSH2 0x332 JUMP JUMPDEST PUSH2 0x132 PUSH2 0x1C7 CALLDATASIZE PUSH1 0x4 PUSH2 0x605 JUMP JUMPDEST PUSH2 0x36F JUMP JUMPDEST PUSH2 0x103 PUSH2 0x1DA CALLDATASIZE PUSH1 0x4 PUSH2 0x64D JUMP JUMPDEST PUSH2 0x3AC JUMP JUMPDEST PUSH2 0x132 PUSH2 0x1ED CALLDATASIZE PUSH1 0x4 PUSH2 0x71C JUMP JUMPDEST PUSH2 0x453 JUMP JUMPDEST PUSH2 0x103 PUSH1 0x4 SLOAD DUP2 JUMP JUMPDEST PUSH2 0x103 PUSH1 0x1 SLOAD DUP2 JUMP JUMPDEST PUSH2 0x20C PUSH2 0x50F JUMP JUMPDEST PUSH1 0x3 DUP2 SWAP1 SSTORE PUSH1 0x40 MLOAD DUP2 DUP2 MSTORE PUSH32 0x32740B35C0EA213650F60D44366B4FB211C9033B50714E4A1D34E65D5BEB9BB4 SWAP1 PUSH1 0x20 ADD JUMPDEST PUSH1 0x40 MLOAD DUP1 SWAP2 SUB SWAP1 LOG1 POP JUMP JUMPDEST PUSH1 0x0 DUP1 PUSH2 0x254 DUP4 PUSH2 0x3AC JUMP JUMPDEST SWAP1 POP PUSH1 0x0 PUSH1 0x2 SLOAD DUP3 PUSH2 0x266 SWAP2 SWAP1 PUSH2 0x788 JUMP JUMPDEST SWAP1 POP PUSH1 0x0 PUSH1 0x5 SLOAD PUSH1 0xA PUSH2 0x279 SWAP2 SWAP1 PUSH2 0x8C5 JUMP JUMPDEST SWAP1 POP PUSH1 0x0 PUSH1 0x4 SLOAD DUP4 PUSH2 0x28B SWAP2 SWAP1 PUSH2 0x788 JUMP JUMPDEST SWAP1 POP PUSH1 0x0 PUSH2 0x299 DUP4 DUP4 PUSH2 0x8D1 JUMP JUMPDEST SWAP8 SWAP7 POP POP POP POP POP POP POP JUMP JUMPDEST PUSH2 0x2AC PUSH2 0x50F JUMP JUMPDEST PUSH1 0x4 DUP2 SWAP1 SSTORE PUSH1 0x40 MLOAD DUP2 DUP2 MSTORE PUSH32 0x3336CD9708EAF2769A0F0DC0679F30E80F15DCD88D1921B5A16858E8B85C591A SWAP1 PUSH1 0x20 ADD PUSH2 0x23D JUMP JUMPDEST PUSH2 0x2E9 PUSH2 0x50F JUMP JUMPDEST PUSH2 0x2F3 PUSH1 0x0 PUSH2 0x590 JUMP JUMPDEST JUMP JUMPDEST PUSH2 0x2FD PUSH2 0x50F JUMP JUMPDEST PUSH1 0x5 DUP2 SWAP1 SSTORE PUSH1 0x40 MLOAD DUP2 DUP2 MSTORE PUSH32 0xD68112A8707E326D08BE3656B528C1BCC5BBBFC47F4177E2179B14D8640838C1 SWAP1 PUSH1 0x20 ADD PUSH2 0x23D JUMP JUMPDEST PUSH2 0x33A PUSH2 0x50F JUMP JUMPDEST PUSH1 0x2 DUP2 SWAP1 SSTORE PUSH1 0x40 MLOAD DUP2 DUP2 MSTORE PUSH32 0x351FB23757BB5EA0546C85B7996DDD7155F96B939EBAA5FF7BC49C75F27F2C44 SWAP1 PUSH1 0x20 ADD PUSH2 0x23D JUMP JUMPDEST PUSH2 0x377 PUSH2 0x50F JUMP JUMPDEST PUSH1 0x1 DUP2 SWAP1 SSTORE PUSH1 0x40 MLOAD DUP2 DUP2 MSTORE PUSH32 0xFCDCCC6074C6C42E4BD578AA9870C697DC976A270968452D2B8C8DC369FAE396 SWAP1 PUSH1 0x20 ADD PUSH2 0x23D JUMP JUMPDEST PUSH1 0x0 DUP1 DUP1 JUMPDEST DUP4 MLOAD DUP2 LT ISZERO PUSH2 0x42C JUMPI DUP4 DUP2 DUP2 MLOAD DUP2 LT PUSH2 0x3CC JUMPI PUSH2 0x3CC PUSH2 0x90C JUMP JUMPDEST ADD PUSH1 0x20 ADD MLOAD PUSH32 0xFF00000000000000000000000000000000000000000000000000000000000000 AND PUSH1 0x0 SUB PUSH2 0x40C JUMPI PUSH2 0x405 PUSH1 0x4 DUP4 PUSH2 0x93B JUMP JUMPDEST SWAP2 POP PUSH2 0x41A JUMP JUMPDEST PUSH2 0x417 PUSH1 0x10 DUP4 PUSH2 0x93B JUMP JUMPDEST SWAP2 POP JUMPDEST DUP1 PUSH2 0x424 DUP2 PUSH2 0x94E JUMP JUMPDEST SWAP2 POP POP PUSH2 0x3B1 JUMP JUMPDEST POP PUSH1 0x0 PUSH1 0x3 SLOAD DUP3 PUSH2 0x43D SWAP2 SWAP1 PUSH2 0x93B JUMP JUMPDEST SWAP1 POP PUSH2 0x44B DUP2 PUSH2 0x440 PUSH2 0x93B JUMP JUMPDEST SWAP5 SWAP4 POP POP POP POP JUMP JUMPDEST PUSH2 0x45B PUSH2 0x50F JUMP JUMPDEST PUSH20 0xFFFFFFFFFFFFFFFFFFFFFFFFFFFFFFFFFFFFFFFF DUP2 AND PUSH2 0x503 JUMPI PUSH1 0x40 MLOAD PUSH32 0x8C379A000000000000000000000000000000000000000000000000000000000 DUP2 MSTORE PUSH1 0x20 PUSH1 0x4 DUP3 ADD MSTORE PUSH1 0x26 PUSH1 0x24 DUP3 ADD MSTORE PUSH32 0x4F776E61626C653A206E6577206F776E657220697320746865207A65726F2061 PUSH1 0x44 DUP3 ADD MSTORE PUSH32 0x6464726573730000000000000000000000000000000000000000000000000000 PUSH1 0x64 DUP3 ADD MSTORE PUSH1 0x84 ADD JUMPDEST PUSH1 0x40 MLOAD DUP1 SWAP2 SUB SWAP1 REVERT JUMPDEST PUSH2 0x50C DUP2 PUSH2 0x590 JUMP JUMPDEST POP JUMP JUMPDEST PUSH1 0x0 SLOAD PUSH20 0xFFFFFFFFFFFFFFFFFFFFFFFFFFFFFFFFFFFFFFFF AND CALLER EQ PUSH2 0x2F3 JUMPI PUSH1 0x40 MLOAD PUSH32 0x8C379A000000000000000000000000000000000000000000000000000000000 DUP2 MSTORE PUSH1 0x20 PUSH1 0x4 DUP3 ADD DUP2 SWAP1 MSTORE PUSH1 0x24 DUP3 ADD MSTORE PUSH32 0x4F776E61626C653A2063616C6C6572206973206E6F7420746865206F776E6572 PUSH1 0x44 DUP3 ADD MSTORE PUSH1 0x64 ADD PUSH2 0x4FA JUMP JUMPDEST PUSH1 0x0 DUP1 SLOAD PUSH20 0xFFFFFFFFFFFFFFFFFFFFFFFFFFFFFFFFFFFFFFFF DUP4 DUP2 AND PUSH32 0xFFFFFFFFFFFFFFFFFFFFFFFF0000000000000000000000000000000000000000 DUP4 AND DUP2 OR DUP5 SSTORE PUSH1 0x40 MLOAD SWAP2 SWAP1 SWAP3 AND SWAP3 DUP4 SWAP2 PUSH32 0x8BE0079C531659141344CD1FD0A4F28419497F9722A3DAAFE3B4186F6B6457E0 SWAP2 SWAP1 LOG3 POP POP JUMP JUMPDEST PUSH1 0x0 PUSH1 0x20 DUP3 DUP5 SUB SLT ISZERO PUSH2 0x617 JUMPI PUSH1 0x0 DUP1 REVERT JUMPDEST POP CALLDATALOAD SWAP2 SWAP1 POP JUMP JUMPDEST PUSH32 0x4E487B7100000000000000000000000000000000000000000000000000000000 PUSH1 0x0 MSTORE PUSH1 0x41 PUSH1 0x4 MSTORE PUSH1 0x24 PUSH1 0x0 REVERT JUMPDEST PUSH1 0x0 PUSH1 0x20 DUP3 DUP5 SUB SLT ISZERO PUSH2 0x65F JUMPI PUSH1 0x0 DUP1 REVERT JUMPDEST DUP2 CALLDATALOAD PUSH8 0xFFFFFFFFFFFFFFFF DUP1 DUP3 GT ISZERO PUSH2 0x677 JUMPI PUSH1 0x0 DUP1 REVERT JUMPDEST DUP2 DUP5 ADD SWAP2 POP DUP5 PUSH1 0x1F DUP4 ADD SLT PUSH2 0x68B JUMPI PUSH1 0x0 DUP1 REVERT JUMPDEST DUP2 CALLDATALOAD DUP2 DUP2 GT ISZERO PUSH2 0x69D JUMPI PUSH2 0x69D PUSH2 0x61E JUMP JUMPDEST PUSH1 0x40 MLOAD PUSH1 0x1F DUP3 ADD PUSH32 0xFFFFFFFFFFFFFFFFFFFFFFFFFFFFFFFFFFFFFFFFFFFFFFFFFFFFFFFFFFFFFFE0 SWAP1 DUP2 AND PUSH1 0x3F ADD AND DUP2 ADD SWAP1 DUP4 DUP3 GT DUP2 DUP4 LT OR ISZERO PUSH2 0x6E3 JUMPI PUSH2 0x6E3 PUSH2 0x61E JUMP JUMPDEST DUP2 PUSH1 0x40 MSTORE DUP3 DUP2 MSTORE DUP8 PUSH1 0x20 DUP5 DUP8 ADD ADD GT ISZERO PUSH2 0x6FC JUMPI PUSH1 0x0 DUP1 REVERT JUMPDEST DUP3 PUSH1 0x20 DUP7 ADD PUSH1 0x20 DUP4 ADD CALLDATACOPY PUSH1 0x0 SWAP3 DUP2 ADD PUSH1 0x20 ADD SWAP3 SWAP1 SWAP3 MSTORE POP SWAP6 SWAP5 POP POP POP POP POP JUMP JUMPDEST PUSH1 0x0 PUSH1 0x20 DUP3 DUP5 SUB SLT ISZERO PUSH2 0x72E JUMPI PUSH1 0x0 DUP1 REVERT JUMPDEST DUP2 CALLDATALOAD PUSH20 0xFFFFFFFFFFFFFFFFFFFFFFFFFFFFFFFFFFFFFFFF DUP2 AND DUP2 EQ PUSH2 0x752 JUMPI PUSH1 0x0 DUP1 REVERT JUMPDEST SWAP4 SWAP3 POP POP POP JUMP JUMPDEST PUSH32 0x4E487B7100000000000000000000000000000000000000000000000000000000 PUSH1 0x0 MSTORE PUSH1 0x11 PUSH1 0x4 MSTORE PUSH1 0x24 PUSH1 0x0 REVERT JUMPDEST DUP1 DUP3 MUL DUP2 ISZERO DUP3 DUP3 DIV DUP5 EQ OR PUSH2 0x79F JUMPI PUSH2 0x79F PUSH2 0x759 JUMP JUMPDEST SWAP3 SWAP2 POP POP JUMP JUMPDEST PUSH1 0x1 DUP2 DUP2 JUMPDEST DUP1 DUP6 GT ISZERO PUSH2 0x7FE JUMPI DUP2 PUSH32 0xFFFFFFFFFFFFFFFFFFFFFFFFFFFFFFFFFFFFFFFFFFFFFFFFFFFFFFFFFFFFFFFF DIV DUP3 GT ISZERO PUSH2 0x7E4 JUMPI PUSH2 0x7E4 PUSH2 0x759 JUMP JUMPDEST DUP1 DUP6 AND ISZERO PUSH2 0x7F1 JUMPI SWAP2 DUP2 MUL SWAP2 JUMPDEST SWAP4 DUP5 SHR SWAP4 SWAP1 DUP1 MUL SWAP1 PUSH2 0x7AA JUMP JUMPDEST POP SWAP3 POP SWAP3 SWAP1 POP JUMP JUMPDEST PUSH1 0x0 DUP3 PUSH2 0x815 JUMPI POP PUSH1 0x1 PUSH2 0x79F JUMP JUMPDEST DUP2 PUSH2 0x822 JUMPI POP PUSH1 0x0 PUSH2 0x79F JUMP JUMPDEST DUP2 PUSH1 0x1 DUP2 EQ PUSH2 0x838 JUMPI PUSH1 0x2 DUP2 EQ PUSH2 0x842 JUMPI PUSH2 0x85E JUMP JUMPDEST PUSH1 0x1 SWAP2 POP POP PUSH2 0x79F JUMP JUMPDEST PUSH1 0xFF DUP5 GT ISZERO PUSH2 0x853 JUMPI PUSH2 0x853 PUSH2 0x759 JUMP JUMPDEST POP POP PUSH1 0x1 DUP3 SHL PUSH2 0x79F JUMP JUMPDEST POP PUSH1 0x20 DUP4 LT PUSH2 0x133 DUP4 LT AND PUSH1 0x4E DUP5 LT PUSH1 0xB DUP5 LT AND OR ISZERO PUSH2 0x881 JUMPI POP DUP2 DUP2 EXP PUSH2 0x79F JUMP JUMPDEST PUSH2 0x88B DUP4 DUP4 PUSH2 0x7A5 JUMP JUMPDEST DUP1 PUSH32 0xFFFFFFFFFFFFFFFFFFFFFFFFFFFFFFFFFFFFFFFFFFFFFFFFFFFFFFFFFFFFFFFF DIV DUP3 GT ISZERO PUSH2 0x8BD JUMPI PUSH2 0x8BD PUSH2 0x759 JUMP JUMPDEST MUL SWAP4 SWAP3 POP POP POP JUMP JUMPDEST PUSH1 0x0 PUSH2 0x752 DUP4 DUP4 PUSH2 0x806 JUMP JUMPDEST PUSH1 0x0 DUP3 PUSH2 0x907 JUMPI PUSH32 0x4E487B7100000000000000000000000000000000000000000000000000000000 PUSH1 0x0 MSTORE PUSH1 0x12 PUSH1 0x4 MSTORE PUSH1 0x24 PUSH1 0x0 REVERT JUMPDEST POP DIV SWAP1 JUMP JUMPDEST PUSH32 0x4E487B7100000000000000000000000000000000000000000000000000000000 PUSH1 0x0 MSTORE PUSH1 0x32 PUSH1 0x4 MSTORE PUSH1 0x24 PUSH1 0x0 REVERT JUMPDEST DUP1 DUP3 ADD DUP1 DUP3 GT ISZERO PUSH2 0x79F JUMPI PUSH2 0x79F PUSH2 0x759 JUMP JUMPDEST PUSH1 0x0 PUSH32 0xFFFFFFFFFFFFFFFFFFFFFFFFFFFFFFFFFFFFFFFFFFFFFFFFFFFFFFFFFFFFFFFF DUP3 SUB PUSH2 0x97F JUMPI PUSH2 0x97F PUSH2 0x759 JUMP JUMPDEST POP PUSH1 0x1 ADD SWAP1 JUMP INVALID LOG1 PUSH5 0x736F6C6343 STOP ADDMOD SGT STOP EXP "},"methodIdentifiers":{"decimals()":"313ce567","gasPrice()":"fe173b97","getL1Fee(bytes)":"49948e0e","getL1GasUsed(bytes)":"de26c4a1","l1BaseFee()":"519b4bd3","overhead()":"0c18c162","owner()":"8da5cb5b","renounceOwnership()":"715018a6","scalar()":"f45e65d8","setDecimals(uint256)":"8c8885c8","setGasPrice(uint256)":"bf1fe420","setL1BaseFee(uint256)":"bede39b5","setOverhead(uint256)":"3577afc5","setScalar(uint256)":"70465597","transferOwnership(address)":"f2fde38b"}}}}}