{
  "_format": "hh-sol-artifact-1",
  "contractName": "VRFCoordinatorV2_5Mock",
  "sourceName": "@chainlink/contracts/src/v0.8/vrf/mocks/VRFCoordinatorV2_5Mock.sol",
  "abi": [
    {
      "inputs": [
        {
          "internalType": "uint96",
          "name": "_baseFee",
          "type": "uint96"
        },
        {
          "internalType": "uint96",
          "name": "_gasPrice",
          "type": "uint96"
        },
        {
          "internalType": "int256",
          "name": "_weiPerUnitLink",
          "type": "int256"
        }
      ],
      "stateMutability": "nonpayable",
      "type": "constructor"
    },
    {
      "inputs": [
        {
          "internalType": "uint256",
          "name": "internalBalance",
          "type": "uint256"
        },
        {
          "internalType": "uint256",
          "name": "externalBalance",
          "type": "uint256"
        }
      ],
      "name": "BalanceInvariantViolated",
      "type": "error"
    },
    {
      "inputs": [],
      "name": "FailedToSendNative",
      "type": "error"
    },
    {
      "inputs": [],
      "name": "FailedToTransferLink",
      "type": "error"
    },
    {
      "inputs": [],
      "name": "IndexOutOfRange",
      "type": "error"
    },
    {
      "inputs": [],
      "name": "InsufficientBalance",
      "type": "error"
    },
    {
      "inputs": [],
      "name": "InvalidCalldata",
      "type": "error"
    },
    {
      "inputs": [
        {
          "internalType": "uint256",
          "name": "subId",
          "type": "uint256"
        },
        {
          "internalType": "address",
          "name": "consumer",
          "type": "address"
        }
      ],
      "name": "InvalidConsumer",
      "type": "error"
    },
    {
      "inputs": [],
      "name": "InvalidExtraArgsTag",
      "type": "error"
    },
    {
      "inputs": [],
      "name": "InvalidRandomWords",
      "type": "error"
    },
    {
      "inputs": [],
      "name": "InvalidRequest",
      "type": "error"
    },
    {
      "inputs": [],
      "name": "InvalidSubscription",
      "type": "error"
    },
    {
      "inputs": [],
      "name": "LinkAlreadySet",
      "type": "error"
    },
    {
      "inputs": [],
      "name": "LinkNotSet",
      "type": "error"
    },
    {
      "inputs": [
        {
          "internalType": "address",
          "name": "proposedOwner",
          "type": "address"
        }
      ],
      "name": "MustBeRequestedOwner",
      "type": "error"
    },
    {
      "inputs": [
        {
          "internalType": "address",
          "name": "owner",
          "type": "address"
        }
      ],
      "name": "MustBeSubOwner",
      "type": "error"
    },
    {
      "inputs": [],
      "name": "NotImplemented",
      "type": "error"
    },
    {
      "inputs": [],
      "name": "OnlyCallableFromLink",
      "type": "error"
    },
    {
      "inputs": [],
      "name": "PendingRequestExists",
      "type": "error"
    },
    {
      "inputs": [],
      "name": "Reentrant",
      "type": "error"
    },
    {
      "inputs": [],
      "name": "TooManyConsumers",
      "type": "error"
    },
    {
      "anonymous": false,
      "inputs": [],
      "name": "ConfigSet",
      "type": "event"
    },
    {
      "anonymous": false,
      "inputs": [
        {
          "indexed": false,
          "internalType": "address",
          "name": "to",
          "type": "address"
        },
        {
          "indexed": false,
          "internalType": "uint256",
          "name": "amount",
          "type": "uint256"
        }
      ],
      "name": "FundsRecovered",
      "type": "event"
    },
    {
      "anonymous": false,
      "inputs": [
        {
          "indexed": false,
          "internalType": "address",
          "name": "to",
          "type": "address"
        },
        {
          "indexed": false,
          "internalType": "uint256",
          "name": "amount",
          "type": "uint256"
        }
      ],
      "name": "NativeFundsRecovered",
      "type": "event"
    },
    {
      "anonymous": false,
      "inputs": [
        {
          "indexed": true,
          "internalType": "address",
          "name": "from",
          "type": "address"
        },
        {
          "indexed": true,
          "internalType": "address",
          "name": "to",
          "type": "address"
        }
      ],
      "name": "OwnershipTransferRequested",
      "type": "event"
    },
    {
      "anonymous": false,
      "inputs": [
        {
          "indexed": true,
          "internalType": "address",
          "name": "from",
          "type": "address"
        },
        {
          "indexed": true,
          "internalType": "address",
          "name": "to",
          "type": "address"
        }
      ],
      "name": "OwnershipTransferred",
      "type": "event"
    },
    {
      "anonymous": false,
      "inputs": [
        {
          "indexed": true,
          "internalType": "uint256",
          "name": "requestId",
          "type": "uint256"
        },
        {
          "indexed": false,
          "internalType": "uint256",
          "name": "outputSeed",
          "type": "uint256"
        },
        {
          "indexed": true,
          "internalType": "uint256",
          "name": "subId",
          "type": "uint256"
        },
        {
          "indexed": false,
          "internalType": "uint96",
          "name": "payment",
          "type": "uint96"
        },
        {
          "indexed": false,
          "internalType": "bool",
          "name": "nativePayment",
          "type": "bool"
        },
        {
          "indexed": false,
          "internalType": "bool",
          "name": "success",
          "type": "bool"
        },
        {
          "indexed": false,
          "internalType": "bool",
          "name": "onlyPremium",
          "type": "bool"
        }
      ],
      "name": "RandomWordsFulfilled",
      "type": "event"
    },
    {
      "anonymous": false,
      "inputs": [
        {
          "indexed": true,
          "internalType": "bytes32",
          "name": "keyHash",
          "type": "bytes32"
        },
        {
          "indexed": false,
          "internalType": "uint256",
          "name": "requestId",
          "type": "uint256"
        },
        {
          "indexed": false,
          "internalType": "uint256",
          "name": "preSeed",
          "type": "uint256"
        },
        {
          "indexed": true,
          "internalType": "uint256",
          "name": "subId",
          "type": "uint256"
        },
        {
          "indexed": false,
          "internalType": "uint16",
          "name": "minimumRequestConfirmations",
          "type": "uint16"
        },
        {
          "indexed": false,
          "internalType": "uint32",
          "name": "callbackGasLimit",
          "type": "uint32"
        },
        {
          "indexed": false,
          "internalType": "uint32",
          "name": "numWords",
          "type": "uint32"
        },
        {
          "indexed": false,
          "internalType": "bytes",
          "name": "extraArgs",
          "type": "bytes"
        },
        {
          "indexed": true,
          "internalType": "address",
          "name": "sender",
          "type": "address"
        }
      ],
      "name": "RandomWordsRequested",
      "type": "event"
    },
    {
      "anonymous": false,
      "inputs": [
        {
          "indexed": true,
          "internalType": "uint256",
          "name": "subId",
          "type": "uint256"
        },
        {
          "indexed": false,
          "internalType": "address",
          "name": "to",
          "type": "address"
        },
        {
          "indexed": false,
          "internalType": "uint256",
          "name": "amountLink",
          "type": "uint256"
        },
        {
          "indexed": false,
          "internalType": "uint256",
          "name": "amountNative",
          "type": "uint256"
        }
      ],
      "name": "SubscriptionCanceled",
      "type": "event"
    },
    {
      "anonymous": false,
      "inputs": [
        {
          "indexed": true,
          "internalType": "uint256",
          "name": "subId",
          "type": "uint256"
        },
        {
          "indexed": false,
          "internalType": "address",
          "name": "consumer",
          "type": "address"
        }
      ],
      "name": "SubscriptionConsumerAdded",
      "type": "event"
    },
    {
      "anonymous": false,
      "inputs": [
        {
          "indexed": true,
          "internalType": "uint256",
          "name": "subId",
          "type": "uint256"
        },
        {
          "indexed": false,
          "internalType": "address",
          "name": "consumer",
          "type": "address"
        }
      ],
      "name": "SubscriptionConsumerRemoved",
      "type": "event"
    },
    {
      "anonymous": false,
      "inputs": [
        {
          "indexed": true,
          "internalType": "uint256",
          "name": "subId",
          "type": "uint256"
        },
        {
          "indexed": false,
          "internalType": "address",
          "name": "owner",
          "type": "address"
        }
      ],
      "name": "SubscriptionCreated",
      "type": "event"
    },
    {
      "anonymous": false,
      "inputs": [
        {
          "indexed": true,
          "internalType": "uint256",
          "name": "subId",
          "type": "uint256"
        },
        {
          "indexed": false,
          "internalType": "uint256",
          "name": "oldBalance",
          "type": "uint256"
        },
        {
          "indexed": false,
          "internalType": "uint256",
          "name": "newBalance",
          "type": "uint256"
        }
      ],
      "name": "SubscriptionFunded",
      "type": "event"
    },
    {
      "anonymous": false,
      "inputs": [
        {
          "indexed": true,
          "internalType": "uint256",
          "name": "subId",
          "type": "uint256"
        },
        {
          "indexed": false,
          "internalType": "uint256",
          "name": "oldNativeBalance",
          "type": "uint256"
        },
        {
          "indexed": false,
          "internalType": "uint256",
          "name": "newNativeBalance",
          "type": "uint256"
        }
      ],
      "name": "SubscriptionFundedWithNative",
      "type": "event"
    },
    {
      "anonymous": false,
      "inputs": [
        {
          "indexed": true,
          "internalType": "uint256",
          "name": "subId",
          "type": "uint256"
        },
        {
          "indexed": false,
          "internalType": "address",
          "name": "from",
          "type": "address"
        },
        {
          "indexed": false,
          "internalType": "address",
          "name": "to",
          "type": "address"
        }
      ],
      "name": "SubscriptionOwnerTransferRequested",
      "type": "event"
    },
    {
      "anonymous": false,
      "inputs": [
        {
          "indexed": true,
          "internalType": "uint256",
          "name": "subId",
          "type": "uint256"
        },
        {
          "indexed": false,
          "internalType": "address",
          "name": "from",
          "type": "address"
        },
        {
          "indexed": false,
          "internalType": "address",
          "name": "to",
          "type": "address"
        }
      ],
      "name": "SubscriptionOwnerTransferred",
      "type": "event"
    },
    {
      "inputs": [],
      "name": "LINK",
      "outputs": [
        {
          "internalType": "contract LinkTokenInterface",
          "name": "",
          "type": "address"
        }
      ],
      "stateMutability": "view",
      "type": "function"
    },
    {
      "inputs": [],
      "name": "LINK_NATIVE_FEED",
      "outputs": [
        {
          "internalType": "contract AggregatorV3Interface",
          "name": "",
          "type": "address"
        }
      ],
      "stateMutability": "view",
      "type": "function"
    },
    {
      "inputs": [],
      "name": "MAX_CONSUMERS",
      "outputs": [
        {
          "internalType": "uint16",
          "name": "",
          "type": "uint16"
        }
      ],
      "stateMutability": "view",
      "type": "function"
    },
    {
      "inputs": [],
      "name": "acceptOwnership",
      "outputs": [],
      "stateMutability": "nonpayable",
      "type": "function"
    },
    {
      "inputs": [
        {
          "internalType": "uint256",
          "name": "subId",
          "type": "uint256"
        }
      ],
      "name": "acceptSubscriptionOwnerTransfer",
      "outputs": [],
      "stateMutability": "nonpayable",
      "type": "function"
    },
    {
      "inputs": [
        {
          "internalType": "uint256",
          "name": "subId",
          "type": "uint256"
        },
        {
          "internalType": "address",
          "name": "consumer",
          "type": "address"
        }
      ],
      "name": "addConsumer",
      "outputs": [],
      "stateMutability": "nonpayable",
      "type": "function"
    },
    {
      "inputs": [
        {
          "internalType": "uint256",
          "name": "_subId",
          "type": "uint256"
        },
        {
          "internalType": "address",
          "name": "_to",
          "type": "address"
        }
      ],
      "name": "cancelSubscription",
      "outputs": [],
      "stateMutability": "nonpayable",
      "type": "function"
    },
    {
      "inputs": [
        {
          "internalType": "uint256",
          "name": "_subId",
          "type": "uint256"
        },
        {
          "internalType": "address",
          "name": "_consumer",
          "type": "address"
        }
      ],
      "name": "consumerIsAdded",
      "outputs": [
        {
          "internalType": "bool",
          "name": "",
          "type": "bool"
        }
      ],
      "stateMutability": "view",
      "type": "function"
    },
    {
      "inputs": [],
      "name": "createSubscription",
      "outputs": [
        {
          "internalType": "uint256",
          "name": "subId",
          "type": "uint256"
        }
      ],
      "stateMutability": "nonpayable",
      "type": "function"
    },
    {
      "inputs": [
        {
          "internalType": "uint256",
          "name": "_requestId",
          "type": "uint256"
        },
        {
          "internalType": "address",
          "name": "_consumer",
          "type": "address"
        }
      ],
      "name": "fulfillRandomWords",
      "outputs": [],
      "stateMutability": "nonpayable",
      "type": "function"
    },
    {
      "inputs": [
        {
          "internalType": "uint256",
          "name": "_requestId",
          "type": "uint256"
        },
        {
          "internalType": "address",
          "name": "_consumer",
          "type": "address"
        },
        {
          "internalType": "uint256[]",
          "name": "_words",
          "type": "uint256[]"
        }
      ],
      "name": "fulfillRandomWordsWithOverride",
      "outputs": [],
      "stateMutability": "nonpayable",
      "type": "function"
    },
    {
      "inputs": [
        {
          "internalType": "uint256",
          "name": "_subId",
          "type": "uint256"
        },
        {
          "internalType": "uint256",
          "name": "_amount",
          "type": "uint256"
        }
      ],
      "name": "fundSubscription",
      "outputs": [],
      "stateMutability": "nonpayable",
      "type": "function"
    },
    {
      "inputs": [
        {
          "internalType": "uint256",
          "name": "subId",
          "type": "uint256"
        }
      ],
      "name": "fundSubscriptionWithNative",
      "outputs": [],
      "stateMutability": "payable",
      "type": "function"
    },
    {
      "inputs": [
        {
          "internalType": "uint256",
          "name": "startIndex",
          "type": "uint256"
        },
        {
          "internalType": "uint256",
          "name": "maxCount",
          "type": "uint256"
        }
      ],
      "name": "getActiveSubscriptionIds",
      "outputs": [
        {
          "internalType": "uint256[]",
          "name": "ids",
          "type": "uint256[]"
        }
      ],
      "stateMutability": "view",
      "type": "function"
    },
    {
      "inputs": [
        {
          "internalType": "uint256",
          "name": "subId",
          "type": "uint256"
        }
      ],
      "name": "getSubscription",
      "outputs": [
        {
          "internalType": "uint96",
          "name": "balance",
          "type": "uint96"
        },
        {
          "internalType": "uint96",
          "name": "nativeBalance",
          "type": "uint96"
        },
        {
          "internalType": "uint64",
          "name": "reqCount",
          "type": "uint64"
        },
        {
          "internalType": "address",
          "name": "subOwner",
          "type": "address"
        },
        {
          "internalType": "address[]",
          "name": "consumers",
          "type": "address[]"
        }
      ],
      "stateMutability": "view",
      "type": "function"
    },
    {
      "inputs": [],
      "name": "i_base_fee",
      "outputs": [
        {
          "internalType": "uint96",
          "name": "",
          "type": "uint96"
        }
      ],
      "stateMutability": "view",
      "type": "function"
    },
    {
      "inputs": [],
      "name": "i_gas_price",
      "outputs": [
        {
          "internalType": "uint96",
          "name": "",
          "type": "uint96"
        }
      ],
      "stateMutability": "view",
      "type": "function"
    },
    {
      "inputs": [],
      "name": "i_wei_per_unit_link",
      "outputs": [
        {
          "internalType": "int256",
          "name": "",
          "type": "int256"
        }
      ],
      "stateMutability": "view",
      "type": "function"
    },
    {
      "inputs": [
        {
          "internalType": "address",
          "name": "",
          "type": "address"
        },
        {
          "internalType": "uint256",
          "name": "amount",
          "type": "uint256"
        },
        {
          "internalType": "bytes",
          "name": "data",
          "type": "bytes"
        }
      ],
      "name": "onTokenTransfer",
      "outputs": [],
      "stateMutability": "nonpayable",
      "type": "function"
    },
    {
      "inputs": [],
      "name": "owner",
      "outputs": [
        {
          "internalType": "address",
          "name": "",
          "type": "address"
        }
      ],
      "stateMutability": "view",
      "type": "function"
    },
    {
      "inputs": [
        {
          "internalType": "uint256",
          "name": "subId",
          "type": "uint256"
        }
      ],
      "name": "ownerCancelSubscription",
      "outputs": [],
      "stateMutability": "nonpayable",
      "type": "function"
    },
    {
      "inputs": [
        {
          "internalType": "uint256",
          "name": "",
          "type": "uint256"
        }
      ],
      "name": "pendingRequestExists",
      "outputs": [
        {
          "internalType": "bool",
          "name": "",
          "type": "bool"
        }
      ],
      "stateMutability": "pure",
      "type": "function"
    },
    {
      "inputs": [
        {
          "internalType": "address",
          "name": "to",
          "type": "address"
        }
      ],
      "name": "recoverFunds",
      "outputs": [],
      "stateMutability": "nonpayable",
      "type": "function"
    },
    {
      "inputs": [
        {
          "internalType": "address payable",
          "name": "to",
          "type": "address"
        }
      ],
      "name": "recoverNativeFunds",
      "outputs": [],
      "stateMutability": "nonpayable",
      "type": "function"
    },
    {
      "inputs": [
        {
          "internalType": "uint256",
          "name": "_subId",
          "type": "uint256"
        },
        {
          "internalType": "address",
          "name": "_consumer",
          "type": "address"
        }
      ],
      "name": "removeConsumer",
      "outputs": [],
      "stateMutability": "nonpayable",
      "type": "function"
    },
    {
      "inputs": [
        {
          "components": [
            {
              "internalType": "bytes32",
              "name": "keyHash",
              "type": "bytes32"
            },
            {
              "internalType": "uint256",
              "name": "subId",
              "type": "uint256"
            },
            {
              "internalType": "uint16",
              "name": "requestConfirmations",
              "type": "uint16"
            },
            {
              "internalType": "uint32",
              "name": "callbackGasLimit",
              "type": "uint32"
            },
            {
              "internalType": "uint32",
              "name": "numWords",
              "type": "uint32"
            },
            {
              "internalType": "bytes",
              "name": "extraArgs",
              "type": "bytes"
            }
          ],
          "internalType": "struct VRFV2PlusClient.RandomWordsRequest",
          "name": "_req",
          "type": "tuple"
        }
      ],
      "name": "requestRandomWords",
      "outputs": [
        {
          "internalType": "uint256",
          "name": "",
          "type": "uint256"
        }
      ],
      "stateMutability": "nonpayable",
      "type": "function"
    },
    {
      "inputs": [
        {
          "internalType": "uint256",
          "name": "subId",
          "type": "uint256"
        },
        {
          "internalType": "address",
          "name": "newOwner",
          "type": "address"
        }
      ],
      "name": "requestSubscriptionOwnerTransfer",
      "outputs": [],
      "stateMutability": "nonpayable",
      "type": "function"
    },
    {
      "inputs": [],
      "name": "s_config",
      "outputs": [
        {
          "internalType": "uint16",
          "name": "minimumRequestConfirmations",
          "type": "uint16"
        },
        {
          "internalType": "uint32",
          "name": "maxGasLimit",
          "type": "uint32"
        },
        {
          "internalType": "bool",
          "name": "reentrancyLock",
          "type": "bool"
        },
        {
          "internalType": "uint32",
          "name": "stalenessSeconds",
          "type": "uint32"
        },
        {
          "internalType": "uint32",
          "name": "gasAfterPaymentCalculation",
          "type": "uint32"
        },
        {
          "internalType": "uint32",
          "name": "fulfillmentFlatFeeNativePPM",
          "type": "uint32"
        },
        {
          "internalType": "uint32",
          "name": "fulfillmentFlatFeeLinkDiscountPPM",
          "type": "uint32"
        },
        {
          "internalType": "uint8",
          "name": "nativePremiumPercentage",
          "type": "uint8"
        },
        {
          "internalType": "uint8",
          "name": "linkPremiumPercentage",
          "type": "uint8"
        }
      ],
      "stateMutability": "view",
      "type": "function"
    },
    {
      "inputs": [],
      "name": "s_currentSubNonce",
      "outputs": [
        {
          "internalType": "uint64",
          "name": "",
          "type": "uint64"
        }
      ],
      "stateMutability": "view",
      "type": "function"
    },
    {
      "inputs": [],
      "name": "s_totalBalance",
      "outputs": [
        {
          "internalType": "uint96",
          "name": "",
          "type": "uint96"
        }
      ],
      "stateMutability": "view",
      "type": "function"
    },
    {
      "inputs": [],
      "name": "s_totalNativeBalance",
      "outputs": [
        {
          "internalType": "uint96",
          "name": "",
          "type": "uint96"
        }
      ],
      "stateMutability": "view",
      "type": "function"
    },
    {
      "inputs": [],
      "name": "setConfig",
      "outputs": [],
      "stateMutability": "nonpayable",
      "type": "function"
    },
    {
      "inputs": [
        {
          "internalType": "address",
          "name": "link",
          "type": "address"
        },
        {
          "internalType": "address",
          "name": "linkNativeFeed",
          "type": "address"
        }
      ],
      "name": "setLINKAndLINKNativeFeed",
      "outputs": [],
      "stateMutability": "nonpayable",
      "type": "function"
    },
    {
      "inputs": [
        {
          "internalType": "address",
          "name": "to",
          "type": "address"
        }
      ],
      "name": "transferOwnership",
      "outputs": [],
      "stateMutability": "nonpayable",
      "type": "function"
    },
    {
      "inputs": [
        {
          "internalType": "address",
          "name": "recipient",
          "type": "address"
        }
      ],
      "name": "withdraw",
      "outputs": [],
      "stateMutability": "nonpayable",
      "type": "function"
    },
    {
      "inputs": [
        {
          "internalType": "address payable",
          "name": "recipient",
          "type": "address"
        }
      ],
      "name": "withdrawNative",
      "outputs": [],
      "stateMutability": "nonpayable",
      "type": "function"
    }
  ],
  "bytecode": "0x60e06040526001600e556064600f553480156200001b57600080fd5b506040516200462a3803806200462a8339810160408190526200003e91620002a7565b3380600081620000955760405162461bcd60e51b815260206004820152601860248201527f43616e6e6f7420736574206f776e657220746f207a65726f000000000000000060448201526064015b60405180910390fd5b600080546001600160a01b0319166001600160a01b0384811691909117909155811615620000c857620000c881620000f6565b5050506001600160601b03808416608052821660a05260c0819052620000ed620001a1565b505050620002e8565b336001600160a01b03821603620001505760405162461bcd60e51b815260206004820152601760248201527f43616e6e6f74207472616e7366657220746f2073656c6600000000000000000060448201526064016200008c565b600180546001600160a01b0319166001600160a01b0383811691821790925560008054604051929316917fed8889f560326eb138920d842192f0eb3dd22b4f139c87a2c57538e05bae12789190a350565b620001ab6200022c565b6040805161012081018252600080825260208201819052818301819052606082018190526080820181905260a0820181905260c0820181905260e08201819052610100909101819052600c80546001600160c81b031916905590517f4b2974a542484cba2783812ff8033f7fc682cac2fe0905c28c5e27869b3155be9190a1565b6000546001600160a01b03163314620002885760405162461bcd60e51b815260206004820152601660248201527f4f6e6c792063616c6c61626c65206279206f776e65720000000000000000000060448201526064016200008c565b565b80516001600160601b0381168114620002a257600080fd5b919050565b600080600060608486031215620002bd57600080fd5b620002c8846200028a565b9250620002d8602085016200028a565b9150604084015190509250925092565b60805160a05160c0516142fd6200032d600039600081816103ef0152610d350152600081816108680152610cb20152600081816104d50152610d0701526142fd6000f3fe60806040526004361061024f5760003560e01c80638b673e7a11610138578063aefb212f116100b0578063dac83d291161007f578063dcab3dcf11610064578063dcab3dcf14610856578063e72f6e301461088a578063f2fde38b146108aa57600080fd5b8063dac83d2914610805578063dc311dd31461082557600080fd5b8063aefb212f14610778578063b2a7cac5146107a5578063bec4c08c146107c5578063cb631797146107e557600080fd5b80639b1c385e11610107578063a21a23e4116100ec578063a21a23e414610723578063a4c0ed3614610738578063aa433aff1461075857600080fd5b80639b1c385e146106c95780639d40a6fd146106e957600080fd5b80638b673e7a146106565780638da5cb5b1461066b578063953e9c751461069657806395b55cfc146106b657600080fd5b806341af6c87116101cb57806372e9d5651161019a578063808974ff1161017f578063808974ff146105f15780638402595e1461061157806386fe91c71461063157600080fd5b806372e9d565146105af57806379ba5097146105dc57600080fd5b806341af6c871461051757806351cff8d91461054757806364d51a2a14610567578063659827441461058f57600080fd5b806313478329116102225780631b6b6d23116102075780631b6b6d23146104715780631eebc117146104c35780632f622e6b146104f757600080fd5b806313478329146103dd57806318e3dd271461041f57600080fd5b8063088070f51461025457806308e3898e1461037b5780630ae095401461039d578063115e3c0d146103bd575b600080fd5b34801561026057600080fd5b50600c546103199061ffff81169063ffffffff62010000820481169160ff6601000000000000820481169267010000000000000083048116926b01000000000000000000000081048216926f0100000000000000000000000000000082048316927301000000000000000000000000000000000000008304169177010000000000000000000000000000000000000000000000810482169178010000000000000000000000000000000000000000000000009091041689565b6040805161ffff909a168a5263ffffffff98891660208b01529615159689019690965293861660608801529185166080870152841660a08601529290921660c084015260ff91821660e084015216610100820152610120015b60405180910390f35b34801561038757600080fd5b5061039b6103963660046139cc565b6108ca565b005b3480156103a957600080fd5b5061039b6103b8366004613a90565b610e3e565b3480156103c957600080fd5b5061039b6103d8366004613ac0565b610f7b565b3480156103e957600080fd5b506104117f000000000000000000000000000000000000000000000000000000000000000081565b604051908152602001610372565b34801561042b57600080fd5b50600a54610454906c0100000000000000000000000090046bffffffffffffffffffffffff1681565b6040516bffffffffffffffffffffffff9091168152602001610372565b34801561047d57600080fd5b5060025461049e9073ffffffffffffffffffffffffffffffffffffffff1681565b60405173ffffffffffffffffffffffffffffffffffffffff9091168152602001610372565b3480156104cf57600080fd5b506104547f000000000000000000000000000000000000000000000000000000000000000081565b34801561050357600080fd5b5061039b610512366004613ae2565b6110d3565b34801561052357600080fd5b50610537610532366004613aff565b6111b4565b6040519015158152602001610372565b34801561055357600080fd5b5061039b610562366004613ae2565b6111e8565b34801561057357600080fd5b5061057c606481565b60405161ffff9091168152602001610372565b34801561059b57600080fd5b5061039b6105aa366004613b18565b61137b565b3480156105bb57600080fd5b5060035461049e9073ffffffffffffffffffffffffffffffffffffffff1681565b3480156105e857600080fd5b5061039b611426565b3480156105fd57600080fd5b5061039b61060c366004613a90565b611528565b34801561061d57600080fd5b5061039b61062c366004613ae2565b61154c565b34801561063d57600080fd5b50600a54610454906bffffffffffffffffffffffff1681565b34801561066257600080fd5b5061039b6116c2565b34801561067757600080fd5b5060005473ffffffffffffffffffffffffffffffffffffffff1661049e565b3480156106a257600080fd5b506105376106b1366004613a90565b611763565b61039b6106c4366004613aff565b61179e565b3480156106d557600080fd5b506104116106e4366004613b46565b6118e2565b3480156106f557600080fd5b5060075461070a9067ffffffffffffffff1681565b60405167ffffffffffffffff9091168152602001610372565b34801561072f57600080fd5b50610411611bb6565b34801561074457600080fd5b5061039b610753366004613b81565b611e5f565b34801561076457600080fd5b5061039b610773366004613aff565b612026565b34801561078457600080fd5b50610798610793366004613ac0565b612066565b6040516103729190613c45565b3480156107b157600080fd5b5061039b6107c0366004613aff565b612181565b3480156107d157600080fd5b5061039b6107e0366004613a90565b6122d5565b3480156107f157600080fd5b5061039b610800366004613a90565b61244e565b34801561081157600080fd5b5061039b610820366004613a90565b6127e2565b34801561083157600080fd5b50610845610840366004613aff565b6128af565b604051610372959493929190613c58565b34801561086257600080fd5b506104547f000000000000000000000000000000000000000000000000000000000000000081565b34801561089657600080fd5b5061039b6108a5366004613ae2565b6129c6565b3480156108b657600080fd5b5061039b6108c5366004613ae2565b612c46565b60005a60008581526010602052604081205491925003610916576040517f41abc80100000000000000000000000000000000000000000000000000000000815260040160405180910390fd5b6000848152601060209081526040808320815160808101835281548152600182015463ffffffff8082169583019590955264010000000090049093169183019190915260028101805460608401919061096e90613cf2565b80601f016020809104026020016040519081016040528092919081815260200182805461099a90613cf2565b80156109e75780601f106109bc576101008083540402835291602001916109e7565b820191906000526020600020905b8154815290600101906020018083116109ca57829003601f168201915b50505050508152505090508251600003610ac157806040015163ffffffff1667ffffffffffffffff811115610a1e57610a1e61394e565b604051908082528060200260200182016040528015610a47578160200160208202803683370190505b50925060005b816040015163ffffffff16811015610abb5760408051602081018890529081018290526060016040516020818303038152906040528051906020012060001c848281518110610a9e57610a9e613d45565b602090810291909101015280610ab381613da3565b915050610a4d565b50610b05565b806040015163ffffffff16835114610b05576040517f3f3df5b600000000000000000000000000000000000000000000000000000000815260040160405180910390fd5b600080631fe543e360e01b8786604051602401610b23929190613ddb565b604080517fffffffffffffffffffffffffffffffffffffffffffffffffffffffffffffffe0818403018152918152602080830180517bffffffffffffffffffffffffffffffffffffffffffffffffffffffff167fffffffff0000000000000000000000000000000000000000000000000000000090951694909417909352600c80547fffffffffffffffffffffffffffffffffffffffffffffffffff00ffffffffffff16660100000000000017905591850151915190925060009173ffffffffffffffffffffffffffffffffffffffff89169163ffffffff90911690610c0a908590613e20565b60006040518083038160008787f1925050503d8060008114610c48576040519150601f19603f3d011682016040523d82523d6000602084013e610c4d565b606091505b5050600c80547fffffffffffffffffffffffffffffffffffffffffffffffffff00ffffffffffff16905560608501518051919250600091610c9090600190613e3c565b81518110610ca057610ca0613d45565b60209101015160f81c600114905060007f00000000000000000000000000000000000000000000000000000000000000006bffffffffffffffffffffffff165a610cea9089613e3c565b610cf49190613e4f565b610d2c906bffffffffffffffffffffffff7f000000000000000000000000000000000000000000000000000000000000000016613e66565b905081610d73577f0000000000000000000000000000000000000000000000000000000000000000610d6682670de0b6b3a7640000613e4f565b610d709190613e79565b90505b85518190610d849082908590612c5a565b60008b81526010602052604081208181556001810180547fffffffffffffffffffffffffffffffffffffffffffffffff000000000000000016905590610dcd6002830182613839565b50508651604080518d81526bffffffffffffffffffffffff841660208201528515158183015286151560608201526000608082015290518d917faeb4b4786571e184246d39587f659abf0e26f41f6a3358692250382c0cdb47b7919081900360a00190a35050505050505050505050565b81610e4881612e46565b610e50612edb565b600080610e5c85612f24565b9150915060008473ffffffffffffffffffffffffffffffffffffffff16826bffffffffffffffffffffffff1660405160006040518083038185875af1925050503d8060008114610ec8576040519150601f19603f3d011682016040523d82523d6000602084013e610ecd565b606091505b5050905080610f08576040517f950b247900000000000000000000000000000000000000000000000000000000815260040160405180910390fd5b6040805173ffffffffffffffffffffffffffffffffffffffff871681526bffffffffffffffffffffffff808616602083015284169181019190915286907f8c74ce8b8cf87f5eb001275c8be27eb34ea2b62bfab6814fcc62192bb63e81c4906060015b60405180910390a2505050505050565b60008281526005602052604090205473ffffffffffffffffffffffffffffffffffffffff16610fd6576040517f1f6a65b600000000000000000000000000000000000000000000000000000000815260040160405180910390fd5b600082815260066020526040812080546bffffffffffffffffffffffff16918391906110028385613eb4565b92506101000a8154816bffffffffffffffffffffffff02191690836bffffffffffffffffffffffff16021790555081600a60008282829054906101000a90046bffffffffffffffffffffffff166110599190613eb4565b92506101000a8154816bffffffffffffffffffffffff02191690836bffffffffffffffffffffffff160217905550827f1ced9348ff549fceab2ac57cd3a9de38edaaab274b725ee82c23e8fc8c4eec7a8284846110b69190613e66565b6040805192835260208301919091520160405180910390a2505050565b6110db612edb565b6110e361313f565b600b546c0100000000000000000000000090046bffffffffffffffffffffffff1661110f8115156131c0565b600b80547fffffffffffffffff000000000000000000000000ffffffffffffffffffffffff169055600a8054829190600c9061116a9084906c0100000000000000000000000090046bffffffffffffffffffffffff16613ed9565b92506101000a8154816bffffffffffffffffffffffff02191690836bffffffffffffffffffffffff1602179055506111b082826bffffffffffffffffffffffff166131f7565b5050565b60006040517fd623472500000000000000000000000000000000000000000000000000000000815260040160405180910390fd5b6111f0612edb565b6111f861313f565b60025473ffffffffffffffffffffffffffffffffffffffff16611247576040517fc1f0c0a100000000000000000000000000000000000000000000000000000000815260040160405180910390fd5b600b546bffffffffffffffffffffffff166112638115156131c0565b600b80547fffffffffffffffffffffffffffffffffffffffff000000000000000000000000169055600a80548291906000906112ae9084906bffffffffffffffffffffffff16613ed9565b82546101009290920a6bffffffffffffffffffffffff8181021990931691831602179091556002546040517fa9059cbb00000000000000000000000000000000000000000000000000000000815273ffffffffffffffffffffffffffffffffffffffff868116600483015292851660248201526111b0935091169063a9059cbb906044015b6020604051808303816000875af1158015611352573d6000803e3d6000fd5b505050506040513d601f19601f820116820180604052508101906113769190613f0c565b6131c0565b61138361313f565b60025473ffffffffffffffffffffffffffffffffffffffff16156113d3576040517f2d118a6e00000000000000000000000000000000000000000000000000000000815260040160405180910390fd5b6002805473ffffffffffffffffffffffffffffffffffffffff9384167fffffffffffffffffffffffff00000000000000000000000000000000000000009182161790915560038054929093169116179055565b60015473ffffffffffffffffffffffffffffffffffffffff1633146114ac576040517f08c379a000000000000000000000000000000000000000000000000000000000815260206004820152601660248201527f4d7573742062652070726f706f736564206f776e65720000000000000000000060448201526064015b60405180910390fd5b60008054337fffffffffffffffffffffffff00000000000000000000000000000000000000008083168217845560018054909116905560405173ffffffffffffffffffffffffffffffffffffffff90921692909183917f8be0079c531659141344cd1fd0a4f28419497f9722a3daafe3b4186f6b6457e091a350565b611530612edb565b6040805160008152602081019091526111b090839083906108ca565b61155461313f565b600a5447906c0100000000000000000000000090046bffffffffffffffffffffffff16818111156115bb576040517fa99da30200000000000000000000000000000000000000000000000000000000815260048101829052602481018390526044016114a3565b818110156116bd5760006115cf8284613e3c565b905060008473ffffffffffffffffffffffffffffffffffffffff168260405160006040518083038185875af1925050503d806000811461162b576040519150601f19603f3d011682016040523d82523d6000602084013e611630565b606091505b505090508061166b576040517f950b247900000000000000000000000000000000000000000000000000000000815260040160405180910390fd5b6040805173ffffffffffffffffffffffffffffffffffffffff87168152602081018490527f4aed7c8eed0496c8c19ea2681fcca25741c1602342e38b045d9f1e8e905d2e9c910160405180910390a150505b505050565b6116ca61313f565b6040805161012081018252600080825260208201819052818301819052606082018190526080820181905260a0820181905260c0820181905260e08201819052610100909101819052600c80547fffffffffffffff0000000000000000000000000000000000000000000000000016905590517f4b2974a542484cba2783812ff8033f7fc682cac2fe0905c28c5e27869b3155be9190a1565b73ffffffffffffffffffffffffffffffffffffffff8116600090815260046020908152604080832085845290915290205460ff165b92915050565b6117a6612edb565b6000818152600560205260409020546117d49073ffffffffffffffffffffffffffffffffffffffff16613291565b600081815260066020526040902080546c0100000000000000000000000090046bffffffffffffffffffffffff16903490600c6118118385613eb4565b92506101000a8154816bffffffffffffffffffffffff02191690836bffffffffffffffffffffffff16021790555034600a600c8282829054906101000a90046bffffffffffffffffffffffff166118689190613eb4565b92506101000a8154816bffffffffffffffffffffffff02191690836bffffffffffffffffffffffff160217905550817f7603b205d03651ee812f803fccde89f1012e545a9c99f0abfea9cedd0fd8e9028234846118c59190613e66565b604080519283526020830191909152015b60405180910390a25050565b60006118ec612edb565b8160200135336118fc8282611763565b611951576040517f79bfd4010000000000000000000000000000000000000000000000000000000081526004810183905273ffffffffffffffffffffffffffffffffffffffff821660248201526044016114a3565b6020808501356000818152600590925260409091205473ffffffffffffffffffffffffffffffffffffffff166119b3576040517f1f6a65b600000000000000000000000000000000000000000000000000000000815260040160405180910390fd5b600e8054600091826119c483613da3565b90915550600f805491925060009190826119dd83613da3565b9091555090506000611a026119fd6119f860a08b018b613f29565b6132de565b6133b0565b9050604051806080016040528089602001358152602001896060016020810190611a2c9190613f95565b63ffffffff168152602001611a4760a08b0160808c01613f95565b63ffffffff168152602001611a5f60a08b018b613f29565b8080601f01602080910402602001604051908101604052809392919081815260200183838082843760009201829052509390945250508581526010602090815260409182902084518155908401516001820180549386015163ffffffff908116640100000000027fffffffffffffffffffffffffffffffffffffffffffffffff00000000000000009095169216919091179290921790915560608301519091506002820190611b0e9082614009565b509050503373ffffffffffffffffffffffffffffffffffffffff16886020013589600001357feb0e3652e0f44f417695e6e90f2f42c99b65cd7169074c5a654b16b9748c3a4e86868d6040016020810190611b699190614123565b8e6060016020810190611b7c9190613f95565b8f6080016020810190611b8f9190613f95565b89604051611ba296959493929190614147565b60405180910390a450909695505050505050565b6000611bc0612edb565b60075467ffffffffffffffff1633611bd9600143613e3c565b6040517fffffffffffffffffffffffffffffffffffffffff000000000000000000000000606093841b81166020830152914060348201523090921b1660548201527fffffffffffffffff00000000000000000000000000000000000000000000000060c083901b166068820152607001604080517fffffffffffffffffffffffffffffffffffffffffffffffffffffffffffffffe081840301815291905280516020909101209150611c8c8160016141c9565b600780547fffffffffffffffffffffffffffffffffffffffffffffffff00000000000000001667ffffffffffffffff928316179055604080516000808252608082018352602080830182815283850183815260608086018581528a86526006855287862093518454935191516bffffffffffffffffffffffff9182167fffffffffffffffff000000000000000000000000000000000000000000000000909516949094176c0100000000000000000000000091909216021777ffffffffffffffffffffffffffffffffffffffffffffffff1678010000000000000000000000000000000000000000000000009290981691909102969096179055835194850184523385528481018281528585018481528884526005835294909220855181547fffffffffffffffffffffffff000000000000000000000000000000000000000090811673ffffffffffffffffffffffffffffffffffffffff9283161783559351600183018054909516911617909255925180519294939192611e149260028501920190613873565b50611e249150600890508461346c565b5060405133815283907f1d3015d7ba850fa198dc7b1a3f5d42779313a681035f77c8c03764c61005518d9060200160405180910390a2505090565b611e67612edb565b60025473ffffffffffffffffffffffffffffffffffffffff163314611eb8576040517f44b0e3c300000000000000000000000000000000000000000000000000000000815260040160405180910390fd5b60208114611ef2576040517f8129bbcd00000000000000000000000000000000000000000000000000000000815260040160405180910390fd5b6000611f0082840184613aff565b600081815260056020526040902054909150611f319073ffffffffffffffffffffffffffffffffffffffff16613291565b600081815260066020526040812080546bffffffffffffffffffffffff1691869190611f5d8385613eb4565b92506101000a8154816bffffffffffffffffffffffff02191690836bffffffffffffffffffffffff16021790555084600a60008282829054906101000a90046bffffffffffffffffffffffff16611fb49190613eb4565b92506101000a8154816bffffffffffffffffffffffff02191690836bffffffffffffffffffffffff160217905550817f1ced9348ff549fceab2ac57cd3a9de38edaaab274b725ee82c23e8fc8c4eec7a8287846120119190613e66565b60408051928352602083019190915201610f6b565b61202e61313f565b60008181526005602052604090205473ffffffffffffffffffffffffffffffffffffffff1661205c81613291565b6111b08282613478565b6060600061207460086135af565b90508084106120af576040517f1390f2a100000000000000000000000000000000000000000000000000000000815260040160405180910390fd5b60006120bb8486613e66565b9050818111806120c9575083155b6120d357806120d5565b815b905060006120e38683613e3c565b90508067ffffffffffffffff8111156120fe576120fe61394e565b604051908082528060200260200182016040528015612127578160200160208202803683370190505b50935060005b818110156121775761214a6121428883613e66565b6008906135b9565b85828151811061215c5761215c613d45565b602090810291909101015261217081613da3565b905061212d565b5050505092915050565b612189612edb565b60008181526005602052604090205473ffffffffffffffffffffffffffffffffffffffff166121b781613291565b60008281526005602052604090206001015473ffffffffffffffffffffffffffffffffffffffff16331461224357600082815260056020526040908190206001015490517fd084e97500000000000000000000000000000000000000000000000000000000815273ffffffffffffffffffffffffffffffffffffffff90911660048201526024016114a3565b6000828152600560209081526040918290208054337fffffffffffffffffffffffff000000000000000000000000000000000000000091821681178355600190920180549091169055825173ffffffffffffffffffffffffffffffffffffffff851681529182015283917fd4114ab6e9af9f597c52041f32d62dc57c5c4e4c0d4427006069635e216c938691016118d6565b816122df81612e46565b6122e7612edb565b73ffffffffffffffffffffffffffffffffffffffff821660009081526004602090815260408083208684529091529020805460ff16156123275750505050565b600084815260056020526040902060020180547fffffffffffffffffffffffffffffffffffffffffffffffffffffffffffffff9c01612392576040517f05a48e0f00000000000000000000000000000000000000000000000000000000815260040160405180910390fd5b815460017fffffffffffffffffffffffffffffffffffffffffffffffffffffffffffffff009091168117835581549081018255600082815260209081902090910180547fffffffffffffffffffffffff00000000000000000000000000000000000000001673ffffffffffffffffffffffffffffffffffffffff871690811790915560405190815286917f1e980d04aa7648e205713e5e8ea3808672ac163d10936d36f91b2c88ac1575e1910160405180910390a25050505050565b8161245881612e46565b82826124648282611763565b6124b9576040517f79bfd4010000000000000000000000000000000000000000000000000000000081526004810183905273ffffffffffffffffffffffffffffffffffffffff821660248201526044016114a3565b6124c1612edb565b73ffffffffffffffffffffffffffffffffffffffff8416600090815260046020908152604080832088845290915290205460ff1661254a576040517f79bfd4010000000000000000000000000000000000000000000000000000000081526004810186905273ffffffffffffffffffffffffffffffffffffffff851660248201526044016114a3565b6000858152600560209081526040808320600201805482518185028101850190935280835291929091908301828280156125ba57602002820191906000526020600020905b815473ffffffffffffffffffffffffffffffffffffffff16815260019091019060200180831161258f575b505050505090506000600182516125d19190613e3c565b905060005b825181101561274f578673ffffffffffffffffffffffffffffffffffffffff1683828151811061260857612608613d45565b602002602001015173ffffffffffffffffffffffffffffffffffffffff160361273f57600083838151811061263f5761263f613d45565b6020026020010151905080600560008b8152602001908152602001600020600201838154811061267157612671613d45565b600091825260208083209190910180547fffffffffffffffffffffffff00000000000000000000000000000000000000001673ffffffffffffffffffffffffffffffffffffffff94909416939093179092558a81526005909152604090206002018054806126e1576126e16141ea565b60008281526020902081017fffffffffffffffffffffffffffffffffffffffffffffffffffffffffffffffff90810180547fffffffffffffffffffffffff00000000000000000000000000000000000000001690550190555061274f565b61274881613da3565b90506125d6565b5073ffffffffffffffffffffffffffffffffffffffff861660008181526004602090815260408083208b845282529182902080547fffffffffffffffffffffffffffffffffffffffffffffffffffffffffffffff00169055905191825288917f32158c6058347c1601b2d12bc696ac6901d8a9a9aa3ba10c27ab0a983e8425a7910160405180910390a250505050505050565b816127ec81612e46565b6127f4612edb565b6000838152600560205260409020600181015473ffffffffffffffffffffffffffffffffffffffff8481169116146128a9576001810180547fffffffffffffffffffffffff00000000000000000000000000000000000000001673ffffffffffffffffffffffffffffffffffffffff851690811790915560408051338152602081019290925285917f21a4dad170a6bf476c31bbcf4a16628295b0e450672eec25d7c93308e05344a191015b60405180910390a25b50505050565b6000818152600560205260408120548190819073ffffffffffffffffffffffffffffffffffffffff1660606128e382613291565b600086815260066020908152604080832054600583529281902060020180548251818502810185019093528083526bffffffffffffffffffffffff808616956c01000000000000000000000000810490911694780100000000000000000000000000000000000000000000000090910467ffffffffffffffff169388939290918391908301828280156129ac57602002820191906000526020600020905b815473ffffffffffffffffffffffffffffffffffffffff168152600190910190602001808311612981575b505050505090509450945094509450945091939590929450565b6129ce61313f565b60025473ffffffffffffffffffffffffffffffffffffffff16612a1d576040517fc1f0c0a100000000000000000000000000000000000000000000000000000000815260040160405180910390fd5b6002546040517f70a0823100000000000000000000000000000000000000000000000000000000815230600482015260009173ffffffffffffffffffffffffffffffffffffffff16906370a0823190602401602060405180830381865afa158015612a8c573d6000803e3d6000fd5b505050506040513d601f19601f82011682018060405250810190612ab09190614219565b600a549091506bffffffffffffffffffffffff1681811115612b08576040517fa99da30200000000000000000000000000000000000000000000000000000000815260048101829052602481018390526044016114a3565b818110156116bd576000612b1c8284613e3c565b6002546040517fa9059cbb00000000000000000000000000000000000000000000000000000000815273ffffffffffffffffffffffffffffffffffffffff87811660048301526024820184905292935091169063a9059cbb906044016020604051808303816000875af1158015612b97573d6000803e3d6000fd5b505050506040513d601f19601f82011682018060405250810190612bbb9190613f0c565b612bf1576040517f7c07fc4c00000000000000000000000000000000000000000000000000000000815260040160405180910390fd5b6040805173ffffffffffffffffffffffffffffffffffffffff86168152602081018390527f59bfc682b673f8cbf945f1e454df9334834abf7dfe7f92237ca29ecb9b436600910160405180910390a150505050565b612c4e61313f565b612c57816135c5565b50565b60008181526006602052604090208215612d6d5780546bffffffffffffffffffffffff6c010000000000000000000000009091048116908516811015612ccc576040517ff4d678b800000000000000000000000000000000000000000000000000000000815260040160405180910390fd5b612cd68582613ed9565b82547fffffffffffffffff000000000000000000000000ffffffffffffffffffffffff166c010000000000000000000000006bffffffffffffffffffffffff9283168102919091178455600b805488939192600c92612d39928692900416613eb4565b92506101000a8154816bffffffffffffffffffffffff02191690836bffffffffffffffffffffffff160217905550506128a9565b80546bffffffffffffffffffffffff908116908516811015612dbb576040517ff4d678b800000000000000000000000000000000000000000000000000000000815260040160405180910390fd5b612dc58582613ed9565b82547fffffffffffffffffffffffffffffffffffffffff000000000000000000000000166bffffffffffffffffffffffff918216178355600b80548792600091612e1191859116613eb4565b92506101000a8154816bffffffffffffffffffffffff02191690836bffffffffffffffffffffffff1602179055505050505050565b60008181526005602052604090205473ffffffffffffffffffffffffffffffffffffffff16612e7481613291565b3373ffffffffffffffffffffffffffffffffffffffff8216146111b0576040517fd8a3fb5200000000000000000000000000000000000000000000000000000000815273ffffffffffffffffffffffffffffffffffffffff821660048201526024016114a3565b600c546601000000000000900460ff1615612f22576040517fed3ba6a600000000000000000000000000000000000000000000000000000000815260040160405180910390fd5b565b60008181526005602090815260408083206006909252822054600290910180546bffffffffffffffffffffffff808416946c0100000000000000000000000090940416925b81811015612ff95760046000848381548110612f8757612f87613d45565b600091825260208083209091015473ffffffffffffffffffffffffffffffffffffffff1683528281019390935260409182018120898252909252902080547fffffffffffffffffffffffffffffff0000000000000000000000000000000000169055612ff281613da3565b9050612f69565b50600085815260056020526040812080547fffffffffffffffffffffffff0000000000000000000000000000000000000000908116825560018201805490911690559061304960028301826138fd565b50506000858152600660205260408120556130656008866136ba565b506bffffffffffffffffffffffff8416156130cc57600a805485919060009061309d9084906bffffffffffffffffffffffff16613ed9565b92506101000a8154816bffffffffffffffffffffffff02191690836bffffffffffffffffffffffff1602179055505b6bffffffffffffffffffffffff8316156131385782600a600c8282829054906101000a90046bffffffffffffffffffffffff166131099190613ed9565b92506101000a8154816bffffffffffffffffffffffff02191690836bffffffffffffffffffffffff1602179055505b5050915091565b60005473ffffffffffffffffffffffffffffffffffffffff163314612f22576040517f08c379a000000000000000000000000000000000000000000000000000000000815260206004820152601660248201527f4f6e6c792063616c6c61626c65206279206f776e65720000000000000000000060448201526064016114a3565b80612c57576040517ff4d678b800000000000000000000000000000000000000000000000000000000815260040160405180910390fd5b60008273ffffffffffffffffffffffffffffffffffffffff168260405160006040518083038185875af1925050503d8060008114613251576040519150601f19603f3d011682016040523d82523d6000602084013e613256565b606091505b50509050806116bd576040517f950b247900000000000000000000000000000000000000000000000000000000815260040160405180910390fd5b73ffffffffffffffffffffffffffffffffffffffff8116612c57576040517f1f6a65b600000000000000000000000000000000000000000000000000000000815260040160405180910390fd5b604080516020810190915260008152600082900361330b5750604080516020810190915260008152611798565b7f92fd1338000000000000000000000000000000000000000000000000000000006133368385614232565b7fffffffff00000000000000000000000000000000000000000000000000000000161461338f576040517f5247fdce00000000000000000000000000000000000000000000000000000000815260040160405180910390fd5b61339c826004818661427a565b8101906133a991906142a4565b9392505050565b60607f92fd13387c7fe7befbc38d303d6468778fb9731bc4583f17d92989c6fcfdeaaa826040516024016133e991511515815260200190565b604080517fffffffffffffffffffffffffffffffffffffffffffffffffffffffffffffffe08184030181529190526020810180517bffffffffffffffffffffffffffffffffffffffffffffffffffffffff167fffffffff000000000000000000000000000000000000000000000000000000009093169290921790915292915050565b60006133a983836136c6565b60008061348484612f24565b600254919350915073ffffffffffffffffffffffffffffffffffffffff16158015906134bd57506bffffffffffffffffffffffff821615155b15613530576002546040517fa9059cbb00000000000000000000000000000000000000000000000000000000815273ffffffffffffffffffffffffffffffffffffffff85811660048301526bffffffffffffffffffffffff8516602483015261353092169063a9059cbb90604401611333565b61354883826bffffffffffffffffffffffff166131f7565b6040805173ffffffffffffffffffffffffffffffffffffffff851681526bffffffffffffffffffffffff808516602083015283169181019190915284907f8c74ce8b8cf87f5eb001275c8be27eb34ea2b62bfab6814fcc62192bb63e81c4906060016128a0565b6000611798825490565b60006133a98383613715565b3373ffffffffffffffffffffffffffffffffffffffff821603613644576040517f08c379a000000000000000000000000000000000000000000000000000000000815260206004820152601760248201527f43616e6e6f74207472616e7366657220746f2073656c6600000000000000000060448201526064016114a3565b600180547fffffffffffffffffffffffff00000000000000000000000000000000000000001673ffffffffffffffffffffffffffffffffffffffff83811691821790925560008054604051929316917fed8889f560326eb138920d842192f0eb3dd22b4f139c87a2c57538e05bae12789190a350565b60006133a9838361373f565b600081815260018301602052604081205461370d57508154600181810184556000848152602080822090930184905584548482528286019093526040902091909155611798565b506000611798565b600082600001828154811061372c5761372c613d45565b9060005260206000200154905092915050565b60008181526001830160205260408120548015613828576000613763600183613e3c565b855490915060009061377790600190613e3c565b90508181146137dc57600086600001828154811061379757613797613d45565b90600052602060002001549050808760000184815481106137ba576137ba613d45565b6000918252602080832090910192909255918252600188019052604090208390555b85548690806137ed576137ed6141ea565b600190038181906000526020600020016000905590558560010160008681526020019081526020016000206000905560019350505050611798565b6000915050611798565b5092915050565b50805461384590613cf2565b6000825580601f10613855575050565b601f016020900490600052602060002090810190612c579190613917565b8280548282559060005260206000209081019282156138ed579160200282015b828111156138ed57825182547fffffffffffffffffffffffff00000000000000000000000000000000000000001673ffffffffffffffffffffffffffffffffffffffff909116178255602090920191600190910190613893565b506138f9929150613917565b5090565b5080546000825590600052602060002090810190612c5791905b5b808211156138f95760008155600101613918565b73ffffffffffffffffffffffffffffffffffffffff81168114612c5757600080fd5b7f4e487b7100000000000000000000000000000000000000000000000000000000600052604160045260246000fd5b604051601f82017fffffffffffffffffffffffffffffffffffffffffffffffffffffffffffffffe016810167ffffffffffffffff811182821017156139c4576139c461394e565b604052919050565b6000806000606084860312156139e157600080fd5b833592506020808501356139f48161392c565b9250604085013567ffffffffffffffff80821115613a1157600080fd5b818701915087601f830112613a2557600080fd5b813581811115613a3757613a3761394e565b8060051b9150613a4884830161397d565b818152918301840191848101908a841115613a6257600080fd5b938501935b83851015613a8057843582529385019390850190613a67565b8096505050505050509250925092565b60008060408385031215613aa357600080fd5b823591506020830135613ab58161392c565b809150509250929050565b60008060408385031215613ad357600080fd5b50508035926020909101359150565b600060208284031215613af457600080fd5b81356133a98161392c565b600060208284031215613b1157600080fd5b5035919050565b60008060408385031215613b2b57600080fd5b8235613b368161392c565b91506020830135613ab58161392c565b600060208284031215613b5857600080fd5b813567ffffffffffffffff811115613b6f57600080fd5b820160c081850312156133a957600080fd5b60008060008060608587031215613b9757600080fd5b8435613ba28161392c565b935060208501359250604085013567ffffffffffffffff80821115613bc657600080fd5b818701915087601f830112613bda57600080fd5b813581811115613be957600080fd5b886020828501011115613bfb57600080fd5b95989497505060200194505050565b600081518084526020808501945080840160005b83811015613c3a57815187529582019590820190600101613c1e565b509495945050505050565b6020815260006133a96020830184613c0a565b600060a082016bffffffffffffffffffffffff808916845260208189168186015267ffffffffffffffff8816604086015273ffffffffffffffffffffffffffffffffffffffff9150818716606086015260a0608086015282865180855260c087019150828801945060005b81811015613ce1578551851683529483019491830191600101613cc3565b50909b9a5050505050505050505050565b600181811c90821680613d0657607f821691505b602082108103613d3f577f4e487b7100000000000000000000000000000000000000000000000000000000600052602260045260246000fd5b50919050565b7f4e487b7100000000000000000000000000000000000000000000000000000000600052603260045260246000fd5b7f4e487b7100000000000000000000000000000000000000000000000000000000600052601160045260246000fd5b60007fffffffffffffffffffffffffffffffffffffffffffffffffffffffffffffffff8203613dd457613dd4613d74565b5060010190565b828152604060208201526000613df46040830184613c0a565b949350505050565b60005b83811015613e17578181015183820152602001613dff565b50506000910152565b60008251613e32818460208701613dfc565b9190910192915050565b8181038181111561179857611798613d74565b808202811582820484141761179857611798613d74565b8082018082111561179857611798613d74565b600082613eaf577f4e487b7100000000000000000000000000000000000000000000000000000000600052601260045260246000fd5b500490565b6bffffffffffffffffffffffff81811683821601908082111561383257613832613d74565b6bffffffffffffffffffffffff82811682821603908082111561383257613832613d74565b8015158114612c5757600080fd5b600060208284031215613f1e57600080fd5b81516133a981613efe565b60008083357fffffffffffffffffffffffffffffffffffffffffffffffffffffffffffffffe1843603018112613f5e57600080fd5b83018035915067ffffffffffffffff821115613f7957600080fd5b602001915036819003821315613f8e57600080fd5b9250929050565b600060208284031215613fa757600080fd5b813563ffffffff811681146133a957600080fd5b601f8211156116bd57600081815260208120601f850160051c81016020861015613fe25750805b601f850160051c820191505b8181101561400157828155600101613fee565b505050505050565b815167ffffffffffffffff8111156140235761402361394e565b614037816140318454613cf2565b84613fbb565b602080601f83116001811461408a57600084156140545750858301515b7fffffffffffffffffffffffffffffffffffffffffffffffffffffffffffffffff600386901b1c1916600185901b178555614001565b6000858152602081207fffffffffffffffffffffffffffffffffffffffffffffffffffffffffffffffe08616915b828110156140d7578886015182559484019460019091019084016140b8565b508582101561411357878501517fffffffffffffffffffffffffffffffffffffffffffffffffffffffffffffffff600388901b60f8161c191681555b5050505050600190811b01905550565b60006020828403121561413557600080fd5b813561ffff811681146133a957600080fd5b86815285602082015261ffff85166040820152600063ffffffff808616606084015280851660808401525060c060a083015282518060c08401526141928160e0850160208701613dfc565b601f017fffffffffffffffffffffffffffffffffffffffffffffffffffffffffffffffe0169190910160e001979650505050505050565b67ffffffffffffffff81811683821601908082111561383257613832613d74565b7f4e487b7100000000000000000000000000000000000000000000000000000000600052603160045260246000fd5b60006020828403121561422b57600080fd5b5051919050565b7fffffffff0000000000000000000000000000000000000000000000000000000081358181169160048510156142725780818660040360031b1b83161692505b505092915050565b6000808585111561428a57600080fd5b8386111561429757600080fd5b5050820193919092039150565b6000602082840312156142b657600080fd5b6040516020810181811067ffffffffffffffff821117156142d9576142d961394e565b60405282356142e781613efe565b8152939250505056fea164736f6c6343000813000a",
  "linkReferences": {},
  "deployedLinkReferences": {}
}