{
  "_format": "hh-sol-artifact-1",
  "contractName": "RandomNumberDirectFundingConsumerV2Plus",
  "sourceName": "contracts/RandomNumberDirectFundingConsumerV2Plus.sol",
  "abi": [
    {
      "inputs": [
        {
          "internalType": "address",
          "name": "_linkAddress",
          "type": "address"
        },
        {
          "internalType": "address",
          "name": "_wrapperAddress",
          "type": "address"
        }
      ],
      "stateMutability": "nonpayable",
      "type": "constructor"
    },
    {
      "inputs": [
        {
          "internalType": "uint256",
          "name": "balance",
          "type": "uint256"
        },
        {
          "internalType": "uint256",
          "name": "paid",
          "type": "uint256"
        }
      ],
      "name": "InsufficientFunds",
      "type": "error"
    },
    {
      "inputs": [
        {
          "internalType": "address",
          "name": "sender",
          "type": "address"
        },
        {
          "internalType": "address",
          "name": "receiver",
          "type": "address"
        },
        {
          "internalType": "uint256",
          "name": "amount",
          "type": "uint256"
        }
      ],
      "name": "LinkTransferError",
      "type": "error"
    },
    {
      "inputs": [
        {
          "internalType": "address",
          "name": "have",
          "type": "address"
        },
        {
          "internalType": "address",
          "name": "want",
          "type": "address"
        }
      ],
      "name": "OnlyVRFWrapperCanFulfill",
      "type": "error"
    },
    {
      "inputs": [
        {
          "internalType": "uint256",
          "name": "requestId",
          "type": "uint256"
        }
      ],
      "name": "RequestNotFound",
      "type": "error"
    },
    {
      "anonymous": false,
      "inputs": [
        {
          "indexed": true,
          "internalType": "address",
          "name": "from",
          "type": "address"
        },
        {
          "indexed": true,
          "internalType": "address",
          "name": "to",
          "type": "address"
        }
      ],
      "name": "OwnershipTransferRequested",
      "type": "event"
    },
    {
      "anonymous": false,
      "inputs": [
        {
          "indexed": true,
          "internalType": "address",
          "name": "from",
          "type": "address"
        },
        {
          "indexed": true,
          "internalType": "address",
          "name": "to",
          "type": "address"
        }
      ],
      "name": "OwnershipTransferred",
      "type": "event"
    },
    {
      "anonymous": false,
      "inputs": [
        {
          "indexed": false,
          "internalType": "uint256",
          "name": "requestId",
          "type": "uint256"
        },
        {
          "indexed": false,
          "internalType": "uint256[]",
          "name": "randomWords",
          "type": "uint256[]"
        },
        {
          "indexed": false,
          "internalType": "uint256",
          "name": "payment",
          "type": "uint256"
        }
      ],
      "name": "RequestFulfilled",
      "type": "event"
    },
    {
      "anonymous": false,
      "inputs": [
        {
          "indexed": false,
          "internalType": "uint256",
          "name": "requestId",
          "type": "uint256"
        },
        {
          "indexed": false,
          "internalType": "uint32",
          "name": "numWords",
          "type": "uint32"
        },
        {
          "indexed": false,
          "internalType": "uint256",
          "name": "paid",
          "type": "uint256"
        }
      ],
      "name": "RequestSent",
      "type": "event"
    },
    {
      "inputs": [],
      "name": "acceptOwnership",
      "outputs": [],
      "stateMutability": "nonpayable",
      "type": "function"
    },
    {
      "inputs": [],
      "name": "getBalance",
      "outputs": [
        {
          "internalType": "uint256",
          "name": "",
          "type": "uint256"
        }
      ],
      "stateMutability": "view",
      "type": "function"
    },
    {
      "inputs": [],
      "name": "getLinkToken",
      "outputs": [
        {
          "internalType": "contract LinkTokenInterface",
          "name": "",
          "type": "address"
        }
      ],
      "stateMutability": "view",
      "type": "function"
    },
    {
      "inputs": [],
      "name": "getNumberOfRequests",
      "outputs": [
        {
          "internalType": "uint256",
          "name": "",
          "type": "uint256"
        }
      ],
      "stateMutability": "view",
      "type": "function"
    },
    {
      "inputs": [
        {
          "internalType": "uint256",
          "name": "_requestId",
          "type": "uint256"
        }
      ],
      "name": "getRequestStatus",
      "outputs": [
        {
          "internalType": "uint256",
          "name": "paid",
          "type": "uint256"
        },
        {
          "internalType": "bool",
          "name": "fulfilled",
          "type": "bool"
        },
        {
          "internalType": "uint256[]",
          "name": "randomWords",
          "type": "uint256[]"
        }
      ],
      "stateMutability": "view",
      "type": "function"
    },
    {
      "inputs": [],
      "name": "i_vrfV2PlusWrapper",
      "outputs": [
        {
          "internalType": "contract IVRFV2PlusWrapper",
          "name": "",
          "type": "address"
        }
      ],
      "stateMutability": "view",
      "type": "function"
    },
    {
      "inputs": [],
      "name": "lastRequestId",
      "outputs": [
        {
          "internalType": "uint256",
          "name": "",
          "type": "uint256"
        }
      ],
      "stateMutability": "view",
      "type": "function"
    },
    {
      "inputs": [],
      "name": "owner",
      "outputs": [
        {
          "internalType": "address",
          "name": "",
          "type": "address"
        }
      ],
      "stateMutability": "view",
      "type": "function"
    },
    {
      "inputs": [
        {
          "internalType": "uint256",
          "name": "_requestId",
          "type": "uint256"
        },
        {
          "internalType": "uint256[]",
          "name": "_randomWords",
          "type": "uint256[]"
        }
      ],
      "name": "rawFulfillRandomWords",
      "outputs": [],
      "stateMutability": "nonpayable",
      "type": "function"
    },
    {
      "inputs": [
        {
          "internalType": "uint256",
          "name": "",
          "type": "uint256"
        }
      ],
      "name": "requestIds",
      "outputs": [
        {
          "internalType": "uint256",
          "name": "",
          "type": "uint256"
        }
      ],
      "stateMutability": "view",
      "type": "function"
    },
    {
      "inputs": [
        {
          "internalType": "uint32",
          "name": "_callbackGasLimit",
          "type": "uint32"
        },
        {
          "internalType": "uint16",
          "name": "_requestConfirmations",
          "type": "uint16"
        },
        {
          "internalType": "uint32",
          "name": "_numWords",
          "type": "uint32"
        }
      ],
      "name": "requestRandomWords",
      "outputs": [
        {
          "internalType": "uint256",
          "name": "",
          "type": "uint256"
        }
      ],
      "stateMutability": "nonpayable",
      "type": "function"
    },
    {
      "inputs": [
        {
          "internalType": "uint256",
          "name": "",
          "type": "uint256"
        }
      ],
      "name": "s_requests",
      "outputs": [
        {
          "internalType": "uint256",
          "name": "paid",
          "type": "uint256"
        },
        {
          "internalType": "bool",
          "name": "fulfilled",
          "type": "bool"
        }
      ],
      "stateMutability": "view",
      "type": "function"
    },
    {
      "inputs": [
        {
          "internalType": "address",
          "name": "to",
          "type": "address"
        }
      ],
      "name": "transferOwnership",
      "outputs": [],
      "stateMutability": "nonpayable",
      "type": "function"
    },
    {
      "inputs": [
        {
          "internalType": "address",
          "name": "_receiver",
          "type": "address"
        }
      ],
      "name": "withdrawLink",
      "outputs": [],
      "stateMutability": "nonpayable",
      "type": "function"
    }
  ],
  "bytecode": "0x60c06040523480156200001157600080fd5b506040516200147838038062001478833981016040819052620000349162000234565b33806000836000819050806001600160a01b0316631c4695f46040518163ffffffff1660e01b8152600401602060405180830381865afa1580156200007d573d6000803e3d6000fd5b505050506040513d601f19601f82011682018060405250810190620000a391906200026c565b6001600160a01b0390811660805290811660a052831690506200010d5760405162461bcd60e51b815260206004820152601860248201527f43616e6e6f7420736574206f776e657220746f207a65726f000000000000000060448201526064015b60405180910390fd5b600080546001600160a01b0319166001600160a01b0384811691909117909155811615620001405762000140816200016c565b5050600580546001600160a01b0319166001600160a01b03949094169390931790925550620002919050565b336001600160a01b03821603620001c65760405162461bcd60e51b815260206004820152601760248201527f43616e6e6f74207472616e7366657220746f2073656c66000000000000000000604482015260640162000104565b600180546001600160a01b0319166001600160a01b0383811691821790925560008054604051929316917fed8889f560326eb138920d842192f0eb3dd22b4f139c87a2c57538e05bae12789190a350565b80516001600160a01b03811681146200022f57600080fd5b919050565b600080604083850312156200024857600080fd5b620002538362000217565b9150620002636020840162000217565b90509250929050565b6000602082840312156200027f57600080fd5b6200028a8262000217565b9392505050565b60805160a05161119e620002da600039600081816101a60152818161026d01528181610ade01528181610b890152610c3301526000818161022b0152610b4d015261119e6000f3fe608060405234801561001057600080fd5b50600436106100ea5760003560e01c8063973884971161008c578063d8a4676f11610066578063d8a4676f14610207578063e76d516814610229578063f2fde38b1461024f578063fc2a88c31461026257600080fd5b806397388497146101995780639ed0868d146101a1578063a168fa89146101c857600080fd5b806379ba5097116100c857806379ba50971461012c5780638796ba8c146101345780638da5cb5b1461014757806390e9ca7f1461018657600080fd5b806312065fe0146100ef5780631fe543e3146101045780634b494dc014610119575b600080fd5b475b6040519081526020015b60405180910390f35b610117610112366004610e4f565b61026b565b005b6100f1610127366004610f50565b61030d565b610117610497565b6100f1610142366004610f9c565b610594565b60005473ffffffffffffffffffffffffffffffffffffffff165b60405173ffffffffffffffffffffffffffffffffffffffff90911681526020016100fb565b610117610194366004610fb5565b6105b5565b6003546100f1565b6101617f000000000000000000000000000000000000000000000000000000000000000081565b6101f26101d6366004610f9c565b6002602052600090815260409020805460019091015460ff1682565b604080519283529015156020830152016100fb565b61021a610215366004610f9c565b610759565b6040516100fb9392919061102d565b7f0000000000000000000000000000000000000000000000000000000000000000610161565b61011761025d366004610fb5565b61083a565b6100f160045481565b7f00000000000000000000000000000000000000000000000000000000000000003373ffffffffffffffffffffffffffffffffffffffff8216146102fe576040517f8ba9316e00000000000000000000000000000000000000000000000000000000815233600482015273ffffffffffffffffffffffffffffffffffffffff821660248201526044015b60405180910390fd5b610308838361084e565b505050565b6000610317610949565b60006103336040518060200160405280600015158152506109cc565b905060008061034487878786610a88565b915091506040518060600160405280828152602001600015158152602001600067ffffffffffffffff81111561037c5761037c610e20565b6040519080825280602002602001820160405280156103a5578160200160208202803683370190505b50905260008381526002602081815260409283902084518155848201516001820180547fffffffffffffffffffffffffffffffffffffffffffffffffffffffffffffff001691151591909117905592840151805161040a938501929190910190610dc0565b5050600380546001810182556000919091527fc2575a0e9e593c00f959f8c92f12db2869c3395a3b0502d05e2516446f71f85b018390555060048290556040805183815263ffffffff871660208201529081018290527f643b454d39972ed209afefa4a771c7a9057229bc7e6b66566f5be8441bf9b1e29060600160405180910390a15095945050505050565b60015473ffffffffffffffffffffffffffffffffffffffff163314610518576040517f08c379a000000000000000000000000000000000000000000000000000000000815260206004820152601660248201527f4d7573742062652070726f706f736564206f776e65720000000000000000000060448201526064016102f5565b60008054337fffffffffffffffffffffffff00000000000000000000000000000000000000008083168217845560018054909116905560405173ffffffffffffffffffffffffffffffffffffffff90921692909183917f8be0079c531659141344cd1fd0a4f28419497f9722a3daafe3b4186f6b6457e091a350565b600381815481106105a457600080fd5b600091825260209091200154905081565b6105bd610949565b6005546040517f70a0823100000000000000000000000000000000000000000000000000000000815230600482015273ffffffffffffffffffffffffffffffffffffffff90911690819063a9059cbb90849083906370a0823190602401602060405180830381865afa158015610637573d6000803e3d6000fd5b505050506040513d601f19601f8201168201806040525081019061065b9190611057565b6040517fffffffff0000000000000000000000000000000000000000000000000000000060e085901b16815273ffffffffffffffffffffffffffffffffffffffff909216600483015260248201526044016020604051808303816000875af11580156106cb573d6000803e3d6000fd5b505050506040513d601f19601f820116820180604052508101906106ef9190611070565b610755576040517f08c379a000000000000000000000000000000000000000000000000000000000815260206004820152601260248201527f556e61626c6520746f207472616e73666572000000000000000000000000000060448201526064016102f5565b5050565b600081815260026020818152604080842081516060818101845282548252600183015460ff161515828601529482018054845181870281018701865281815288979688969495948601939192908301828280156107d557602002820191906000526020600020905b8154815260200190600101908083116107c1575b50505050508152505090508060000151600003610821576040517f4ec726c7000000000000000000000000000000000000000000000000000000008152600481018690526024016102f5565b8051602082015160409092015190969195509350915050565b610842610949565b61084b81610ccb565b50565b600082815260026020526040902080546108c4576040517f08c379a000000000000000000000000000000000000000000000000000000000815260206004820152601160248201527f72657175657374206e6f7420666f756e6400000000000000000000000000000060448201526064016102f5565b600181810180547fffffffffffffffffffffffffffffffffffffffffffffffffffffffffffffff0016909117905581516109079060028301906020850190610dc0565b5080546040517f147eb1ff0c82f87f2b03e2c43f5a36488ff63ec6b730195fde4605f612f8db519161093c9186918691611092565b60405180910390a1505050565b60005473ffffffffffffffffffffffffffffffffffffffff1633146109ca576040517f08c379a000000000000000000000000000000000000000000000000000000000815260206004820152601660248201527f4f6e6c792063616c6c61626c65206279206f776e65720000000000000000000060448201526064016102f5565b565b60607f92fd13387c7fe7befbc38d303d6468778fb9731bc4583f17d92989c6fcfdeaaa82604051602401610a0591511515815260200190565b604080517fffffffffffffffffffffffffffffffffffffffffffffffffffffffffffffffe08184030181529190526020810180517bffffffffffffffffffffffffffffffffffffffffffffffffffffffff167fffffffff000000000000000000000000000000000000000000000000000000009093169290921790915292915050565b6040517f27e5c50a00000000000000000000000000000000000000000000000000000000815263ffffffff808616600483015283166024820152600090819073ffffffffffffffffffffffffffffffffffffffff7f000000000000000000000000000000000000000000000000000000000000000016906327e5c50a90604401602060405180830381865afa158015610b25573d6000803e3d6000fd5b505050506040513d601f19601f82011682018060405250810190610b499190611057565b90507f000000000000000000000000000000000000000000000000000000000000000073ffffffffffffffffffffffffffffffffffffffff16634000aea07f00000000000000000000000000000000000000000000000000000000000000008389898989604051602001610bc0949392919061111f565b6040516020818303038152906040526040518463ffffffff1660e01b8152600401610bed9392919061115c565b6020604051808303816000875af1158015610c0c573d6000803e3d6000fd5b505050506040513d601f19601f82011682018060405250810190610c309190611070565b507f000000000000000000000000000000000000000000000000000000000000000073ffffffffffffffffffffffffffffffffffffffff1663fc2a88c36040518163ffffffff1660e01b8152600401602060405180830381865afa158015610c9c573d6000803e3d6000fd5b505050506040513d601f19601f82011682018060405250810190610cc09190611057565b915094509492505050565b3373ffffffffffffffffffffffffffffffffffffffff821603610d4a576040517f08c379a000000000000000000000000000000000000000000000000000000000815260206004820152601760248201527f43616e6e6f74207472616e7366657220746f2073656c6600000000000000000060448201526064016102f5565b600180547fffffffffffffffffffffffff00000000000000000000000000000000000000001673ffffffffffffffffffffffffffffffffffffffff83811691821790925560008054604051929316917fed8889f560326eb138920d842192f0eb3dd22b4f139c87a2c57538e05bae12789190a350565b828054828255906000526020600020908101928215610dfb579160200282015b82811115610dfb578251825591602001919060010190610de0565b50610e07929150610e0b565b5090565b5b80821115610e075760008155600101610e0c565b7f4e487b7100000000000000000000000000000000000000000000000000000000600052604160045260246000fd5b60008060408385031215610e6257600080fd5b8235915060208084013567ffffffffffffffff80821115610e8257600080fd5b818601915086601f830112610e9657600080fd5b813581811115610ea857610ea8610e20565b8060051b6040517fffffffffffffffffffffffffffffffffffffffffffffffffffffffffffffffe0603f83011681018181108582111715610eeb57610eeb610e20565b604052918252848201925083810185019189831115610f0957600080fd5b938501935b82851015610f2757843584529385019392850192610f0e565b8096505050505050509250929050565b803563ffffffff81168114610f4b57600080fd5b919050565b600080600060608486031215610f6557600080fd5b610f6e84610f37565b9250602084013561ffff81168114610f8557600080fd5b9150610f9360408501610f37565b90509250925092565b600060208284031215610fae57600080fd5b5035919050565b600060208284031215610fc757600080fd5b813573ffffffffffffffffffffffffffffffffffffffff81168114610feb57600080fd5b9392505050565b600081518084526020808501945080840160005b8381101561102257815187529582019590820190600101611006565b509495945050505050565b838152821515602082015260606040820152600061104e6060830184610ff2565b95945050505050565b60006020828403121561106957600080fd5b5051919050565b60006020828403121561108257600080fd5b81518015158114610feb57600080fd5b8381526060602082015260006110ab6060830185610ff2565b9050826040830152949350505050565b6000815180845260005b818110156110e1576020818501810151868301820152016110c5565b5060006020828601015260207fffffffffffffffffffffffffffffffffffffffffffffffffffffffffffffffe0601f83011685010191505092915050565b600063ffffffff808716835261ffff861660208401528085166040840152506080606083015261115260808301846110bb565b9695505050505050565b73ffffffffffffffffffffffffffffffffffffffff8416815282602082015260606040820152600061104e60608301846110bb56fea164736f6c6343000813000a",
  "linkReferences": {},
  "deployedLinkReferences": {}
}